:10000000A03F0020CD350000BF5F00000D3500008F
:100010000D3500000D3500000D3500000D350000D8
:100020000D3500000D3500000D35000035310000A4
:100030000D3500000D350000DD300000495F000087
:10004000A5350000A5350000A5350000A535000048
:10005000A5350000A5350000A5350000A535000038
:10006000A5350000A5350000A5350000A535000028
:10007000A5350000A5350000A5350000A535000018
:10008000A5350000A5350000A5350000A535000008
:10009000A5350000A5350000A5350000A5350000F8
:1000A000A5350000A5350000A5350000A5350000E8
:1000B000A5350000A5350000A5350000A5350000D8
:1000C000A5350000A5350000A5350000A5350000C8
:1000D000A5350000A5350000A5350000A5350000B8
:1000E000A5350000A5350000A5350000A5350000A8
:1000F000A5350000A5350000A5350000A535000098
:100100007BB972B90029BEBF00204FF0004106E064
:1001100008BF00281CBF6FF000414FF0FF3000F017
:100120003FB8ADF1080C6DE904CE002909DB002BC6
:100130001ADB00F037F8DDF804E0DDE9022304B053
:100140007047404261EB4101002B1BDB00F02AF8B5
:10015000DDF804E0DDE9022304B0404261EB410137
:10016000524263EB43037047524263EB430300F098
:1001700019F8DDF804E0DDE9022304B0404261EB48
:1001800041017047524263EB430300F00BF8DDF886
:1001900004E0DDE9022304B0524263EB43037047FD
:1001A000704700BF2DE9F04F099F154604468E4663
:1001B0001E46002B40F0CC808A42B2FA82FC4CD919
:1001C000BCF1000F0BD0CCF1200801FA0CFE20FA94
:1001D00008F802FA0CF548EA0E0E00FA0CF44FEAA1
:1001E00015491FFA85F8BEFBF9FA210C09FB1AE341
:1001F0000AFB08FB41EA03439B452AD9EB180AF1A5
:10020000FF3004D29B4502D9AAF102002B44A3EB94
:100210000B03A4B2B3FBF9F209FB123302FB08F89B
:1002200044EA0344A04516D92C1902F1FF3303D246
:10023000A04501D9931E2C44A4EB080443EA0040D6
:1002400027B124FA0CF400233C607B603146BDE802
:10025000F08F5046DBE71346EEE702B9FFDEBCF154
:10026000000F2ED18B1A01264FEA154EAAB2B3FB0E
:10027000FEF8210C0EFB183308FB02F941EA034398
:10028000994561D9EB1808F1FF3004D2994502D99C
:10029000A8F102002B44A3EB0903A4B2B3FBFEF1C7
:1002A0000EFB11334A4344EA0344A2424ED92C19AF
:1002B00001F1FF3303D2A24201D98B1E2C44A41AB0
:1002C000BCE7CCF1200E02FA0CF521FA0EF901FA86
:1002D0000CF320FA0EFE4EEA03034FEA154800FA2B
:1002E0000CF4B9FBF8F11FFA85FE08FB1192180C0B
:1002F00001FB0EF640EA0242964221D9AA1801F10A
:10030000FF3003D2964201D9881E2A44921B9BB229
:10031000B2FBF8F908FB192209FB0EFE43EA02437F
:100320009E450FD9EB1809F1FF3604D29E4502D93C
:10033000A9F102062B44A3EB0E0346EA004693E71D
:100340000846E3E74E46F6E74046A4E70B46B6E725
:100350008B4205D90FB1C7E900010026304675E789
:10036000B3FA83FCBCF1000F0FD18B4201D3824260
:1003700009D8841A61EB030E0120002F6AD0C7E967
:10038000004E002662E76046F7E7CCF1200E03FA44
:100390000CF322FA0EF521FA0EF41D4301FA0CF3C8
:1003A00020FA0EF10B434FEA154A00FA0CF6B4FBA3
:1003B000FAF91FFA85F80AFB19401C0C09FB08F131
:1003C00044EA0044A14202FA0CF23FD92C1909F187
:1003D000FF3004D2A14202D9A9F102002C44641AD0
:1003E0009BB2B4FBFAF90AFB194409FB08F843EA8B
:1003F000044188452CD9691809F1FF3304D2884596
:1004000002D9A9F10203294443EA0040A1EB080103
:10041000A0FB02894945C2464C4602D306D1464557
:1004200004D2B8EB020A69EB0504013897B1B6EBC8
:100430000A0361EB040606FA0EFE23FA0CF34EEAF9
:10044000030326FA0CF6C7E900369AE74846C6E7E2
:100450004B46D9E73E46F9E630B585B04FF000008F
:10046000032363F302006FF3C500324B324A9B1A39
:10047000C3F3C90363F38F10304905F0D2FB04F0D6
:100480002DF82F4800F068F8A8B101A800F0E6FDAB
:1004900010B34FF00000012363F302006FF3C500B7
:1004A000244B254A9B1AC3F3C90363F38F102549D4
:1004B00005F0B7FBFEE7012363F302006FF3C5000D
:1004C0001C4B1D4A9B1AC3F3C90363F38F101C4ACC
:1004D0001D4905F0A6FBFEE703254FF0000065F37C
:1004E00002006FF3C500134C134BE41AC4F3C904A4
:1004F00064F38F10039A154905F093FB4FF0000049
:1005000065F302006FF3C50064F38F10104905F026
:1005100088FB01A803F0ACFF4FF00000012363F358
:1005200002006FF3C50064F38F100A4905F079FBF0
:10053000FEE700BF1868000010680000586800005F
:100540006C6800009C68000080680000BC680000C7
:10055000E86800000869000008B5054B1B6813B186
:10056000034B186808BD03F0DFFB014B1860F7E789
:100570000800002010B900200860704708B5024646
:100580004FF00000012363F302006FF3C500074B37
:1005900007495B1AC3F3C90363F38F1000230549AE
:1005A00005F03FFB6FF0150008BD00BF18680000A4
:1005B0001068000034690000022803D8034B53F888
:1005C000200070476FF01500704700BF28690000D9
:1005D00010B402460A4B9B6D9C680020002A0ADB7F
:1005E000074B5B6A03EBC2035B6803449C4202D384
:1005F000013A1846F2E701320A6010BC704700BFAA
:100600000C00002038B5064C206A05F082FC054637
:10061000A06D05F07EFC854200D3284638BD00BFA2
:100620000C00002070B582B00446FFF7C5FF01A999
:10063000C0B202F00FFAD8B90646019803F036FFAF
:100640000546019805F0E7FB0C482C2303FB04004A
:100650000023032B05D8C25C954207D10133DBB2DE
:10066000F7E701233BB1304602B070BD0023F9E744
:100670004FF0FF36F7E74FF0FF36F4E70C000020AD
:100680002DE9F8435B4B9E6AD3F85480802E0ED838
:10069000B8F1800F0BD8574B9B6DD3F808E00024BE
:1006A000204621462746A4462246234625E04FF011
:1006B0000000022363F302006FF3C5004E4B4F4A64
:1006C0009B1AC3F3C90363F38F104D4905F0A9FAD0
:1006D0000020BDE8F883DFF81C91D9F8245005EB21
:1006E000C1056D682B44D9F8505005EBC0056D6805
:1006F0002A44013101309A4243D0B14201D34045EE
:100700005CD29342E7D093421DD23A4D6D6A05EB1D
:10071000C1056D682B44022C02D001310124EAE7A7
:100720004FF00000022363F302006FF3C500324B69
:10073000324A9B1AC3F3C90363F38F10314905F0A2
:1007400070FA0020C5E72B4D2D6D05EBC0056D68D7
:100750002A44012C02D001300224CCE74FF00000E3
:10076000022363F302006FF3C500234B234A9B1A55
:10077000C3F3C90363F38F10224905F052FA002036
:10078000A7E79C441744734505D8724503D8002455
:1007900022462346B1E74FF00000022363F3020034
:1007A0006FF3C500144B154A9B1AC3F3C90363F3D7
:1007B0008F10154905F035FA00208AE7B14203D1C0
:1007C000404501D1BC4512D04FF00000022363F335
:1007D00002006FF3C500084B084A9B1AC3F3C90314
:1007E00063F38F10094905F01CFA002071E701201E
:1007F0006FE700BF0C0000201868000010680000C0
:10080000CC690000F86900002C6A0000606A0000F2
:1008100030B583B080230193164B5A6A01A9022098
:1008200002F02CF9F0B9134B019A9A6280220192DE
:100830001A6D01A9012002F021F9B8B90D4B019AF6
:100840005A6580220192DA6D01A9032002F016F99F
:10085000044668B9074D019B2B66FFF7D3FE85F868
:10086000640000E00124204603B030BD0124FAE713
:100870000124F8E70C00002010B584B002A9022082
:1008800003F0D7FF03A9032003F0D3FF4FF00000CC
:10089000032363F302006FF3C5004C4B4C4A9B1AD1
:1008A000C3F3C90363F38F109DF80830012B2FD0D9
:1008B000032B2BD0474B9DF809209DF80A1001917E
:1008C0000092454A454905F0ACF94FF0000003237A
:1008D00063F302006FF3C5003C4B3D4A9B1AC3F320
:1008E000C90363F38F109DF80C30012B14D0032B38
:1008F00010D0384B9DF80D209DF80E1001910092FC
:10090000374A364905F08DF9002312E0354BD2E71E
:10091000354BD0E7334BEDE7334BEBE7334A02EB94
:1009200083029278042A1AD09DF809108A4216D0C0
:100930000133032B36D82D4A12F82320042A03D082
:100940009DF808108A42F3D1284A02EB83025278BC
:10095000042AE3D09DF80C108A42E9D1DEE7234A4D
:1009600002EB8303DC784FF00000032363F3020003
:100970006FF3C500154B164A9B1AC3F3C90363F303
:100980008F103CB1012C0BD0022C01D0184A02E090
:10099000184A00E0184A194905F043F9204613E0C7
:1009A000174AF8E74FF00000032363F302006FF3E8
:1009B000C500064B064A9B1AC3F3C90363F38F10A5
:1009C000104905F02EF9002004B010BD1868000091
:1009D000106800008C6A0000D46A0000E46A00001D
:1009E000106B0000986A0000906A00003C6B0000E9
:1009F000B06A0000C46A0000A06A0000186B000022
:100A0000A86A0000286B00002DE9F04782B0064676
:100A10008A4603F0B3FE8146304603F09FFE8046CF
:100A200000242746254605E01DB117B9274600E0FA
:100A300001250134444514DA204B93F86410012356
:100A40000DF1070204FB0191304603F031FD00284F
:100A50002FDB0128E8D0002DEAD0002FE9D02B466B
:100A600000E000239BB92DB307B13C46013C144B79
:100A700083FB0423A3EBE4735A1CCAF8002003EBA6
:100A80004303E41A01348AF80440002512E04FF0D1
:100A90000000012363F302006FF3C500094B0A4A0B
:100AA0009B1AC3F3C90363F38F10084905F0B9F823
:100AB000D9E70125284602B0BDE8F0870C000020E8
:100AC000565555551868000010680000AC690000C4
:100AD0002DE9F84F80468A46174699460A9E00251A
:100AE0000FE023460F4AE919404605F095F9A0B9F1
:100AF00023460C4A05EB0901504605F0ACF970B9E4
:100B00002544B54206D2741BB4F5806FE9D94FF481
:100B10008064E6E70020BDE8F88F0120FBE70120B4
:100B2000F9E700BF7800002038B505460024012C05
:100B30000FDC094B2C2101FB0431204603F03CFD66
:100B4000034608B90134F2E7002C03DD15B9002390
:100B500000E00023184638BD0C0000202DE9F843C2
:100B60000378012B02D0022B24D100238146984622
:100B7000114A2C2101FB03239C6A013C92F864007A
:100B800003F0E6FD074600250B4A2C2303FB082350
:100B90005B6A03EBC402566853F834101B68324694
:100BA000C91A484605F087F9013C3544AF42EBD8F5
:100BB000BDE8F8830120FBE70C00002000B585B0FC
:100BC00000230293019300934FF48073054A00F0D1
:100BD00027FC034618B9184605B05DF804FB03234B
:100BE000F9E700BF7810002070B582B004460E46C9
:100BF000FFF7E2FC01A9C0B201F02CFF18B10125FA
:100C0000284602B070BD234D2C2000FB0455204621
:100C1000FFF708FD002836D01E4A2B6913F0100F8D
:100C200034D12C2303FB04F3D2581B4B9A4219D026
:100C30000CBB4FF00000012363F302006FF3C5000B
:100C4000164B174A9B1AC3F3C90363F38F10C4B939
:100C5000144A154904F0E5FF4FF0FF35019805F0FF
:100C6000DAF8CDE7324601992846FFF7A7FF054697
:100C70000028F3D0DCE701988268002105F01BF919
:100C8000D7E70A4AE5E74FF0FF35E7E74FF0FF35D2
:100C9000E4E700BF0C0000203DB8F39618680000A0
:100CA00010680000846B00008C6B0000786B000003
:100CB0002DE9F04383B000AF04461F4B1D68EB1DC8
:100CC00023F00703ADEB030D6E4643796BB10320B0
:100CD000391D01F0BFFE50B10124786805F09BF882
:100CE00020460C37BD46BDE8F0830220F0E7786867
:100CF00003F044FD8046114B93F86420217920686D
:100D000003F0EDFB8044786805F003F981467868CC
:100D100003F0CCFB2A460146304605F0DDF9237985
:100D200033704B4632464146786805F094F80446E5
:100D30000028D2D00124D0E7B06B00000C000020C6
:100D40002DE9F04188B00F4614467C4E736A53F883
:100D500030501B68ED1A96F8640003F0F9FCB36A92
:100D6000013B7919726A52F8333012689B1A994222
:100D700001D93E1A00E03E462368012B22D0002311
:100D8000637107A9022001F065FE06A9012001F0A8
:100D900061FE05A9032001F05DFE2379012B17D028
:100DA0002379022B60D02379032B7FD0079805F09D
:100DB00032F8069805F02FF8059805F02CF808B0E1
:100DC000BDE8F081BE4201D00123D9E70023D7E777
:100DD0003A460021059805F06EF8009600232A4651
:100DE00005990698FFF774FE2368012B0BD00223A8
:100DF00023712046FFF75CFF0028D1D0504A1368CA
:100E000001331360CCE76379ABB1DDF8148003A93B
:100E1000012003F00EFD9DF80E30012B07D0A168D4
:100E2000404603F02CFD404600F034FADFE7404630
:100E300003F01FFDF3E70798FFF790FEDDF81C8035
:100E400003A9012003F0F5FC9DF80E30012B07D01B
:100E5000A168404603F013FD404600F01BFAC6E7C8
:100E6000404603F006FDF3E73A462946069805F0AA
:100E700022F800962B462A4606990798FFF728FE87
:100E80002368012B0BD0032323712046FFF710FFAB
:100E9000002888D02A4A13680133136083E76379F6
:100EA000002BF0D10698FFF759FEECE73A462946A9
:100EB000079805F000F800962B4600220799059840
:100EC000FFF706FE63798BB92368013323600123A2
:100ED0002371002363712046FFF7EAFE00283FF4E8
:100EE00065AF174A1368013313605FE7059803F095
:100EF00045FC124B93F8643003EB430300937319E2
:100F0000024607990598FFF7E3FD18B10C4A1368EC
:100F10000133136004A9032003F08BFC9DF8123009
:100F2000012B07D0A168079803F0A9FC079800F0EF
:100F3000B1F9C9E7079803F09CFCF3E70C00002027
:100F40007400002030B585B005460023019302935C
:100F50000368012B02D10379012B09D005F10800A8
:100F600000F04EF9AB68019300210B4608461EE0E5
:100F7000334B1A68334B9A420CD0314BDA6A314BFF
:100F80009A420DD0029B019A934200D90193019B92
:100F9000AB60E9E701AA2A49002003F0DFFAECE799
:100FA00002AA2949012003F0D9FAEBE70130019A9E
:100FB0009A4201D88B4205D2214C646A04EBC004EA
:100FC000646823448A4201D88B4205D91C4C246DA5
:100FD00004EBC004646821449A42E7D88A42E5D809
:100FE0008B42E3D1002402E0039801380134002849
:100FF0000CDB03A9FFF7ECFA2B68013BA342F3D803
:101000002A4601460398FFF79BFEEDE70F4B1A684F
:10101000002A02DC002005B030BD4FF000000223A2
:1010200063F302006FF3C500094B0A495B1AC3F36F
:10103000C90363F38F10084904F0F3FDEAE700BF2A
:101040000C0000203DB8F39638000020740000200A
:1010500018680000106800004C6B000070B582B08A
:101060000646584B584A5A62584A1A65584ADA6531
:1010700000240CE02046FFF79FFA2C2303FB04F327
:10108000203350491944C0B201F0E4FC0134012C72
:10109000F0D95049032001F0DDFCFFF7B9FB05460C
:1010A00090B90020FFF740FD0546F8B9FFF7E8FAD0
:1010B00010BB01230193019B013B042B38D8DFE8CF
:1010C00003F02C2F2F2F3B004FF00000022363F37F
:1010D00002006FF3C500404B404A9B1AC3F3C9039B
:1010E00063F38F1080223E4904F09BFD354B986DD1
:1010F00004F091FE00245FE001A803F0BEFA05466B
:101100000028F3D1019B043B012BD4D803F070FAE3
:101110000028D0D0FF230193CDE700231C460DE02B
:1011200003F086FA38B3FF23019301231C4605E040
:10113000FF230193002301E001230024019AFF2AE9
:101140001CD033B10020FFF7EFFC05460028CDD1BD
:10115000002400210846FFF747FD054600BB194B58
:101160001A6A527832711A6A5268B2602C2202FBF3
:1011700004343460BAE701231C46DFE74FF0000077
:10118000012363F302006FF3C500134B134A9B1A4C
:10119000C3F3C90363F38F10124904F042FDFEE765
:1011A0000325A3E7C4F10103064A2C2101FB032315
:1011B000186A04F030FE0134012CF3D9284602B03D
:1011C00070BD00BF0C00002078040020780C0020C7
:1011D00078080020640000201868000010680000F3
:1011E00064690000A469000008B51022034904F0F6
:1011F00039FF08B1022008BD0120FCE7B46B0000F4
:1012000030B587B0054601A9022001F023FC18B1D2
:101210000124204607B030BD019C204603F05AFA55
:10122000102302AA0146204604F0F6FD20B1012455
:10123000019804F0F0FDECE71022154902A804F033
:1012400011FFA0B1019804F0E6FD01A9032001F00F
:1012500001FC08B10124DCE7019C204603F03AFAC6
:10126000102302AA0146204604F0D6FD70B9019C65
:10127000204603F038FA04232A460146204604F0AB
:10128000CBFD04460028D3D00124D1E70124CFE7C9
:10129000B46B000010B5044603F01CFA1023054A95
:1012A0000146204604F0D7FD034608B9184610BD94
:1012B0000123FBE7B46B000010B582B001A9022046
:1012C00003F0B7FA002868D16946012003F0B1FAAB
:1012D000002864D1002307E06278042A13D09DF827
:1012E00000108A420FD00133022B42D803EB430295
:1012F00052002C498C188A5C042AEDD09DF8041009
:101300008A42F0D1E8E7A278042A03D09DF80610BB
:101310008A42E8D1E278042A03D09DF802108A427A
:10132000E1D12279042A03D09DF805108A42DAD14E
:101330004FF00000032363F302006FF3C5001A4B64
:101340001A4A9B1AC3F3C90363F38F106379022B04
:1013500007D0032B0BD0042B01D0154A02E0154A0D
:1013600000E0154A154904F05CFC607913E0144A6A
:10137000F8E74FF00000032363F302006FF3C500AA
:10138000094B0A4A9B1AC3F3C90363F38F100D4933
:1013900004F047FC012002B010BDFF20FBE7FF2056
:1013A000F9E700BFC46B0000186800001068000077
:1013B000B06A0000E86B0000D86B0000F06B000022
:1013C000E06B0000006C000070B5A4B006460D464E
:1013D0000024114B1B68A34218DD08A800F034FB61
:1013E0000E4B03EBC4025268126853F8341008A87D
:1013F00004F00DFA08A9684604F034FA2A4631468A
:10140000684604F02FFE18B10134E2E74FF0FF34D4
:10141000204624B070BD00BF586900005C69000020
:101420002DE9F047CEB006460D46579C0294569CD7
:10143000019404AC009403F04CFA8046002840F07C
:101440009780589B23B1202204A9184604F021FE5E
:10145000F46833891C4404234DAA2146284604F02D
:10146000DBFC8046002840F08380BDF8342146F63E
:1014700007139A4278D1BDF8366126440434824677
:1014800081464FF0FF3717E0BDF83231202B73D182
:101490000CAA211D284604F0BFFC00286FD1202291
:1014A0000CA904A804F0DEFD00286AD14FF0010960
:1014B000BDF832311C440434B4424CD204234CAA4B
:1014C0002146284604F0A8FC002850D19DF8303170
:1014D000102BD9D0012B22D0222BE9D1002F2FDBCA
:1014E000304B1B68BB422EDDBDF83231A3F1480200
:1014F00092B2B82A4DD80CAA211D284604F08CFCC3
:10150000002849D1FFB20097BDF832310CAA202142
:1015100004A800F0A1F8C8B14FF0FF37C8E7BDF844
:101520003231202B30D80CAA211D284604F074FC3F
:1015300068BB9DF832110CA8FFF746FF0746B7E7D6
:101540004FF0FF37B4E74FF0FF37B1E74FF0FF3709
:101550004FF0010AACE7B9F1000F20D0BAF1000F4B
:1015600006D14FF0FF3803E04FF0FF3800E080462F
:1015700040464EB0BDE8F0874FF0FF38F8E78046B0
:10158000F6E74FF0FF38F3E74FF0FF38F0E780461B
:10159000EEE74FF0FF38EBE74FF0FF38E8E74FF0AA
:1015A000FF38E5E75869000030B589B005463023BB
:1015B00007AA03F088FA002837D12C68079B1C443F
:1015C00001AB04AA2146284603F0A7FA80BB059B7D
:1015D000072B24D107221E49069804F043FDF0B9D9
:1015E000029B082B1ED108221A49039804F03AFDE9
:1015F000C0B907AA2146284603F078FA0146D0B9B7
:101600002B68079A9818A04218D1412A19D11A7844
:10161000042A19D101332B60084609B030BD6FF0A0
:101620000201F9E76FF00301F6E74FF0FF31F3E74E
:101630006FF00101F0E76FF00501EDE76FF00601D3
:10164000EAE76FF00701E7E76FF00801E4E700BFA2
:10165000106C0000186C0000F0B595B006460D4601
:1016600014461F469DF86810184B53F8312013920A
:1016700003EBC1035B681968114413A8FFF794FFDB
:10168000B8B9E219214603A803F08AF9044698B9CB
:10169000202D14D1139D00F0FBF8009003AB202205
:1016A0003146284603F04EFF01280BD1204615B0E5
:1016B000F0BD4FF0FF34F9E74FF0FF34F6E74FF09D
:1016C000FF34F3E76FF00104F0E700BF5C6900004E
:1016D00008B5034B1B680A460021984708BD00BFA8
:1016E000A0470020F0B589B006460D46082203F059
:1016F00034FB0027029701970097EB6A03932B6B4B
:1017000004936B6B0593AB6B0693EB6B079308230A
:101710006A466946684603F065FB044608236A4644
:101720003146304603F05EFB04442B6B03936B6B36
:101730000493AB6B0593EB6B0693079708236A46FC
:101740006946684603F04EFB044408236A46314666
:10175000304603F047FB04442B6A00936B6A019305
:10176000AB6A0293059704970397AB6B0693EB6BF9
:10177000079308236A463146304603F033FB04449E
:101780006B6A0093AB6A0193EB6A02936B6B0393F2
:10179000AA6B0492EA6B059206932B6A07930823BF
:1017A0006A463146304603F01DFB0444EB6A009361
:1017B0002B6B01936B6B02930597049703972B6A2E
:1017C0000693AB6A079308236A463146304603F016
:1017D00048FB241A2B6B00936B6B0193AB6B02934A
:1017E000EB6B0393059704976B6A0693EB6A079379
:1017F00008236A463146304603F033FB241A6B6BEC
:101800000093AB6B0193EB6B02932B6A03936B6AB0
:101810000493AB6A059306972B6B079308236A46DC
:101820003146304603F01DFB241AAB6B0093EB6B83
:10183000019302976B6A0393AB6A0493EB6A059377
:1018400006976B6B079308236A463146304603F0D0
:1018500008FB241A0FD508230C4A3146304603F002
:10186000C1FA2418F7D40FE00823084A314630465D
:1018700003F0F7FA241A002CF6D108223146034867
:1018800003F07AFA0128EFD109B0F0BD286C00000E
:1018900000487047246C00002DE9F04F9BB00668AB
:1018A00003964268049284680594C76806970569A0
:1018B00007954369019383690293C3690893DDF82F
:1018C0000880DDF80490BA46A446964600270F2FFC
:1018D0003BD80C784A78120442EA04628C7842EAD7
:1018E0000422CC7822431AAC04EB870444F8402C41
:1018F0004FEAF52484EAB51484EA7564234405EAC2
:10190000090428EA050B84EA0B0423444D4C54F8DF
:10191000274023441A444FEA763383EAB60383EA26
:10192000B6538EEA0C0434400EEA0C0B84EA0B0426
:101930001C44013704314346C846A9460AEB020558
:10194000E246F446B6461619C1E709905BE0791CF9
:1019500001F00F021AAC04EB820252F8402C4FEA5D
:10196000B24484EAF21484EAD20407F10E0202F0CF
:101970000F020DF1680B0BEB820252F840BC4FEAEC
:10198000FB4282EA7B4282EA9B2207F00F0B14445F
:1019900007F1090202F00F021AA800EB820252F8C6
:1019A000402C144400EB8B0B5BF8402C14444BF898
:1019B000404C4FEAF52282EAB51282EA75621A4477
:1019C00005EA090328EA050B83EA0B031A441D4BB9
:1019D00053F827301A4422444FEA763484EAB60496
:1019E00084EAB6548EEA0C0333400EEA0C077B40BF
:1019F0001C440F464346C846A9460AEB0205E24688
:101A0000F446B64616193F2FA1D90998039A1644F1
:101A10000660049A72444260059A62448260069AA3
:101A20005244C260079A15440561019A4A444261D2
:101A3000029A42448261089A1344C3611BB0BDE814
:101A4000F08F00BFD46C0000E0B110B504467022E6
:101A5000002103F073FF0C4B23600C4B63600C4BB5
:101A6000A3600C4BE3600C4B23610C4B63610C4B8C
:101A7000A36103F17453A3F52303A3F69243E36137
:101A8000012010BD0020704767E6096A85AE67BB7C
:101A900072F36E3C3AF54FA57F520E518C68059B50
:101AA000ABD9831F2DE9F04F83B0824601911546D3
:101AB0009B46DDF83090B9F1000F2EDD4FF00108A4
:101AC0000A260027224C12E0601CB5FBF0F00199B9
:101AD0003030D04708F101080127013E631CB5FBF7
:101AE000F3F203FB12551B4BA3FB0434E408082C50
:101AF00016D9002FE8D1AC42E6D34E45EDDCBBF160
:101B0000020FEAD8BBF1010F05D020200199D04780
:101B100008F10108E1E73020F8E74FF00109CDE7CF
:101B2000019905F13000D047BBF1030F02D003B09B
:101B3000BDE8F08FA9EB080803E001992020D04709
:101B4000A04608F1FF34B8F1000FF6DCEFE700BF64
:101B5000FFC99A3BCDCCCCCC014B1860704700BF7D
:101B6000A44700202DE9F04F87B007460E461446E3
:101B700005934FF000094FF0FF38CA464D4602E08A
:101B80003146B84701342078002800F0A78145B9D4
:101B90002528F5D1A9464FF0FF384FF0000A01255E
:101BA000F0E7A0F12503552B00F28A8101A252F83B
:101BB00023F000BFB71E0000C11E0000C11E0000C0
:101BC000C11E0000C11E0000C11E0000C11E000099
:101BD000C11E0000D11E0000C11E0000C11E000079
:101BE0000D1D00001B1D00001B1D00001B1D000023
:101BF0001B1D00001B1D00001B1D00001B1D000005
:101C00001B1D00001B1D0000C11E0000C11E0000A6
:101C1000C11E0000C11E0000C11E0000C11E000048
:101C2000C11E0000C11E0000C11E0000C11E000038
:101C3000C11E0000C11E0000C11E0000C11E000028
:101C4000C11E0000C11E0000C11E0000C11E000018
:101C5000C11E0000C11E0000C11E0000C11E000008
:101C6000C11E0000C11E0000C11E0000C11E0000F8
:101C7000C11E0000C11E0000C11E0000C11E0000E8
:101C80002F1E0000C11E0000C11E0000C11E00006A
:101C9000C11E0000C11E0000C11E0000C11E0000C8
:101CA000C11E0000C11E0000C11E0000A71E0000D2
:101CB000491D0000C11E0000C11E0000C11E000021
:101CC000851B0000491D0000C11E0000C11E000050
:101CD000431D0000C11E0000C11E0000C11E000007
:101CE0001B1E0000C11E0000C11E0000671E000078
:101CF000C11E0000C31D0000C11E0000C11E000067
:101D00002F1E0000C11E0000851B0000B8F1000F4F
:101D100003DABAF1000F00F0DE80B8F1000F0DDB3E
:101D200008EB88084FEA48031844A0F13008BAF1DC
:101D3000000F7FF427AF4FF0020A23E7A0F130082D
:101D4000F5E709F101091DE7B9F1000F0FD1059B76
:101D50001A1D05921D68002D2CDBCDF8008053461E
:101D60002A4631463846FFF79DFE00250AE7B9F1BD
:101D7000010F1AD0059B073323F0070303F1080274
:101D800005921D685B6815F10042029243F1000361
:101D90000393DDE90223012B08BF002ADBD3314680
:101DA000384603F046FE0025ECE6059B1A1D059219
:101DB0001D68D0E731462D20B8476D4208F1FF3845
:101DC000CBE7B9F1000F0CD1059B1A1D05921A68DB
:101DD000CDF80080534631463846FFF763FE0025B4
:101DE000D0E6B9F1010F13D0059B073323F00703A9
:101DF00003F108020592D3E90023002B08BFB2F1DA
:101E0000004FE5D33146384603F013FE0025B9E60E
:101E1000059B1A1D05921A68DAE731463020B8474B
:101E200031467820B8474FF008084FF0010AB9F161
:101E3000010F12DD059B073323F0070303F10802AE
:101E400005921A685B68CDF80480CDF800A0314691
:101E5000384603F0FAFD002594E6059B1A1D05920D
:101E60001A680023EFE7059B1A1D0592D3F800B00E
:101E70005D4602E001353146B84728780028F9D19F
:101E8000BAF1030F01D000257CE6A5EB0B03A8EB0C
:101E9000030303E031462020B8472B465D1E002B8C
:101EA000F8DC00256EE6059B1A1D05923146186880
:101EB000B847002566E631462520B847002561E68B
:101EC00031462520B84731462078B847002559E6E5
:101ED0004FF0030A56E64FF0010A53E607B0BDE89B
:101EE000F08F00BF10B54FF02003EFF3118483F3A0
:101EF0001188BFF36F8F00F073F80123084AC2F80E
:101F000040354FF08042C2F87835064B4FF0FF3233
:101F10009A62DA6284F31188BFF36F8F002010BDDC
:101F200000E0014000ED00E030B108B58001034B56
:101F300043F00103984708BD704700BF5068000098
:101F4000064B1B68082B01D000207047044B1B6810
:101F50000BB1002070470120704700BF3001001016
:101F600034010010064B1B68082B01D0002070477D
:101F7000044B1B680BB1002070470120704700BF65
:101F80003001001034010010064B1B68082B01D0F3
:101F900000207047044B1B680BB1002070470120E4
:101FA000704700BF3001001034010010064B1B6861
:101FB000082B01D000207047044B1B680BB1002098
:101FC00070470120704700BF30010010340100103D
:101FD000014B024A1A607047A84700200090D003C6
:101FE00008B503F0A1FD40B14FF080430022C3F8D3
:101FF0000C21C3F81021C3F8382503F097FD002801
:1020000046D04FF08052D2F804145B4BC3F8201531
:10201000D2F80814C3F82415D2F80C14C3F8281504
:10202000D2F81014C3F82C15D2F81414C3F83015D4
:10203000D2F81814C3F83415D2F81C14C3F840159C
:10204000D2F82014C3F84415D2F82414C3F8481564
:10205000D2F82814C3F84C15D2F82C14C3F8501534
:10206000D2F83014C3F85415D2F83414C3F86015FC
:10207000D2F83814C3F86415D2F83C14C3F86815C4
:10208000D2F84014C3F86C15D2F84424C3F8702574
:10209000FFF756FF10B1394B394A1A60FFF762FF5C
:1020A00018B1384BFB22C3F81825FFF76DFF48B174
:1020B00035490B6823F00F03344A126802F00F020F
:1020C00013430B60FFF772FF18B1314B4FF40072EE
:1020D0001A6003F02DFD60B14FF08043D3F8003457
:1020E00013F0010F05D04FF080436FF00102C3F8E9
:1020F00000244FF01023D3F80032002B08DB4FF000
:102100001023D3F80432002B02DBFFF761FF08BD78
:10211000204B0122C3F804251E4BD3F80034002BBA
:10212000FAD04FF010231222C3F80022194BD3F833
:102130000034002BFAD04FF010231222C3F80422EF
:10214000144BD3F80034002BFAD0124B0022C3F802
:102150000425104BD3F80034002BFAD0BFF34F8F77
:102160000D49CA6802F4E0620C4B1343CB60BFF325
:102170004F8F00BFFDE700BF00C000408C560040FD
:102180004881030000F00040E40E004058020010B7
:102190004096024000E0014000ED00E00400FA0536
:1021A00010B5114C032323616361104AA261104BE7
:1021B000E3614FF4806323620023A3626362E362FE
:1021C00022660C4A62661022A2662367E366636792
:1021D0000949E01D03F033FF0849204603F02FFFB3
:1021E0002023A37110BD00BF78110020686E00008D
:1021F0003012002020120020746E0000786E000063
:102200002DE9F04F83B00446019116464300034484
:10221000D900424A0A44936A556AAB4260D83F4AA1
:102220000A44D2F82080A8EB050909F1FF32B24236
:1022300004D213449E4217D9002056E0374F431C66
:1022400003EB4303DA003A445068324601992844CC
:1022500003F01FFF354404EB4404E30007EB0308DD
:10226000C8F82450012040E0B14515D92B4F431C3C
:1022700003EB4303DA003A4450683246019928449C
:1022800003F007FF354404EB4404E30007EB0308C5
:10229000C8F82450012028E0DFF880A000F1010BED
:1022A0004FEA4B0707EB0B02D300534458684A46EA
:1022B0000199284403F0EDFEBB444FEACB0353449D
:1022C000A5EB080535442A4601994944586803F0AE
:1022D000E0FE04EB4404E3009A44CAF82450D9E732
:1022E0005B1B013B9E4203D9002003B0BDE8F08F89
:1022F000DFF82880431C03EB4303DA0042445068B4
:1023000032460199284403F0C4FE354404EB4404EA
:10231000E3009844C8F824500120E6E77811002033
:10232000F8B50F461646194A431C03EB4303DD007C
:10233000154400EB4000C3001A44D46A012C11D0AC
:1023400024B1022C1BD000242046F8BD284603F0FF
:10235000F1FBB042F8D332463946284603F0F6FB8B
:102360003446F1E7284603F0E5FB3446864228BFB1
:10237000044622463946284603F0E8FBE4E73246A5
:10238000284603F007FC0446DEE700BF7811002072
:1023900010B4064A43001C18E10011448C6A03443F
:1023A000D9000A44506A001B10BC70477811002005
:1023B0002DE9F04383B080460F461646114B1B684B
:1023C00098478146002400E001340F4B0F4A9B1AC6
:1023D000B4EB231F12DA0D4800EB041043685B795D
:1023E000002BF1D02301094AD3585D68002DEBD0B2
:1023F00000963B464A464146A847E5E703B0BDE89C
:10240000F08300BFAC470020506800003068000037
:1024100008B5044B044A1A604FF4004000F0ECF990
:1024200008BD00BFAC470020095C0000054B064A10
:102430009B1AB1EBD30F02D252F831007047002043
:10244000704700BF3068000010680000064BC31AD8
:102450001B110133426813714368196042680123FC
:102460005371024A137070473068000090170020C3
:1024700038B5154BBFF35B8F53E8002F511C43E871
:1024800000100028F8D1BFF35B8FDAB9002405E013
:10249000042200212846FFF7D9FF01340B4B0C4AD8
:1024A0009B1AB4EB231F0DDA094D05EB04152B7BAA
:1024B000002BF2D02301064AD3585B69002BE7D0EA
:1024C0009847E5E738BD00BF30160020506800008F
:1024D00030680000104B1B7803B1704710B5FFF750
:1024E000C7FF002400E001340C4B0D4A9B1AB4EBEB
:1024F000231F0CDA0A4800EB041043685B79002BB9
:10250000F1D02301064AD3581B699847EBE7024BE9
:1025100001221A7010BD00BF911700205068000002
:10252000306800000EB400B582B003AB53F8042B42
:10253000019301460448FFF715FB002002B05DF847
:1025400004EB03B0704700BF115D0000F0B585B02B
:1025500011F0440F05D01A4B196831B9002005B0AD
:10256000F0BD1849FFF7DEFFF9E7174B1D68B2FB16
:10257000F5F5B5FBF1F4154AA2FB0432D20A4FF48B
:10258000616606FB1246124BA3FB06735B0901FB57
:1025900014544FF47A7505FB04F4B4FBF1F707FB10
:1025A000114405FB04F4B4FBF1F102910197C3EB74
:1025B0000314A100711A00910649FFF7B3FFCEE79B
:1025C00034160020046F000038160020C5B3A29115
:1025D00089888888106F000061B108B52AB1064A61
:1025E00052F8232012B9054A00E0044A0449FFF7D3
:1025F00099FF08BD704700BF8C6E0000806E000020
:10260000886E000011F0100F0BD108B511F0200FEB
:1026100003D00449FFF786FF08BD0349FFF782FF97
:10262000FAE77047B0730000C86E00002DE9F04172
:1026300005460F46164698460699FFF7E3FF002425
:10264000444505DA19492846FFF76CFF0134F7E7DE
:10265000002404E016492846FFF764FF0134072CE4
:1026600007DCB442F6D23A5D12492846FFF75AFF1A
:10267000F4E711492846FFF755FF002404E00F490D
:102680002846FFF74FFF0134072C0DDCB44206D279
:102690003A5DA2F120035E2BF1D92E22EFE7034928
:1026A0002846FFF73FFFEEE7BDE8F081C46E00006B
:1026B000A86E0000A06E0000AC6E0000B06E0000BE
:1026C000F8B5044616461F4649B9002586B10123D0
:1026D000079A934013F0100F16D10C4E09E00C4BE3
:1026E000079A53F822200B49FFF71CFF0546EDE738
:1026F000064E06993846FFF799FE024631462046B7
:10270000FFF710FF2844F8BD034EF2E7B46E000057
:10271000D06E0000C06E0000BC6E000070B584B0CA
:1027200005461E46C1F3C203C1F3891011F0070428
:102730000FD1089B324629461048FFF713FA94B987
:10274000304603F08EFA98B10D492846FFF7EAFEAD
:102750000EE0029001930094134601220999284645
:1027600003F0A2FAE5E722460999284603F090FA19
:10277000284603F0C0FA04B070BD00BF115D000030
:10278000CC6E00002DE9F04784B080461D460C9EBB
:102790000D9C0E9F01F0070AC1F3C203C1F389111A
:1027A00002910193CDF800A013460122394603F0AF
:1027B0007BFA81462A460F494046FFF7B3FE6CB1CB
:1027C0002546082C28BF082500974B462A46314647
:1027D0004046FFF72BFF2E44641BF0E75246394674
:1027E000404603F055FA404603F085FA04B0BDE8D0
:1027F000F08700BF886E0000074B01221A60074B6C
:10280000984205D94008044A13685B001360F6E754
:10281000034B1860704700BF3816002040420F007D
:102820003416002008B5034801F07EFA024B5860C8
:1028300008BD00BF446F00004416002008B50248E0
:1028400003F059FA08BD00BF4C6F000010B584B00A
:102850004FF02000EFF3118480F31188BFF36F8FE6
:102860000F20029007980190069800900448FFF707
:1028700089FF84F31188BFF36F8F04B010BD00BFD0
:102880004C6F000010B582B04FF02000EFF31184C0
:1028900080F31188BFF36F8F0F2001900498009090
:1028A0000448FFF73BFF84F31188BFF36F8F02B03A
:1028B00010BD00BF4C6F00000123024A1370024A92
:1028C00013707047931700209417002008B5034831
:1028D00003F011FA024B01221A7008BD886F000044
:1028E0009417002008B518B9074B00221A7008BDCC
:1028F000064B1B7823B141F2883003F039FEF6E72E
:10290000052003F033FEF2E7931700209417002010
:1029100038B504460A4B01221A700A4B1B7803B9DA
:1029200038BD0020FFF734FD0028F9D0044B1B7898
:10293000002BF5D0651E2046FFF7D4FF2C46F0E7AC
:102940009317002094170020F8B506460D4604277B
:1029500010E04FF0FF31154801F08EFA0EE01348F9
:1029600003F03DFD14E03846FFF7D2FFDCB9104B11
:102970001B78C3B10F4B1B78002BEAD02A46314697
:102980000020FFF73DFC04460A4B1B78002BE6D0E5
:10299000002CE8D1064B1B78002BE7D0013F3846CE
:1029A000FFF7A0FFE2E72846F8BD00BF7848002007
:1029B000931700209417002010B584B04FF020002A
:1029C000EFF3118480F31188BFF36F8F0F20029013
:1029D00007980190069800900448FFF7D3FE84F30F
:1029E0001188BFF36F8F04B010BD00BF886F000067
:1029F00010B582B04FF02000EFF3118480F31188FE
:102A0000BFF36F8F0F200190049800900448FFF7E8
:102A100085FE84F31188BFF36F8F02B010BD00BF35
:102A2000886F000010B404460022084B1B689342D4
:102A300008DD130106490968C818CB5CA34202D01F
:102A40000132F2E7002010BC704700BFF86F0000B1
:102A5000B0470020084B1B683BB110B50C46FFF790
:102A6000E1FF28B12060002010BD6FF00C0070471E
:102A70006FF00100F8E700BFB047002000B58BB051
:102A800003AB0093024B03F0A3F90BB05DF804FB1A
:102A9000955D000010B504460A2807D0074B18685A
:102AA00043685B68E1B29847204610BD034B186845
:102AB00043685B680D219847F0E700BF741600205B
:102AC00010B5044C204600F069FE2046FFF744F89C
:102AD00010BD00BF952A000008B5044801F024F994
:102AE000034B1860FFF7ECFF002008BD446F0000A7
:102AF0007416002010B5044C2046FFF72DF8204630
:102B000000F04CFE002010BD0D2B0000F0B583B08E
:102B100007468DF80700022506E0124B01221A70C5
:102B20001CE003F0FDF9013D0F4C4FF0FF31204652
:102B300001F0A2F901220DF107010020FFF7F0FBDF
:102B40000646204603F04BFC002EE6D1054B1B78D1
:102B500023B1002DE5D1034B00221A70384603B093
:102B6000F0BD00BF95170020784800204FF02003EB
:102B7000EFF3118183F31188BFF36F8F164B1A782F
:102B80009AB1531EDBB214480370ABB9134B1B78D8
:102B9000CBB9124B01221A7081F31188BFF36F8FEA
:102BA0000F490A6000201870704781F31188BFF345
:102BB0006F8F6FF04400704781F31188BFF36F8F00
:102BC0006FF00F007047044B1A7081F31188BFF348
:102BD0006F8F6FF00A00704798170020971700203A
:102BE0000400004010B54FF02003EFF3118483F38D
:102BF0001188BFF36F8F304A1378581C107013BBC5
:102C00002E4A127822BB2D4B01221A7084F31188B0
:102C1000BFF36F8F002944D0002000F041FC4FF03B
:102C200080430022C3F80021D3F804130122C3F823
:102C300004231A604FF08043D3F800318BB920BFD2
:102C400040BF20BFF6E784F31188BFF36F8F1DE00C
:102C5000194A137084F31188BFF36F8F6FF00A0065
:102C60001EE04FF080430022C3F8002111F0010F55
:102C700002D10122C3F80823114B0122C3F880219D
:102C8000002000F0FDFB0D4B00221A704FF0804336
:102C9000D3F80C3403F00113B3F1011F09D1002064
:102CA00010BD4FF080430022C3F8002101221A60BA
:102CB000E9E76FF04300F3E798170020971700202B
:102CC00000E100E02DE9F04180464FF08043D3F869
:102CD0000801D3F8042302F00102D3F80011D3F85D
:102CE000046306F00206D3F80451D3F80C71D3F84C
:102CF0001041003418BF012410B10020C3F80801AE
:102D000021B14FF080430020C3F8000192B141B9D6
:102D10004FF08043D3F80C3403F00113B3F1011FDB
:102D200008D14FF080430122C3F808231B49022039
:102D300008601A6175B14FF080430022C3F8042186
:102D400046B10222C3F80823D3F81C3413F0030F52
:102D500000D1012417B974B9BDE8F08100210F4BEF
:102D600019604FF08046C6F80C114046FFF7FEFE92
:102D700001237361EFE74FF080430021C3F8101186
:102D80000122C3F804234046FFF72CFF0028E3D1BB
:102D9000034B0122C3F80021DEE700BF340C0040E2
:102DA00000E100E038B54FF02002EFF3118382F329
:102DB0001188BFF36F8F2A4A127862BB0124284A18
:102DC000147083F31188BFF36F8F4FF0804300229C
:102DD000C3F80421C3F818150225C3F80453214D84
:102DE0002C601824C3F80843C3F80C21C3F8102141
:102DF00011F0030F13D11022C3F83825C3F8044390
:102E0000D3F8183413F4803F17D14FF080430222D7
:102E1000C3F8042303E083F31188BFF36F8F4FF0EF
:102E20008042D2F81C3403F0030343F48033D2F819
:102E30001824934310D1002038BD4FF08043012265
:102E4000C3F804230021FFF7CDFE0028E7D1064B8D
:102E50000122C3F80021E2E76FF04300ECE700BF76
:102E6000961700200800004000E100E020F07F40BD
:102E7000014BC3F84005704700100140014BD3F8E7
:102E8000040570470010014070B5134B0022C3F8D1
:102E900040214FF02003EFF3118683F31188BFF335
:102EA0006F8FFFF7EBFF0D4C2568294603F04EF8B6
:102EB0000B4BA3FB0023C01A03EB5000000A40F2A7
:102EC000471303FB0055256086F31188BFF36F8F0E
:102ED00001F066FA70BD00BF0010014078160020B6
:102EE00021F1D49030B583B01D4800F01DFF0028BB
:102EF00033D042681268012190471A4D0024C5F86A
:102F0000084540F24713C5F840354FF48033C5F803
:102F10004433C5F8043303F1804303F58A531C603E
:102F20001B680193019B104B4FF40032C3F88021C2
:102F300022460121112000F0C7FA112000F0A0FA6A
:102F400001230A4A13602B60FFF798FF00F2471035
:102F5000FFF78CFF204603B030BD4FF0FF30FAE79B
:102F6000147000000010014000E100E00810014072
:102F70002DE9F041B0F1FF3F38D00138002838DDAD
:102F80004CF669048442A8BF04464FF02003EFF3D7
:102F9000118583F31188BFF36F8FFFF76FFF06462C
:102FA00040F2471707FB04F4134BD3F80080414667
:102FB00002F0CCFF204400F5A373104CA4FB0324C3
:102FC0001B1B04EB5304240A07FB048431462046F0
:102FD00002F0BCFF1F2800D83C442046FFF746FF04
:102FE00085F31188BFF36F8FBDE8F0814CF669005F
:102FF000C3E70024C9E700BF7816002021F1D49070
:1030000010B54FF02003EFF3118483F31188BFF361
:103010006F8FFFF733FF084B196802F097FF074BDC
:10302000A3FB0023C01A03EB5000000A84F31188AD
:10303000BFF36F8F10BD00BF7816002021F1D49030
:1030400038B54FF02003EFF3118583F31188BFF3F8
:103050006F8FFFF713FF054B1C68214602F076FFC8
:10306000204485F31188BFF36F8F38BD7816002098
:10307000704700BF002206E002F00F01094B0B442D
:103080002021197601322F2A0ADC53B2002BF3DB00
:1030900003F1604303F56143202183F80013F1E756
:1030A000704700BFFCEC00E0094A93685866094984
:1030B0000968996608494B6843F080534B600023C8
:1030C00083F31188BFF36F8F9368986E704700BFCA
:1030D000641700201875000000ED00E0202080F348
:1030E0001188BFF36F8F11498A684FF02800104490
:1030F000EFF3098C80E8F01F0D4F4FF00066CA69AE
:103100008A603E60506E0023536680F3118804B5D8
:103110000648806802F059FFBDE8044002F128002B
:1031200090E8F01F8CF309887047000064170020B6
:1031300004ED00E01EF0040F0CBFEFF30880EFF386
:103140000980816931F8021C11F0FF010229FFD0CA
:1031500001B502F026FF01BD38B504460D462648EC
:1031600002F0D3FC254B9B6A13F0100F1ED1234BAA
:103170009B6A13F0080F1DD1204B9B6A13F0020FBE
:103180001CD11E4B9B6A13F0010F2BD11B4B9B6A6A
:1031900013F0200F2AD1194B9A6A9A6A42F0FF0263
:1031A0009A62204602F0D6FE20BB38BD144802F0D9
:1031B000ACFCDCE7134802F0A8FCDDE7124802F0A3
:1031C000A4FC0E4B596B9B6A13F0800FD9D00F48AB
:1031D00002F09BFC002DD4D0084A936A23F08003B0
:1031E0009362CEE70A4802F090FCCFE7094802F06C
:1031F0008CFCD0E70620D8E76471000000ED00E009
:103200007C710000B0710000C4710000E07100002A
:10321000F87100001872000038B504460D462A48BF
:1032200002F073FC294B9B6A13F4805F23D1274B78
:103230009B6A13F4006F22D1244B9B6A13F4007F26
:1032400021D1224B9B6A13F4806F30D11F4B9B6AB4
:1032500013F4807F2FD11D4B9B6A13F4005F2ED196
:103260001A4A936A43F47F439362204602F072FE47
:1032700000B1062038BD164802F047FCD7E71548D4
:1032800002F043FCD8E7144802F03FFC0F4B996B67
:103290009B6A13F4004FD4D0104802F036FC002D86
:1032A000CFD00A4A936A23F400439362C9E70C48DB
:1032B00002F02BFCCAE70B4802F027FCD0E70A48D3
:1032C00002F023FCCCE700BF3870000000ED00E006
:1032D00050700000B0710000647000008070000049
:1032E00098700000B47000001872000008B5214802
:1032F00002F00BFC204B9B6A13F0007F21D11E4B88
:103300009B6A13F0807F20D11B4B9B6A13F4002F24
:103310001FD1194B9B6A13F4802F1ED1164B9B6A49
:1033200013F4003F1DD1144B9B6A13F4803F1CD152
:10333000114A936A6FEA03436FEA134393620020D2
:1033400008BD0E4802F0E1FBD9E70D4802F0DDFBB5
:10335000DAE70C4802F0D9FBDBE70B4802F0D5FBBB
:10336000DCE70A4802F0D1FBDDE7094802F0CDFBBB
:10337000DEE700BF9072000000ED00E0AC720000DC
:10338000C0720000DC720000FC72000024730000B8
:103390004073000038B50546174802F0B6FB174BDE
:1033A000DC6A14F0020405D1144BD86A10F0804096
:1033B00005D138BD124802F0A8FB0020F9E71148FA
:1033C00002F0A3FB104B1B7843B9104B1B7853B989
:1033D0000F4B1B889BB25BB92046EAE701212846C8
:1033E000FFF7BAFEE5E701212846FFF715FFE0E702
:1033F0002846FFF77BFFDCE70871000000ED00E0E6
:10340000207100004471000028ED00E029ED00E08B
:103410002AED00E008B5024802F077FB08BD00BFC6
:10342000D070000008B50A460F2905DC0349103AA0
:10343000034802F06AFB08BD0249F8E76472000025
:103440007C7200004872000038B50546074B5C6886
:10345000C4F30804FFF73EF82146284602F07CFD3D
:10346000062802D0294600F065F838BD00ED00E0DE
:10347000024A536943F010035361704700ED00E0C6
:1034800043B2002B08DB00F01F005B09012202FAA7
:1034900000F0024A42F82300704700BF00E100E05C
:1034A00043B2002B0DDB00F01F005B09012202FA82
:1034B00000F02033034A42F82300BFF34F8FBFF3DD
:1034C0006F8F704700E100E0013143B2002B08DB51
:1034D0004901C9B203F1604303F5614383F8001366
:1034E000704700F00F004901C9B2014B19547047F1
:1034F00014ED00E0014910220A60704710ED00E071
:10350000404080F3118830BF704700BF404080F3D7
:103510001188DFF81CC0DCF800C01CF4006C0CBF84
:10352000EFF30880EFF3098001B5FFF78DFF01BDD0
:1035300004ED00E038B504460D46FEF7CBFF052C40
:103540001FD8DFE804F0031E1E12161A0F4802F0FF
:10355000DCFA00F085FEAA6901460D4802F0D5FAB2
:103560002946204602F023FD38BD0A4802F0CDFA74
:10357000EFE7094802F0C9FAEBE7084802F0C5FA9C
:10358000E7E72146064802F0C0FAE2E76C73000064
:10359000107400008C730000B4730000D07300003E
:1035A000EC73000001B5EFF30580A0F110004FEAC5
:1035B000C0000449014409C99847BDE801400248D8
:1035C00000470000F46500007130000002F0F3FCD9
:1035D00000F004F830BFFFF7FDBF00BF08B50E4B89
:1035E00083F30988EFF3148343F0020383F3148811
:1035F000BFF36F8F094B23F07F03094A9360BFF33A
:103600004F8FBFF36F8F00F0B7FB00F0C1FBFFF7E8
:1036100031FD00F0EDFB00BFA047002000000000DE
:1036200000ED00E0064A90600B6823F01F0303439F
:1036300043F01003D3608B6843F0010313617047BC
:1036400090ED00E010B5072804D80446FFF7EAFF24
:10365000204610BD4FF00004012363F302046FF312
:10366000C504074B074A9B1AC3F3C90363F38F14BE
:1036700002460549204602F0D4FA6FF01504E7E748
:103680002068000010680000747400002DE9F84301
:1036900080460F4699461546002409E03146E8B2B7
:1036A00002F0AAFC054610F1160F22D001350134B4
:1036B000BC421EDA58F824607368002BF7D0B9F1C9
:1036C000000FEBD0304602F086FC0028E6D1012343
:1036D00063F302006FF3C500074B084A9B1AC3F35C
:1036E000C90363F38F102246054902F09AFA6FF07E
:1036F00015052846BDE8F883206800001068000022
:103700005074000008B50023084A1278FFF7BEFF86
:1037100010F1160F08D00346072B05DC044A93600E
:10372000002111610133F7E708BD00BF99170020A0
:1037300090ED00E0034B05225A60BFF34F8FBFF3BB
:103740006F8F704790ED00E0BFF35F8F014B002259
:103750005A60704790ED00E038B50E4B1D68082D9B
:1037600015D8FFF7F1FF0024A5420AD9094B596883
:1037700004EB4402930019442046FFF753FF013441
:10378000F2E7054B1D70FFF7D5FF002038BD4FF065
:10379000FF30FBE7386E000099170020014B1860DE
:1037A000704700BFB4470020024BD3F80034002B11
:1037B000FAD0704700E0014008B539B1064B00224D
:1037C000C3F80425FFF7F0FF002008BD024B0122DB
:1037D000C3F80425F6E700BF00E00140024B0B6090
:1037E00001231360704700BF7C1600204FF0805209
:1037F0005169034B196012695A600020704700BF7D
:103800007C16002070B50446124BD3F804654FF0C7
:10381000805215690222C3F80425FFF7C5FF6268CC
:103820000C4BC3F80825FFF7BFFFA3685B1BA36021
:1038300062682A446260002BF1D1064BC3F804652C
:10384000FFF7B2FFA3680BB9002070BD4FF0FF3047
:10385000FBE700BF00E00140054B1B6823B9054BA7
:103860001B781BB101207047012070470020704772
:103870001C2100409A17002082B0054A00231360E3
:1038800012680192019A034A137002B0704700BF98
:103890001C2100409A17002047F6122399426DD050
:1038A00010D9B1F5E13F79D040D9B1F5E12F7CD005
:1038B00057D8B1F5613F7AD0404B99424ED14FF085
:1038C000806356E0B1F5965F5BD018D8B1F5167FEE
:1038D00059D008D9B1F5966F58D0B1F5166F0BD104
:1038E0004FF41D2345E0B1F5967F02D14FF4A0338C
:1038F0003FE06FF0150070476FF015007047B1F5AD
:10390000615F46D007D9B1F5964F45D0B1F5E14F8B
:1039100009D12B4B2DE0B1F5165F01D1294B28E0E1
:103920006FF0150070476FF0150070474DF6C0231B
:10393000994235D007D9B1F5614F34D0B1F5963FF2
:1039400009D1214B15E0B1F5164F01D11F4B10E005
:103950006FF0150070476FF0150070476FF015009D
:103960007047B1F5612F24D0194B994223D14FF004
:103970008053184AC2F82435002070474FF40003E2
:10398000F7E7154BF5E74FF41C33F2E74FF49E23AE
:10399000EFE74FF46C13ECE7104BEAE7104BE8E766
:1039A0004FF46503E5E70F4BE3E70F4BE1E70F4B00
:1039B000DFE70F4BDDE76FF01500704790D0030095
:1039C00000F075000050270000903A0100509D0063
:1039D00040420F000020004000B0130000A04E0045
:1039E00000E0D70100F0EB0000705F0700B0AF030C
:1039F00000D0BE0E094B1B6863B182B0074B00209C
:103A000018601B680193019B054BD3F818350B70A8
:103A100002B070474FF0FF30704700BF08210040F0
:103A20000020004010B50C46FFF726FF064B012290
:103A30001A60083BC3F81C45FFF70EFF0028FBD0B7
:103A4000024B01221A6010BD082000400C200040EB
:103A5000044B186828B1A3F59273D3F88004C3F817
:103A60008004704724210040F8B54B79012B20D108
:103A70008B79032B20D1CE792EB1012E1FD1036873
:103A80009B681B78FBB10D7915B1022D1ED10E2557
:103A90000C4607460968FFF7FFFE0346C8B93543E1
:103AA0000D4AC2F86C55BA6894E8030082E8030036
:103AB00007E06FF0220304E06FF0220301E06FF0F3
:103AC00022031846F8BD6FF02203FAE76FF02203D5
:103AD000F7E76FF02203F4E700200040F8B50F4647
:103AE000164600242546331B002B0BDDFFF7B4FEE2
:103AF00040B1FFF7C1FE631C395D034AC2F81C15D3
:103B0000DCB2EFE72846F8BD0020004010B483B0D7
:103B100000231846D41A002C0FDD094C246864B128
:103B2000074800240460006801900198581C054C67
:103B3000D4F81845CC54C3B2EBE703B010BC7047BF
:103B40000821004000200040024B0422C3F8042357
:103B5000704700BF00200040024B0422C3F8082336
:103B6000704700BF00200040024B1868003018BFAB
:103B70000120704708210040024B4FF40072C3F847
:103B80000423704700200040024B4FF40072C3F83A
:103B9000082370470020004010B504460E4BD3F8B0
:103BA000043313F0800F08D10B4BD3F8043313F018
:103BB000040F08D10023184610BDFFF74DFE002862
:103BC000F2D00123F7E72046FFF7CEFF0346002897
:103BD000F1D00123EFE700BF00200040024B196045
:103BE000024B1A60704700BF841600208816002020
:103BF00008B5034B1B6813B1024A1068984708BD0B
:103C0000841600208816002008B5054B8022C3F8D2
:103C100008230C3301221A6002F0BFFB08BD00BF6D
:103C20000020004008B502F0B7FB0D4B01221A60DE
:103C3000083B8022C3F804234FF02002EFF31183E6
:103C400082F31188BFF36F8F064A12781AB1064AC1
:103C50000421C2F8001183F31188BFF36F8F08BDF0
:103C6000082000409A17002000E100E030B583B042
:103C70004FF0A0434022C3F808250324C3F8184797
:103C80000021C3F82017184A0825C2F81455062544
:103C9000C2F80C552025C3F80855C3F81447C3F8DB
:103CA0001C170523C2F808350723C2F810358168B0
:103CB000FFF7DAFE044610B1204603B030BD0A4BD0
:103CC0000422C3F80025094900220A60096801910D
:103CD000019901211960064B19700220FFF7F4FBCE
:103CE0000220FFF7CDFBE7E700200040082100405D
:103CF0009A17002038B505460A4B53F8204000E0DB
:103D00000C346B1C074A52F82330A34208D92368AD
:103D10005B68204698470028F2D000236360EFE7F5
:103D200038BD00BF0475000038B5114C00E00C34FC
:103D3000104B9C4208D06368002BF8D023681B68A6
:103D40008342F4D1204638BD0546094C00E00C34CE
:103D5000084B9C420AD06368002BF8D0236819688E
:103D6000284602F075F90028F1D1EBE70024E9E7D5
:103D7000C84700206448002008B50348034A121AC7
:103D8000002102F0A9F908BD000000209C170020C6
:103D900008B50648064A121A064902F07AF9064A98
:103DA0000649074802F075F908BD00BFA04700208A
:103DB0008C48002068750000000000006875000055
:103DC0000000002008B50220FFF794FF064801F02C
:103DD0009CFE0320FFF78EFFFCF73EFB034A137B9C
:103DE00023F00103137308BD20750000F8160020AE
:103DF00008B5FEF70DFB164B83F30888154B5A697F
:103E000042F400725A61E02283F822200024DC7719
:103E10001C765C769C765A6A42F4E0225A62FFF77E
:103E200027FBFFF767FB2046FFF764FF0120FFF742
:103E300061FF224621462046FFF7C4FF4FF02002D3
:103E4000EFF3118382F31188BFF36F8FFEE700BF9A
:103E5000A047002000ED00E010B5054C054B9C424A
:103E600004D2204602F09AFA1C34F7E7002010BD75
:103E7000644800206448002070B50446C36883B9D4
:103E8000002B33D12F4A926892F90E202261013320
:103E9000E3602C4B9B68A36002F0E9FA00252846FA
:103EA00070BD0D468168274A92689142E8D0FDB105
:103EB00091F90E1092F90E0002F07EFA4FF02003F5
:103EC000EFF3118683F31188BFF36F8FA36893F923
:103ED0000E30834211DC2B46224631461A4800F050
:103EE00049F9054670B902F0C2FAD8E72269CDE770
:103EF00002F0BDFA6FF00F05D1E70146204602F04F
:103F000064FAE8E723689C421AD0216923B193F947
:103F10000E0002F051FA01464FF02003EFF3118535
:103F200083F31188BFF36F8F204602F04EFA85F3BA
:103F30001188BFF36F8F02F09AFA6FF00A05AEE7AF
:103F40002169E9E7641700206417002008B5EFF342
:103F500005830D2B07D86BB10A4B5B6813F4006F18
:103F60000AD0002300E0012343B180F31188BFF39E
:103F70006F8F08BD0023F7E70123F5E7FFF794F8FB
:103F8000F7E700BF00ED00E00A4B834208D04A6823
:103F90000B6813604A685A6000230B604B607047DF
:103FA000203B9B688B42F2D14B7B13F01F0FEED06E
:103FB000F5E700BF8417002010B504460D4802F055
:103FC00057FA034678B18CB90B4A9268517B11F0CD
:103FD0001F0F0BD1996949B9084909688A4205D070
:103FE000054BDA6104E0044BDB68ECE7024AD3617D
:103FF00010BD00BF84170020641700201C7500004E
:1040000070B5054600234FF02002EFF3118682F3CE
:104010001188BFF36F8F1CE063686B602C6063686E
:104020001D60656009E0002419E0164B03F12002D1
:104030002A605A6A6A6015605D626B7B43F04003D8
:104040006B730020FFF7B8FF86F31188BFF36F8F03
:104050000123B3B90B4B53F8204F9C42E3D0002C03
:10406000E3D02146284602F0F8F90028D4D1002CEC
:10407000DBD0044B5B6A9C42D7D02468002CEED185
:10408000D3E770BD6417002038B5044600234FF015
:104090002002EFF3118582F31188BFF36F8F14E0D4
:1040A00021460D48FFF770FF637B23F040036373E5
:1040B0000A4B9868A04214BF00200120FFF77CFF44
:1040C00085F31188BFF36F8F012323B9637B13F04E
:1040D000400FEDD0E4E738BD8417002064170020BE
:1040E000F8B505460E461746FFF7CEFF6B7B43F04B
:1040F00002036B73AEB1AE603468A6421CD05CB1F3
:104100002146284602F0A9F978B92CB173689C427F
:1041100002D02468002CF2D12E6073686B601D60A1
:104120007560B7F1FF3F09D1F8BD63686B602C6023
:1041300063681D606560F4E70024E0E7FB17D903BE
:1041400041EA5741F803094C4FF4A022002300191B
:104150004FF0000444EB0101FBF7D2FF421C04497D
:1041600005F1180000F0D6F8DEE700BFFFFF0400FD
:104170007F64000010B50C4611461A46034B986840
:10418000FFF7AEFF2046FEF78FFF10BD641700203B
:104190002DE9F8430446884600234FF02002EFF350
:1041A000118682F31188BFF36F8F1F4609E012F06A
:1041B000010712D184F80E8086F31188BFF36F8F48
:1041C00001231A46002B37D1637B13F01F0FEED16A
:1041D000A369002BEBD10122E9E7204D05F120096D
:1041E00021464846FFF7D0FE84F80E802D6A4D45E3
:1041F00020D065B12946204602F02FF998B935B193
:10420000164B5B6A9D4202D02D68002DF1D1134BF5
:1042100003F1200222605A6A626014605C6201202D
:10422000FFF7CAFEC8E76B68636025606B681C60B7
:104230006C60F4E70025DCE71FB1084B9B68DB7B73
:104240000BB1BDE8F8834FF02003EFF3118083F347
:104250001188BFF36F8FFFF779FEF2E76417002034
:10426000014B9868704700BF64170020EFF3058387
:104270000D2B07D843B1064B5B6813F4006F05D0D4
:1042800000207047012070470020704701207047D0
:1042900000ED00E0034B1868984200D07047002002
:1042A000FCE700BFC047002030B1044A526890428A
:1042B00001D0006870470020704700BFC047002051
:1042C00008B5044B1B680BB1002008BDFEF798FE33
:1042D000FBE700BF8C17002038B50D4B1B7873B17E
:1042E0004FF0FF34FFF7D6FF054630B18468FFF783
:1042F000E7FF201A002805DA0024204638BD6FF0B9
:104300000044EFE7AC68FFF7DBFF241AF5E700BFD6
:104310009B17002070B50446C160012AB8BF012276
:10432000164600234FF02002EFF3118582F3118827
:10433000BFF36F8F11E0D31A83604368636020601E
:1043400043681C604460D0B1FFF7A4FF84421DD0D5
:1043500085F31188BFF36F8F0123EBB9FFF7B0FF2F
:104360003044A060FFF796FF0028ECD08268A36875
:104370009A42E0DC9B1AA360FFF796FFF4E7074B35
:1043800023605A68626014605C60DDE7FFF7A4FF99
:104390000021FEF7EDFDDBE770BD00BFC047002048
:1043A0002DE978484FF02003EFF3118583F311884E
:1043B000BFF36F8F244B1860FFF76CFF044628B3E0
:1043C0008268214B1B689A4220DC204ED6E900010E
:1043D00010EB020B41EBE27CC6E900BC9B1A1A4AC7
:1043E00013600023A360204602F0C6F885F311880D
:1043F000BFF36F8FE368204698474FF02003EFF339
:10440000118583F31188BFF36F8FD5E724B1A368BB
:104410000D4A12689B1AA3600C480B490C68D0E93E
:10442000002312EB040B43EBE47CC0E900BC002446
:104430000C60FFF751FF2146FEF79AFD85F31188C6
:10444000BFF36F8FBDE878888C1700200000002034
:1044500010B5054C054B9C4204D2204602F0BCF836
:104460001C34F7E7002010BD644800206448002099
:1044700070B582B0054601A90079FCF77BF8AC68FD
:10448000019B1C442B681D8966194FF02002EFF335
:10449000118382F31188BFF36F8F01F056FD6359CA
:1044A00083F308887368984702B070BDFF20704797
:1044B00038B515461C4601F0AFFC58B9014600233B
:1044C000A34205D2EA5CFF2A06D10133DBB2F7E74B
:1044D000012101E04FF0FF31084638BD7047013837
:1044E00002FB00F000EB4000013902FB01007047C5
:1044F00030B583B005460C22002101F0EDFD01230B
:104500002B602B71FCF7B8F9012807D0044602286C
:1045100005D000B10724204603B030BD032401A913
:10452000E0B2FEF797FA08B10124F4E729460198B2
:10453000FCF76AFA0446019801F06DFCEBE708B558
:10454000FCF7BAFE042805D0FF2802D0012803D0CA
:10455000052008BD0220FCE70320FAE770B582B011
:104560000C461646FCF728F801A9C0B2FEF772FA0D
:1045700030B10125019801F04EFC284602B070BD13
:104580002089E16804236A460144019801F044FC53
:10459000054668B9BDF8002046F607139A4209D1CE
:1045A0002389E2681344BDF8022013443360E1E735
:1045B0000125DFE70325DDE710B582B00C46FBF7E8
:1045C000FBFF01A9C0B2FEF745FA30B10124019802
:1045D00001F021FC204602B010BD2023224600211C
:1045E000019801F019FC04460028F0D00124EEE700
:1045F00010B582B001A90220FEF72CFA18B10124EF
:10460000204602B010BD6946019800F0C6F8044685
:1046100060B99DF80230032B03D0019801F0FBFB39
:10462000EEE7019800F025F90446F6E70124F4E7E7
:1046300010B582B001A90220FEF70CFA18B10124CE
:10464000204602B010BD019800F00DF90446019813
:1046500001F0E1FBF4E738B50546FCF72DFE044612
:10466000831E022B01D9204638BD29460120FCF7C4
:10467000BBFA0028F7D00524F5E770B584B00546ED
:1046800001A8FFF735FF044668B9019B012B03D150
:104690009DF80830012B09D001A8FCF753FCFFF767
:1046A0004EFF06462E60204604B070BD01A8FFF7FD
:1046B000D2FF0646831E022BF4D801A8FCF742FC69
:1046C000F0E7012800D170470220FCE700EB400032
:1046D00020307047806810387047806820387047F5
:1046E0008068183870470378032B02D08068283818
:1046F000704780682038704770B582B00C46F0B1C2
:10470000012821D10846FFF7E8FF0546204601F0C1
:1047100000FC06462046FFF7C9FE0822014668460F
:1047200001F0DAFC01238DF8003033466A46294651
:10473000204601F090FB034638B1012305E008460E
:10474000FFF7CEFF0546E1E70723184602B070BD2C
:1047500000EB4000C30103F12800704703785AB210
:104760003AB1022B07D9032B01D103207047072050
:104770007047072070474FF4C070704710B504466B
:1047800001F0C7FB2378032B04D0FFF7E1FFA368F8
:10479000181A10BDFFF79AFFF9E730B585B0044647
:1047A0000D46FFF797FF10236A4601462046FFF7A4
:1047B0007FFE002837DB012829D103232B702378C3
:1047C000032B10D02046FFF788FF0123EA1801468B
:1047D0002046FFF76DFE002827DB01281CD06878F3
:1047E000FFF76FFF68702046FFF77AFF0123AA1CCE
:1047F00001462046FFF75CFE002818DB01280ED09A
:10480000A878FFF75EFFA870002005B030BD6846AD
:10481000FCF7EAFC2870D2E703236B70E3E703237D
:10482000AB700020F1E70120EFE70120EDE7012068
:10483000EBE710B582B0431E022B03D907242046B4
:1048400002B010BD0C4601A9C0B2FEF703F908B1D1
:104850000124F4E721460198FFF79FFF04460198E1
:1048600001F0D9FAEBE708B501460120FFF744FF54
:1048700008BD08B501460020FFF73EFF08BD70B532
:1048800084B004460191FFF72EFF0646204601F052
:1048900040FB0546032800D804252046FFF706FE06
:1048A000082201460DEB020001F016FC04220DEB7C
:1048B000020102A801F0EDFB2B4602AA3146204678
:1048C00001F0C9FA034610B9184604B070BD0123BF
:1048D000FAE72DE9F0439DB005468946174698460C
:1048E000259C6846FDF7B0F814B1269B002B04DC2C
:1048F0002B89EE681E44002513E01A4621466846BF
:1049000000F085FFF4E723463A462946484601F081
:1049100083FA034688B922463946684600F077FF95
:104920002544B54204D2741B4445ECD94446EAE719
:104930006946249800F096FF002318461DB0BDE894
:10494000F08370B582B005460C461146022301AAD9
:10495000204600F0B8F800BB0646019A1F2A0ED97F
:104960002368A2F1200120221944284601F091FB7E
:104970002368019A13442360304602B070BDC2F12F
:1049800020020021284601F0A7FB019AC2F1200075
:104990002168284401F07DFBEAE76FF00206EBE7AF
:1049A00030B585B0054601911446302303AA21464F
:1049B00001A800F088F8A8B9019B039A1344A34208
:1049C00013D8224601A92846FFF7BBFF80B922462B
:1049D00001A905F12000FFF7B4FF034658B91846B6
:1049E00005B030BD4FF0FF33F9E76FF00103F6E794
:1049F0006FF00203F3E76FF00303F0E730B40368EE
:104A0000CD1A002D4ADD1C7814F0800F0BD15C1CF0
:104A100004601B78136013680268891A8B424FD8B0
:104A2000002030BC704704F07F04013C032C38D8D0
:104A3000DFE804F0020A1523012D35DD5B781360F1
:104A4000036802330360E6E7022D30DD5C789B7873
:104A500043EA04231360036803330360DBE7032D99
:104A600028DD5D789C78240244EA0544DB78234302
:104A70001360036804330360CDE7042D1DDD5D780A
:104A80009C78240444EA0564DD7844EA05241B7913
:104A900023431360036805330360BCE76FF05F00D6
:104AA000BFE76FF06300BCE76FF05F00B9E76FF03E
:104AB0005F00B6E76FF05F00B3E76FF05F00B0E74D
:104AC0006FF05F00ADE738B504680D1B002D07DD02
:104AD00025789D4207D101340460FFF78FFF38BD70
:104AE0006FF05F00FBE76FF06100F8E738B505464F
:104AF00014460323FFF7E7FF034648B92268511E17
:104B00002160012A06D92A68511C296012780AB945
:104B1000184638BD6FF06703FAE72DE9F04182B01F
:104B200004460D4617469846302301AAFFF7CBFFEF
:104B3000064670BB2368ED1A002D33DD1B783A461C
:104B400042F8043B2568019B1D4406232946204664
:104B5000FFF7B9FF0646E0B92368BB6079685A18C9
:104B60002260AA4219D05B5C424642F8043B2368AB
:104B70000133236029462046FFF740FF064640B92F
:104B80002368C8F80830D8F8042013442360AB42E7
:104B90000BD1304602B0BDE8F0810C214046FCF755
:104BA00097FDF6E76FF05F06F3E76FF06506F0E755
:104BB000013949B2002905DB50F8213013B9013918
:104BC00049B2F7E7013148B2704710B400EB8101F8
:104BD00000230C1F814208D951F8042C43EA5203E8
:104BE00041F8043CD3072146F3E710BC7047F0B40A
:104BF000049FA0FB01011668D3F800C0841941EBA3
:104C00000C058D4208BF844234BF01200020396862
:104C1000014439601D601460F0BC70472DE9F04715
:104C200086B081460E4617469846002505950495A0
:104C300003950AE0059B49F82530049B0593039BE7
:104C400004930023039301356DB2454510DA002427
:104C5000AC42EFDC291B03AB009304AB05AA57F869
:104C6000211056F82400FFF7C2FF013464B2EFE7C9
:104C7000C2460CE0059B49F82A30049B0593039B30
:104C80000493002303930AF1010A4FFA8AFA554666
:104C900042464FEA4803013B9A4514DAAAEB08045E
:104CA00064B2013464B24445E4DA291B03AB0093D7
:104CB00004AB05AA57F8211056F82400FFF797FF18
:104CC000013464B2EFE7D300043B059A49F80320AE
:104CD00006B0BDE8F08700238B4205DA002240F8D9
:104CE000232001335BB2F7E7704700231A468B425B
:104CF0000CDA10B450F82340224301335BB28B42EC
:104D0000F8DBB2FA82F0400910BC7047B3FA83F0C6
:104D1000400970474B1150F8230001F01F01012397
:104D200003FA01F10840704710B50446FFF740FF51
:104D300088B1014600F18043013B54F82330002242
:104D400013B15B080132FBE7481E80B2400180B21C
:104D5000104400B210BD0020FCE7002393420ADAA1
:104D600010B451F8234040F8234001335BB2934222
:104D7000F7DB10BC70477047013A52B2002A13DBD0
:104D800010B450F8224051F822309C4207D808D382
:104D9000013A52B2002AF4DA002010BC7047012018
:104DA000FBE74FF0FF30F8E70020704730B4013ADE
:104DB00052B20024002A08DB50F8223051F8225069
:104DC0006B401C43013A52B2F4E7201C18BF01208B
:104DD00030BC704702FB00F0002A0CBF0A460022DC
:104DE000104370472DE9F8438146884617461E4612
:104DF00000242046B44214DA58F8243057F82450DE
:104E00001D440544AB4214BF0122002201468CBF61
:104E100001200020FFF7DEFF49F82450013464B27E
:104E2000E8E7BDE8F88370B506461446006810F060
:104E300001050ED121463046FFF7C7FE45B104F10A
:104E40008044013C56F8243043F0004346F82430B7
:104E500070BD13460A4631463046FFF7C3FF05468C
:104E6000E8E72DE9F8438146884617461E460024A8
:104E70002046B44214DA58F8243057F824505D1B09
:104E80002D1AAB4214BF01220022014634BF01207B
:104E90000020FFF79FFF49F82450013464B2E8E78F
:104EA000BDE8F88370B505461E469DF910402346BF
:104EB000FFF798FF30B9224629463046FFF75CFFDE
:104EC000012805D02346324629462846FFF7C9FF68
:104ED00070BD70B505461E469DF910402346FFF78C
:104EE000C0FF00B970BD2346324629462846FFF769
:104EF00079FFF7E72DE9F047A2B0824691461C46BC
:104F000002AB00930191A50121461046FFF70CFF6B
:104F1000281A06B2B046002E24DB48F34718734225
:104F200006F01F0503F01F0358BF5D42414612A85B
:104F3000FFF7D1FE002D18DD002213469C421BD93D
:104F400059F8237007FA05F008EB0301024322A881
:104F500000EB810141F8402CC5F1200227FA02F252
:104F60000133EBE706F11F08D7E72246494612ABAB
:104F700003EB8800FFF7F1FE012543E091422CBFCF
:104F80004FF0000C4FF0010CC5F1010122AF07EB0F
:104F9000810151F8881C0A5001335BB2B3EB440F16
:104FA00012DA22AA02EB850252F8882C980052F8F5
:104FB000231022AA02EB830252F8402C8A1AA2EB99
:104FC0000C029142DAD1DFE7654514BF00250125C7
:104FD000214612A8FFF7F9FD631E22AA02EB8408FE
:104FE00058F8401C02EB830353F8402C42EAC1728C
:104FF00043F8402C214612AB03EB8400FFF7E5FD9C
:10500000013E36B2002E02DB00239C46C6E722ABEF
:1050100003EB8505224655F8881C5046FFF79DFE98
:1050200022B0BDE8F08770B590B005461E469DF9E8
:10503000504023466846FFF7F1FD23463246694655
:105040002846FFF757FF10B070BD30B591B0054648
:105050001C4693F900306846FFF7E0FDD4F8AC3009
:1050600069462846984711B030BD08B513460A4630
:10507000FFF7EBFF08BD2DE9F04792B005468946E2
:1050800014461F4693F9006031461046FFF72DFE87
:1050900010B112B0BDE8F0873A4649460AA8FFF7BA
:1050A000E4FF3B460AAA294602A8FFF7CEFF3A468C
:1050B0000AA90846FFF7D9FF3B462246494648461B
:1050C000FFF7C3FF3A4621462046FFF7CEFF07F120
:1050D000040800964346224629462846FFF7E2FE8A
:1050E00000964346224621462046FFF7DBFE009607
:1050F0004346224629462046FFF7EBFE3B46224622
:1051000029462846FFF7A1FF009643462A4629462E
:105110002046FFF7C7FE009643462246294628460A
:10512000FFF7C0FE00212846FFF7F4FD00284AD013
:105130003346424629462846FFF754FE824631460A
:105140002846FFF742FD06F18043013B55F8232036
:1051500042EACA7245F823203A4629462046FFF71C
:1051600084FF0096434602AA21462046FFF7B1FE7F
:105170000096434602AA21462046FFF7AAFE009663
:105180004346224602A90846FFF7A3FE3B4602AA71
:1051900029462846FFF759FF009643460AAA2946A2
:1051A0001046FFF796FE324621462846FFF7D5FD0A
:1051B000324649462046FFF7D0FD32460AA9484606
:1051C000FFF7CBFD65E731462846FFF7FEFCC3E756
:1051D0002DE9F0418AB00446884616460023039321
:1051E000049305930693079308930993032302936B
:1051F000154615F9047BFFF738FF00972B4602AAE6
:1052000021462046FFF765FE3346424621462046AA
:10521000FFF71BFF00972B4606F18402214620462C
:10522000FFF740FE0AB0BDE8F081F0B5A1B0074637
:105230000E4615461C4619463046FFF756FDA0B9E6
:105240002246314618A8FFF788FD2246294610A8B5
:10525000FFF783FD214608A8FFF73DFD01230893D2
:1052600021466846FFF737FD0DE021463846FFF737
:1052700032FD71E0214618A8FFF7A7FC2246294617
:1052800008A8FFF7D0FD224610A918A8FFF774FD63
:10529000024600285BD0189B13F0010FEAD0109B48
:1052A00013F0010F1ED0002A2DDD234610AA18A9E5
:1052B0000846FFF7D6FD214618A8FFF786FC2246D0
:1052C000694608A8FFF758FD002815DB23466A4603
:1052D00008A90846FFF7C5FD2246294608A8FFF79A
:1052E000A2FDD0E7214610A8FFF76FFC2246294611
:1052F0006846FFF798FDC6E723462A4608A90846F0
:10530000FFF770FDE2E7234618AA10A90846FFF749
:10531000A8FD214610A8FFF758FC224608A96846B8
:10532000FFF72AFD00280BDB234608AA69466846DA
:10533000FFF797FD224629466846FFF774FDA2E76E
:1053400023462A4669466846FFF74CFDECE72246AD
:1053500008A93846FFF701FD21B0F0BDF0B589B0CE
:1053600007460D4616461C461A4631466846FFF764
:105370007CFE23466A4639463846FFF766FE2346DA
:10538000324669466846FFF760FE23466A4629466C
:105390002846FFF75AFE09B0F0BD2DE9F0438BB067
:1053A0008046894614461F46129D15F9046B0096E7
:1053B0002B460246214602A8FFF78BFD129A02A94E
:1053C0000846FFF752FE129B02AA41464046FFF7ED
:1053D0003CFE129B02AA21462046FFF736FE0096AD
:1053E0002B464A4639463846FFF773FD129A39462E
:1053F00002A8FFF73AFE00962B46424602A908464D
:10540000FFF767FD00962B46224602A90846FFF7E4
:1054100060FD00962B46424621462046FFF759FD87
:10542000129B224649464846FFF70FFE00962B4640
:1054300002AA41462046FFF74CFD129B2246394600
:105440003846FFF702FE00962B464A463946384654
:10545000FFF73FFD324602A92046FFF77EFC0BB066
:10546000BDE8F08370B505460E461446D11C17D42E
:1054700041F387012846FFF72EFC0022A24211DAF1
:10548000A31A013B23F00300B15C03F00303DB002C
:1054900001FA03F3295819432950013252B2EDE7BA
:1054A0000331E5E770BD8842B8BF084670472DE973
:1054B000F843054689461E46B3F90230D91D2CD45F
:1054C000C91088461F332AD45C11914200D39046FC
:1054D00067B239462846FFF7FEFB42464946284652
:1054E000FFF7C0FF4FEAC802B6F902309A4220D94E
:1054F000D21A05EB84030021A3F1040CAB4210D9AE
:1055000053F8040C20FA02F4214343F8041CC2F1BE
:10551000200100FA01F16346EEE70731D0E71F33BF
:10552000D2E724363A4629463046FFF725FC0128C3
:1055300001D1BDE8F8833B46324629462846FFF7AD
:1055400090FCF6E72DE9F04FFBB002900491059234
:105550001D46849C94F90060B4F902301F333BD49B
:1055600043F3471A0AF1FF377AAB03EB87020023B4
:1055700042F8C03C0DF1380848F827300DF1180901
:1055800049F8273094F90120029916A8FFF76AFF1D
:105590004FEA860B16AA02EB0B00039094F9011058
:1055A0000A46029B0B441946FFF75CFF94F9012061
:1055B00029464046FFF756FF94F901100A46294450
:1055C0004846FFF74FFF31464046FFF78EFB28B1B4
:1055D00000207BB0BDE8F08F1F33C1E7314606A83D
:1055E000FFF783FB0028F3D104F1240852460EA9EB
:1055F0004046FFF7C1FB012801D00020E9E75246F1
:1056000006A94046FFF7B8FB0128F6D153464246AB
:1056100006A962A8FFF709FE7AAB03EB87074FF0F4
:10562000000947F8209C2346059A049972A8FFF7C1
:105630003EFFCDF800A0434662AA72A90846FFF7D4
:10564000F2FCCDF800A0434662AA0EA96AA8FFF7B3
:10565000EAFC52AF324616A93846FFF77EFB07EB4D
:105660000B033246039903931846FFF776FB04F1C8
:105670004405324629463AA8FFF76FFB324605EB50
:105680000B0132A8FFF769FB231D009602933AAA8B
:10569000394662A8FFF71DFC0094039B3A4632A9E5
:1056A0003AA8FFF77AFE3346029A62A90846FFF746
:1056B000BCFD234662AA03993846FFF74FFECDF89A
:1056C0009890279516AB28932997514672A8FFF713
:1056D0002BFB054651466AA8FFF726FB01462846E4
:1056E000FFF7E1FE0546471E3FB2394672A8FFF7B5
:1056F00011FBB0EB090918BF4FF0010939466AA840
:10570000FFF708FBC8B1022349EA030926AB53F8A7
:105710002970324639464AA8FFF71FFB324607EB8D
:105720000B0142A8FFF719FB314662A8FFF7D3FA35
:1057300001236293023D2FB22EE00023E4E7002311
:105740001D4326AB53F8255025B3324629463AA8C7
:10575000FFF703FB324605EB0B0132A8FFF7FDFA1A
:10576000234662AA32A93AA8FFF7F8FD0096029BE9
:105770003AAA4AA92AA8FFF7ACFB009442AB4AAA6E
:1057800032A93AA8FFF709FE23462AAA62A90846C9
:10579000FFF75BFC013F3FB2002F15DBD4F8A450AC
:1057A000234662AA42A94AA8A847394672A8FFF729
:1057B000B1FA051C18BF012539466AA8FFF7AAFAF5
:1057C0000028BCD00223BBE73346029A62A90846F0
:1057D000FFF72BFD234662AA42A94AA8FFF7BEFDA8
:1057E00052464AA94046FFF7C7FA012808D1324677
:1057F0000EA94AA8FFF7DAFAB0FA80F04009E8E605
:10580000534642464AA90846FFF72BFBEFE728B369
:1058100070B50C46054619B38AB901201DE005F1A3
:1058200028012846FCF738F80023AB662B6A6A6A21
:1058300013F5007342F100022B626A623246561E73
:1058400052B1AB6E5A1CAA6614F8011B2B4483F8A4
:1058500028103F2AF2D9E2E7012070BD00207047EE
:105860000020FAE7002865D0F8B50D460446002967
:1058700062D0896EC800D5E90823161843F10007E5
:10588000C5E90867481CA8662944802381F82830A8
:1058900038282AD805F12806A86EC0F13802002160
:1058A000304400F04BF82A6A6B6A85F86720C2F32F
:1058B000072185F86610C2F3074185F86510120EBE
:1058C00085F8642085F86330C3F3072285F86220E9
:1058D000C3F3074285F861201B0E85F8603031461E
:1058E0002846FBF7D9FF00221BE005F12806C0F18E
:1058F00040020021304400F021F831462846FBF7F1
:10590000CBFF0023AB66C5E755F82230190E217096
:10591000C3F307416170C3F30721A170E370013243
:105920000434072AF0D970220021284600F006F836
:105930000120F8BD002070470020FAE708B500F00C
:10594000CBFB08BD006801FB0200704710B490F962
:105950000B408C420FDBC46801EB41018800211829
:105960001046002A0DDB401101EB8001196002F0A6
:105970001F0010BC7047C46801EB4101880021582A
:10598000EEE702F11F00EEE700B583B001ABFFF7D1
:10599000DDFF019A012303FA00F01368034313604B
:1059A00003B05DF804FBF8B50446B0F808C04368DE
:1059B00003FB0CFC07686744FF22C27200200BE067
:1059C000E26857511F3118D4491107EB81079B0832
:1059D000033323F003030130A27A82420FDDBCFBC4
:1059E000F3F1E26800EB4006B5002A44161D56604C
:1059F00096601F29E4DCE072E9E71F31E4E7002547
:105A000011E02A4661682046FFF79CFFE3681A1DF3
:105A100002609A684260106098602A460021204621
:105A2000FFF7B2FF01352389AB42EADCF8BD002065
:105A3000704738B504460D464520A04729465220F8
:105A4000A04729465220A04738BD2DE9F04F83B02A
:105A50008246009191461D469DF830B000264FF0D9
:105A600010083746414608E009282BD957230099EA
:105A70001844D047013601272146A1B34C1EA0008F
:105A8000C0F12002A0F1200329FA00F005FA02F289
:105A9000104325FA03F3184310F00F00E4D1002F50
:105AA000E2D10129E0D008F1FF3301930D9B984525
:105AB00016DCBBF1010F07D0BBF1020F0AD0DDF8F5
:105AC0000480D9E73023D2E700993020D047DDF8B1
:105AD0000480D1E700992020D047DDF80480CBE78F
