:100000000040002095550000ED550000C15400004F
:10001000C1540000C1540000C1540000C15400008C
:10002000C1540000C1540000C154000099500000A8
:10003000C1540000C154000055500000C1540000DC
:100040006D5500006D5500006D5500006D550000A8
:100050006D5500006D5500006D5500006D55000098
:100060006D5500006D5500006D5500006D55000088
:100070006D5500006D5500006D5500006D55000078
:100080006D5500006D5500006D5500006D55000068
:100090006D5500006D5500006D5500006D55000058
:1000A0006D5500006D5500006D5500006D55000048
:1000B0006D5500006D5500006D5500006D55000038
:1000C0006D5500006D5500006D5500006D55000028
:1000D0006D5500006D5500006D5500006D55000018
:1000E0006D5500006D5500006D5500006D55000008
:1000F0006D5500006D5500006D5500006D550000F8
:100100007BB972B90029BEBF00204FF0004106E064
:1001100008BF00281CBF6FF000414FF0FF3000F017
:10012000ADB9ADF1080C6DE904CE002909DB002B57
:100130001ADB00F035F8DDF804E0DDE9022304B055
:100140007047404261EB4101002B1BDB00F028F8B7
:10015000DDF804E0DDE9022304B0404261EB410137
:10016000524263EB43037047524263EB430300F098
:1001700017F8DDF804E0DDE9022304B0404261EB4A
:1001800041017047524263EB430300F009F8DDF888
:1001900004E0DDE9022304B0524263EB43037047FD
:1001A0002DE9F0478C460D460446089E002B51D1A0
:1001B0008A4217466DD9B2FA82FEBEF1000F0BD00B
:1001C000CEF1200C01FA0EF520FA0CFC02FA0EF723
:1001D0004CEA050C00FA0EF44FEA174A250CBCFB5A
:1001E000FAF81FFA87F90AFB18CC45EA0C4508FB18
:1001F00009F3AB420AD9ED1908F1FF3280F02381EF
:10020000AB4240F22081A8F102083D44ED1AA4B2AD
:10021000B5FBFAF00AFB105544EA054400FB09F966
:10022000A14509D9E41900F1FF3380F00A81A14505
:1002300040F2078102383C44A4EB090440EA08403C
:100240000021002E61D024FA0EF400233460736084
:10025000BDE8F0878B4207D9002E54D0002186E8F4
:1002600021000846BDE8F087B3FA83F1002940F089
:100270008E80AB4202D3824200F2FA80841A65EB90
:1002800003050120AC46002E3FD086E81010BDE8E3
:10029000F08712B90127B7FBF2F7B7FA87FEBEF174
:1002A000000F34D1EB1B3A0C1FFA87FC0121B3FB82
:1002B000F2F8250C02FB183345EA03450CFB08F362
:1002C000AB4207D9ED1908F1FF3002D2AB4200F280
:1002D000D1808046ED1AA3B2B5FBF2F002FB1055B7
:1002E00043EA05440CFB00FCA44507D9E41900F1DE
:1002F000FF3302D2A44500F2B8801846A4EB0C04E8
:1003000040EA08409DE731463046BDE8F087CEF12F
:10031000200405FA0EF307FA0EF720FA04F83A0C57
:1003200025FA04F448EA0308B4FBF2F14FEA184551
:1003300002FB11441FFA87FC45EA044501FB0CF35C
:10034000AB4200FA0EF409D9ED1901F1FF3080F04B
:100350008A80AB4240F2878002393D44EB1A1FFA93
:1003600088F5B3FBF2F002FB103345EA034500FBCE
:100370000CF3AB4207D9ED1900F1FF386FD2AB4255
:100380006DD902383D44EB1A40EA01418FE7C1F1D3
:10039000200722FA07F88B4005FA01F448EA030324
:1003A00020FA07FE4FEA134CFD404EEA040EB5FB5F
:1003B000FCF94FEA1E440CFB19551FFA83F844EA76
:1003C000054509FB08F4AC4202FA01F200FA01FA11
:1003D00008D9ED1809F1FF3043D2AC4241D9A9F157
:1003E00002091D442D1B1FFA8EFEB5FBFCF00CFB11
:1003F00010554EEA054400FB08F8A04507D9E4185B
:1004000000F1FF3529D2A04527D902381C4440EA23
:100410000940A4EB0804A0FB02894C45C6464D46A2
:1004200015D312D056B1BAEB0E0364EB050404FAEF
:1004300007F7CB401F43CC40376074600021BDE814
:10044000F0871846F8E69046E0E6C245EAD2B8EBF7
:10045000020E69EB03050138E4E72846D7E740467A
:1004600091E78146BEE7014678E702383C4445E71C
:10047000084608E7A8F102083D442BE7704700BF93
:1004800070B582B0054601A9007900F0A1F8AC680A
:10049000019B1C442B681D8966194FF02002EFF365
:1004A000118382F3118804F0A9FC635983F308884F
:1004B0007368984702B070BD70B584B04FF000010A
:1004C000032363F302016FF3C501314D314B5B1B15
:1004D000C3F3CF0363F38F112F4803F0B5FA00F095
:1004E000B3F82E4800F066F8A0B101A800F0F4FEC1
:1004F00010B34FF00001012363F302016FF3C50154
:10050000244B5B1BC3F3CF0363F38F11244803F029
:100510009BFAFEE74FF00002012363F302026FF340
:10052000C5021C4B5B1BC3F3CF0363F38F121B4944
:100530001C4803F0FBFAFEE703264FF0000266F3C7
:1005400002026FF3C502134C641BC4F3CF0464F3BF
:100550008F120399144803F0E9FA4FF0000166F393
:1005600002016FF3C50164F38F11104803F06CFAB8
:1005700001A8FFF785FF4FF00001012363F302019B
:100580006FF3C50164F38F11094803F05DFAFEE7CC
:100590000C7C0000147C00003C7C0000507C0000BF
:1005A000807C0000647C0000A07C0000CC7C00000B
:1005B000EC7C000008B5054B1B6813B1034B1868B1
:1005C00008BD06F017FE014B1860F7E70000002099
:1005D00010B900200860704708B501464FF00003CD
:1005E000012262F302036FF3C5030748074A121A98
:1005F000C2F3CF0262F38F130022054803F0E6FA3C
:100600006FF0150008BD00BF0C7C0000147C0000DA
:100610000C7D000001307047FF20704738B515464B
:100620001C4604F0C5F960B9014600239C4205D977
:10063000EA5CFF2A03D10133DBB2F7E70121084668
:1006400038BD4FF0FF31FAE7704702EB4203013843
:10065000013901FB02F200FB0320704710B402468F
:100660000A4B9B6D9C680020002A0ADB074B5B6AE3
:1006700003EBC2035B6803449C4202D3013A184671
:10068000F2E701320A6010BC704700BF040000208E
:1006900038B5064C206A04F00AFA0546A06D04F04D
:1006A00006FA854200D238BD2846FCE70400002047
:1006B00070B582B00446FFF7ADFF01A9C0B204F0E7
:1006C00055F9F0B906460198FFF7A6FF05460198CF
:1006D00004F060F92C230C4803FB04000023032BD7
:1006E00005D8C25C954207D10133DBB2F7E701239D
:1006F00023B1304602B070BD0023F9E74FF0FF365A
:10070000F7E74FF0FF36F4E7040000202DE9F84347
:100710005C4B9E6A5F6D802E0DD8802F0BD8594B95
:100720009B6DD3F808800020044601468646844627
:100730000246034644E04FF00001022363F3020146
:100740006FF3C501504A514B9B1AC3F3CF0363F3B8
:100750008F114F4803F078F90020BDE8F883DFF8E7
:100760002491D9F8245005EBC1056D682B44D9F8C4
:10077000505005EBC4056D682A44013101341DE079
:100780004FF00001022363F302016FF3C5013E4AFB
:100790003E4B9B1AC3F3CF0363F38F113D4803F025
:1007A00053F90020BDE8F883364D2D6D05EBC405E7
:1007B0006D682A44012816D001340220934226D0C5
:1007C000B14201D3BC4240D29342C8D09342EBD253
:1007D0002C4D6D6A05EBC1056D682B440228CFD006
:1007E00001310120EAE74FF00001022363F3020127
:1007F0006FF3C501244A254B9B1AC3F3CF0363F360
:100800008F11244803F020F90020BDE8F8839C44B0
:100810009644434505D8424503D800200246034686
:10082000CEE74FF00001022363F302016FF3C5012D
:10083000154A164B9B1AC3F3CF0363F38F11164867
:1008400003F002F90020BDE8F883B14213D04FF065
:100850000001022363F302016FF3C5010A4A0B4B47
:100860009B1AC3F3CF0363F38F110C4803F0ECF82A
:100870000020BDE8F883BC42E9D1F445E7D101206E
:10088000BDE8F883040000200C7C0000147C00000C
:10089000A47D0000D07D0000047E0000387E0000B2
:1008A00010B582B002A9802341F8043D1B4B5A6A5F
:1008B000012004F071F8034610B90199174A9162BA
:1008C0001BB10124204602B010BD02A9802341F8CB
:1008D000043D124B1A6D022004F05EF8034610B975
:1008E00001990E4A51650BB10124EBE702A980235F
:1008F00041F8043D094BDA6D032004F04DF804463D
:1009000010B9019A054B1A660CB10124DAE7FFF71A
:10091000BFFE024B83F86400D4E700BF0400002050
:1009200030B587B004A9012000F05FFE05A90320BF
:1009300000F05BFE4FF00003032262F302036FF34B
:10094000C5034F4C4F4A121BC2F3CF0262F38F1301
:100950004D4A00929DF81020012A34D0032A30D04D
:100960004A4A01929DF8112002929DF812200392AA
:1009700004226946464803F07FF94FF00003032242
:1009800062F302036FF3C5033E4A121BC2F3CF02A8
:1009900062F38F133F4A00929DF81420012A16D06B
:1009A000032A12D0394A01929DF8152002929DF82F
:1009B0001620039204226946354803F05DF90023AE
:1009C00012E0354ACDE7354ACBE7334AEBE7334A05
:1009D000E9E7334A02EB83025278042A10D09DF8EB
:1009E00014108A420CD00133032B35D82C4A12F84C
:1009F0002320042AEDD09DF810108A42F3D1E8E7B5
:100A0000274A02EB83029278042A03D09DF8111042
:100A10008A42E8D1224A02EB8303DD784FF00002DC
:100A2000032363F302026FF3C502164B1B1BC3F3D0
:100A3000CF0363F38F124DB1012D05D0022D01D0EC
:100A4000184904E0184902E0184900E0184919481B
:100A500003F06CF8284610E04FF00001032363F325
:100A600002016FF3C501074B1C1BC4F3CF0464F3F1
:100A70008F11114802F0E8FF002007B030BD00BF21
:100A80000C7C0000147C0000647E0000747E00007A
:100A9000807E0000AC7E00006C7E0000787E00004E
:100AA000047F0000BC7E0000B47E0000D07E000009
:100AB000D87E0000E07E0000F07E00002DE9F047C7
:100AC00082B006468A4600F035FD8146304600F089
:100AD00024FD804600242746254605E01DB117B9B0
:100AE000274600E001250134444514DA204B93F8F1
:100AF000641001230DF1070201FB04913046FFF75A
:100B00008DFD00282FDB0128E8D0002DEAD0002F32
:100B1000E9D02B4600E000239BB92DB307B13C463A
:100B2000013C144B83FB0423A3EBE4735A1CCAF867
:100B3000002003EB4303E41A01348AF80440002543
:100B400012E04FF00001012363F302016FF3C501CE
:100B5000094A0A4B9B1AC3F3CF0363F38F1108486A
:100B600002F072FFD9E70125284602B0BDE8F08700
:100B700004000020565555550C7C0000147C0000E4
:100B8000847D000030B583B005460C22002104F0BE
:100B9000DCFD01232B602B71FFF7C2FE012805D07D
:100BA000044602280BD038B1072405E0032001A930
:100BB00003F0DCFE28B10124204603B030BD012043
:100BC000F5E729460198FFF779FF0446019803F0FD
:100BD000E1FEF1E708B500F0B7FD042807D0FF28D3
:100BE00006D0012801D0052008BD032008BD022041
:100BF00008BD70B582B00D461646FFF70BFD01A982
:100C0000C0B203F0B3FE30B10124019803F0C2FE7C
:100C1000204602B070BD2889E96804236A46014471
:100C2000019803F0C5FE044678B9BDF8002046F6E9
:100C300007139A4201D00324E7E72B89EA6813449B
:100C4000BDF8022013443360DFE70124DDE7000034
:100C50002DE9F84F80468A46174699460A9E002598
:100C60000FE02346104AE919404603F0A1FEA0B95F
:100C700023460D4A05EB0901504603F0B8FE78B94A
:100C80002544B54206D2741BB4F5806FE9D94FF400
:100C90008064E6E70020BDE8F88F0120BDE8F88F0A
:100CA0000120BDE8F88F00BF7000002010B582B0B1
:100CB0000C46FFF7AFFC01A9C0B203F057FE30B1FC
:100CC0000124019803F066FE204602B010BD2023E7
:100CD00022460021019803F06BFE04460028F0D064
:100CE0000124EEE738B505460024012C0FDC2C2149
:100CF000084B01FB04312046FFF7D8FF034608B933
:100D00000134F2E7002C03DD15B9002300E00023D5
:100D1000184638BD040000202DE9F8430378012B64
:100D200004D0022B27D00120BDE8F88300238146A0
:100D30009846124A2C2101FB03239C6A013C92F83D
:100D4000640000F0E4FB074600252C230B4A03FB5C
:100D500008235B6A03EBC402566853F834101B681F
:100D60003246C91A484603F073FE013C3544AF428F
:100D7000EBD8BDE8F8830123D9E700BF04000020C9
:100D800010B582B001A9012003F0F0FDA8B96946B1
:100D9000019800F0DEFB044668B99DF80230032B91
:100DA00003D1019800F0A0FC0446019803F0F2FD85
:100DB000204602B010BD0124F7E70124F8E710B582
:100DC00082B001A9012003F0D1FD18B10124204611
:100DD00002B010BD019800F081FC0446019803F0B8
:100DE000D9FDF4E700B585B0002302930193009389
:100DF0004FF48073044A00F091FD034600B10323D1
:100E0000184605B05DF804FB7010002070B582B084
:100E100004460E46FFF7FEFB01A9C0B203F0A6FD93
:100E200018B10125284602B070BD2C201F4D00FBD3
:100E300004552046FFF73CFC78B31C4A2B6913F09D
:100E4000100F30D12C2303FB04F3D258184B9A42D5
:100E500015D0E4B94FF00002012363F302026FF3EF
:100E6000C5021449144B5B1AC3F3CF0363F38F120B
:100E70002146124802F05AFE4FF0FF350FE032468D
:100E800001992846FFF7AEFF054640B1E1E701981A
:100E90008268002103F0DCFDDCE74FF0FF350198AC
:100EA00003F078FDBEE74FF0FF35F8E704000020BF
:100EB0003DB8F3960C7C0000147C0000407F0000DD
:100EC00038B5054600F040FC0446831E022B01D9CC
:100ED000204638BD29460120FFF798FF0028F7D0AB
:100EE0000524F5E72DE9F04383B000AF04461F4B1E
:100EF0001D68EB1D23F00703ADEB030D6E46437930
:100F00006BB10320391D03F031FD50B10124786825
:100F100003F040FD20460C37BD46BDE8F0830120BC
:100F2000F0E7786800F006FB8046114B93F86420E8
:100F300021792068FFF789FB8044786803F0B7FDCA
:100F400081467868FFF768FB2A460146304604F080
:100F5000FCFB237933704B4632464146786803F0F8
:100F600046FD04460028D2D00124D0E7607F00006F
:100F7000040000202DE9F04188B00F4614467D4E54
:100F8000736A53F830501B68ED1A96F8640000F04D
:100F9000BEFAB36A013B7919726A52F833301268AB
:100FA0009B1A994227D93E1A2368012B25D000238A
:100FB000637107A9012003F0D9FC06A9022003F000
:100FC000D5FC05A9032003F0D1FC2379012B1AD00D
:100FD0002379022B63D02379032B00F082800798BA
:100FE00003F0D8FC069803F0D5FC059803F0D2FC7A
:100FF00008B0BDE8F0813E46D6E7BE4201D00123ED
:10100000D6E70023D4E73A460021059803F020FDF7
:10101000009600232A4605990698FFF719FE2368D3
:10102000012B0BD0022323712046FFF75BFF002822
:10103000CED0514A136801331360C9E76379ABB16D
:10104000DDF8148003A9022000F0CFFA9DF80E30DD
:10105000012B07D0A168404600F04CFB404600F051
:101060002BFBDFE7404600F03FFBF3E70798FFF775
:1010700053FEDDF81C8003A9022000F0B6FA9DF8AB
:101080000E30012B07D0A168404600F033FB4046EC
:1010900000F012FBC6E7404600F026FBF3E73A46B5
:1010A0002946069803F0D4FC00962B462A4606995A
:1010B0000798FFF7CDFD2368012B0BD00323237185
:1010C0002046FFF70FFF002885D02B4A1368013315
:1010D000136080E76379002BF0D10698FFF71CFEC0
:1010E000ECE73A462946079803F0B2FC00962B46F7
:1010F000002207990598FFF7ABFD63798BB9236848
:101100000133236001232371002363712046FFF71D
:10111000E9FE00283FF463AF174A136801331360F8
:101120005DE7059800F006FA124B93F8643003EB84
:10113000430300937319024607990598FFF788FD4A
:1011400018B10D4A13680133136004A9032000F09D
:101150004CFA9DF81230012B07D0A168079800F0D7
:10116000C9FA079800F0A8FAC9E7079800F0BCFA96
:10117000F3E700BF040000206C00002030B585B00C
:1011800005460023019302930368012B09D005F162
:10119000080000F045FAAB68019300210B460846B1
:1011A00021E00379012BF2D1324B1A68324B9A427B
:1011B0000CD0304BDA6A304B9A420DD0029B019A28
:1011C000934200D90193019BAB60E6E701AA29494C
:1011D0000020FFF70EFDECE702AA28490120FFF7E7
:1011E00008FDEBE70130019A934201D38B4205D20F
:1011F000204C646A04EBC00464682344914201D328
:101200008B4205D91B4C246D04EBC0046468214457
:101210009342E7D39142E5D38B42E3D1002402E02D
:1012200003980138013400280CDB03A9FFF716FAF4
:101230002B68013B9C42F3D32A4601460398FFF7F3
:1012400099FEEDE70E4B1968002910DD4FF0000202
:10125000022363F302026FF3C5020A480A4B1B1A0A
:10126000C3F3CF0363F38F12084802F05FFC002042
:1012700005B030BD040000203DB8F39630000020DA
:101280006C0000200C7C0000147C0000147F000027
:1012900070B584B0054601A8FFF774FC044648B950
:1012A000019B012B09D001A8FFF768FFFFF792FC13
:1012B00006462E60204604B070BD9DF80830012B14
:1012C000F1D101A8FFF7FCFD0646831E022BF0D8E2
:1012D00001A8FFF753FFECE770B582B00646584B04
:1012E000584A5A62584A1A65584ADA6500240CE08E
:1012F0002046FFF78FF92C2303FB04F320335049DA
:101300001944C0B203F032FB0134012CF0D950492A
:10131000032003F02BFBFFF7C3FA0546B8B14FF0EB
:101320000002022363F302026FF3C50249494A4BEC
:101330005B1AC3F3CF0363F38F128021474802F097
:10134000F5FB3F4B986D03F025FB002473E0002074
:10135000FFF7C8FC05460028F3D1FFF7D7F950B9CD
:1013600001230193019B013B042B32D8DFE803F0FA
:1013700014292929350001A8FFF78AFF054600280E
:10138000DFD1019B043B012BECD8FFF7F9FC0028CF
:10139000E8D0FF230193E5E700231C46019AFF2ACA
:1013A00021D033B10020FFF79DFC05460028C8D1AD
:1013B000002400210846FFF729FD054628B3032530
:1013C000BFE7FFF7FCFC58B1FF23019301231C4644
:1013D000E4E7FF2301930023E0E701230024DDE796
:1013E00001231C46DAE74FF00001012363F30201F9
:1013F0006FF3C501174A184B9B1AC3F3CF0363F36E
:101400008F11174802F020FBFEE70D4B1A6A527845
:1014100032711A6A5268B2602C2202FB04343460C2
:101420008FE7C4F101032C21054A01FB0323186A4D
:1014300003F0B0FA0134012CF3D9284602B070BD94
:101440000400002070080020700C002070040020B0
:101450005C0000200C7C0000147C00003C7D00003F
:101460007C7D0000012801D00220704701207047D8
:1014700000EB40002030704780681038704780686B
:10148000203870478068183870470378032B02D0E3
:1014900080682838704780682038704708B5102267
:1014A000034904F001F908B1022008BD012008BD7C
:1014B000647F000070B582B00C46F8B1012824D1D9
:1014C0000846FFF7DCFF0546204603F0F0FA064623
:1014D0002046FFF7A1F808220146684604F035F9D6
:1014E00001238DF8003033466A462946204603F032
:1014F0007EFA034638B9184602B070BD0846FFF7B9
:10150000C1FF0546E0E70123F5E70723F3E700EB1A
:101510004000C30103F128007047037843B1022B58
:1015200003D9032B04D1032070474FF4C0707047D8
:101530000720704710B5044603F0B9FA2378032B4F
:1015400004D0FFF7E4FFA368181A10BDFFF790FF5F
:10155000F9E730B585B004460D46FFF78DFF10233F
:101560006A4601462046FFF759F8002837DB012874
:101570002BD06846FFF792FF28702378032B10D0FA
:101580002046FFF77CFF0123EA1801462046FFF7BB
:1015900045F8002825DB01281AD06878FFF762FF9C
:1015A00068702046FFF76EFF0123AA1C0146204603
:1015B000FFF734F8002816DB01280CD0A878FFF7D5
:1015C00051FFA870002005B030BD03232B70D4E775
:1015D00003236B70E5E70323AB700020F3E70120E2
:1015E000F1E70120EFE70120EDE710B582B0431EDF
:1015F000022B03D90724204602B010BD0C4601A9D6
:10160000C0B203F0B3F908B10124F4E72146019810
:10161000FFF79FFF0446019803F0BCF9EBE70000D9
:1016200030B587B0054601A9012003F09FF918B134
:101630000124204607B030BD019C2046FFF71CFF67
:10164000102302AA0146204603F0B2F950BB102233
:10165000184902A804F028F8B0B106AC54F8140DEB
:1016600003F098F92146032003F080F908B1012422
:10167000DFE7019C2046FFF7FFFE102302AA014688
:10168000204603F095F990B9019C2046FFF7FDFE36
:1016900004232A460146204603F08AF9044610B185
:1016A000012400E00124019803F074F9C1E701244A
:1016B000F9E700BF647F000010B50446FFF7DCFEC9
:1016C0001023054A0146204603F091F9034608B964
:1016D000184610BD0123FBE7647F000008B50146F2
:1016E0000120FFF7E7FE08BD08B501460020FFF71F
:1016F000E1FE08BD70B584B004460191FFF7C5FE58
:101700000646204603F0D3F90546032800D80425F1
:101710002046FEF781FF082201460DEB020004F08F
:1017200014F804220DEB020102A803F0EAFF2B4695
:1017300002AA3146204603F05AF9034610B918466A
:1017400004B070BD0123FAE710B582B001A90120F1
:10175000FFF74BFF10B1FF2002B010BD6946022019
:10176000FFF743FF08B1FF20F6E7002307E06278A8
:10177000042A13D09DF800108A420FD00133022BA7
:1017800042D803EB4302520029498C188A5C042A90
:10179000EDD09DF804108A42F0D1E8E7A278042A3F
:1017A00003D09DF806108A42E8D1E278042A03D0DB
:1017B0009DF802108A42E1D12279042A03D09DF8D3
:1017C00005108A42DAD14FF00002032363F30202CC
:1017D0006FF3C5021749184B5B1AC3F3CF0363F3CA
:1017E0008F126379022B0DD0032B09D0042B05D067
:1017F0001249134802F09AF96079ADE71149F8E708
:101800001149F6E71149F4E74FF00001032363F3B0
:1018100002016FF3C501074A074B9B1AC3F3CF03BD
:1018200063F38F110A4802F00FF9012094E700BF1B
:10183000747F00000C7C0000147C0000BC7E000063
:10184000A07F0000887F0000907F0000987F00004C
:10185000B07F00002DE9F0439DB00546894617464C
:101860009846259C684601F01BFA3CB1269B002B4C
:1018700004DD1A462146684601F040FA2B89EE68DD
:101880001E4400250DE023463A462946484603F00B
:101890008FF8034688B922463946684601F02EFA89
:1018A0002544B54204D2741B4445ECD94446EAE7CA
:1018B0006946249801F04DFA002318461DB0BDE892
:1018C000F083000070B5A4B006460D460024114B0D
:1018D0001B689C4218DA08A801F0E2F90E4B03EBF2
:1018E000C4025268126853F8341008A801F006FACE
:1018F00008A9684601F02DFA2A463146684603F0E9
:10190000D3FE18B10134E2E74FF0FF34204624B093
:1019100070BD00BF307D0000347D00002DE9F04730
:10192000CEB006460D46579C0294569C019404ACDA
:101930000094FFF78FFF8046002840F09780589B67
:1019400023B1202204A9184603F0DBFEF468338992
:101950001C4404234DAA2146284603F029F880465A
:10196000002840F08380BDF8342146F607139A42E0
:1019700078D1BDF8366126440434824681464FF062
:10198000FF3717E0BDF83231202B73D10CAA211D8F
:10199000284603F00DF800286FD120220CA904A8D6
:1019A00003F082FE00286AD14FF00109BDF8323100
:1019B0001C440434B4424CD204234CAA2146284689
:1019C00002F0F6FF002850D19DF83031102BD9D00D
:1019D000012B22D0222BE9D1002F2FDB304B1B68AB
:1019E0009F422EDABDF83231A3F1480292B2B82AF2
:1019F0004DD80CAA211D284602F0DAFF002849D153
:101A0000BDF83231FFB200970CAA202104A800F0E3
:101A100005F9C8B14FF0FF37C8E7BDF83231202BC8
:101A200030D80CAA211D284602F0C2FF68BB9DF8E1
:101A300032110CA8FFF746FF0746B7E74FF0FF3714
:101A4000B4E74FF0FF37B1E74FF0FF374FF0010A2F
:101A5000ACE7B9F1000F20D0BAF1000F06D14FF07A
:101A6000FF3803E04FF0FF3800E0804640464EB0BC
:101A7000BDE8F0874FF0FF38F8E78046F6E74FF013
:101A8000FF38F3E74FF0FF38F0E78046EEE74FF01E
:101A9000FF38EBE74FF0FF38E8E74FF0FF38E5E7B6
:101AA000307D000030B589B00546302307AA01F02B
:101AB00024FA002831D12C68079B1C4401AB04AAEE
:101AC0002146284601F046FA50BB059B072B2AD138
:101AD00007222149069803F0E7FD38BB029B082B3B
:101AE00027D108221D49039803F0DEFD20BB07AA79
:101AF0002146284601F014FA034600BB2A680799DC
:101B0000501884421ED141291FD1117804291FD1B8
:101B100001322A60184609B030BD4FF0FF33F9E7B3
:101B20006FF00103F6E76FF00203F3E76FF00203D3
:101B3000F0E76FF00303EDE76FF00303EAE76FF000
:101B40000503E7E76FF00603E4E76FF00703E1E75B
:101B50006FF00803DEE700BFC07F0000C87F000011
:101B600070B582B005460C461146022301AA2046F4
:101B700001F0C3F900BB0646019A1F2A0ED923685B
:101B8000A2F1200120221944284603F0BAFD23685F
:101B9000019A13442360304602B070BDC2F12002A6
:101BA0000021284603F0D1FD019AC2F120002168EE
:101BB000284403F0A6FDEAE76FF00206EBE730B534
:101BC00085B0054601911446302303AA214601A899
:101BD00001F093F9C0B9039A019B13449C4216D3B8
:101BE000224601A92846FFF7BBFF98B9224601A962
:101BF00005F12000FFF7B4FF034610B9184605B001
:101C000030BD6FF00303F9E74FF0FF33F6E76FF0F5
:101C10000103F3E76FF00203F0E70000F0B595B0C1
:101C200007460E4614461D469DF86810184B53F89B
:101C3000312014A840F8042D03EBC1035B68196838
:101C40001144FFF72FFFB8B96219214603A8FFF727
:101C5000B6FF044698B9202E14D1139D00F0D2FC93
:101C6000009003AB20223946284600F0C3FD01282E
:101C70000BD1204615B0F0BD4FF0FF34F9E74FF01F
:101C8000FF34F6E74FF0FF34F3E76FF00104F0E7BD
:101C9000347D0000013949B201E0013949B200291F
:101CA00003DB50F82130002BF7D0013148B27047E8
:101CB00010B400EB8101002307E051F8042C43EA43
:101CC000520341F8043CD30721460C1F8142F4D84B
:101CD00010BC7047F0B4049FA0FB010100241D68F4
:101CE0001668344324184D418D4208BF844234BFE6
:101CF000012000203968014439601D601460F0BC87
:101D000070472DE9F04F87B082460D4616461F46B4
:101D1000002305930493039398461CE0A8EB040367
:101D200056F8231003AB009304AB05AA55F8240022
:101D3000FFF7D0FF013464B24445EFDD059B4AF85C
:101D40002830049B0593039B04930023039308F11D
:101D500001084FFA88F8B84501DA0024ECE7B946E3
:101D60001CE0A8EB040356F8231003AB009304AB6C
:101D700005AA55F82400FFF7ADFF013464B2BC4258
:101D8000EFDB059B4AF82930049B0593039B0493E2
:101D9000002303930BF101094FFA89F9C8467B0030
:101DA000013B994506DA5FFA89FBABEB0704013486
:101DB00064B2E4E7FB00043B059A4AF8032007B04D
:101DC000BDE8F08F002304E0002240F82320013317
:101DD0005BB28B42F8DB704700231A468B420CDA69
:101DE00010B450F82340224301335BB28B42F8DB3E
:101DF000B2FA82F0400910BC7047B3FA83F0400990
:101E000070474B1150F8230001F01F01012303FA22
:101E100001F10840704710B50446FFF73BFF90B151
:101E2000014600F18043013B54F82330002201E0D9
:101E30005B080132002BFBD1481E80B2400180B20A
:101E4000104400B210BD002010BD002393420ADAF6
:101E500010B451F8234040F8234001335BB2934261
:101E6000F7DB10BC70477047013A52B2002A13DB0F
:101E700010B450F8224051F822309C4207D808D3C1
:101E8000013A52B2002AF4DA002010BC7047012057
:101E9000FBE74FF0FF30F8E70020704730B4013A1D
:101EA00052B2002407E050F8223051F822506B4023
:101EB0001C43013A52B2002AF5DA201C18BF012057
:101EC00030BC704702FB00F0002A0CBF0A4600221B
:101ED000104370472DE9F8438146884617461E4651
:101EE0000024204613E058F8243057F824501D44AD
:101EF0000544AB4214BF0122002201468CBF0120E1
:101F00000020FFF7DFFF49F82450013464B2B442E7
:101F1000E9DBBDE8F88370B506461446006810F0AA
:101F200001050ED121463046FFF7C2FE45B104F14E
:101F30008042013A56F8223043F0004346F82230FE
:101F400070BD13460A4631463046FFF7C3FF0546CB
:101F5000E8E72DE9F8438146884617461E460024E7
:101F6000204613E058F8243057F824505D1B2D1AF2
:101F7000AB4214BF01220022014634BF01200020E1
:101F8000FFF7A0FF49F82450013464B2B442E9DB02
:101F9000BDE8F883F0B589B005460E460822FFF784
:101FA00054FF0027029701970097F36A0393336B5E
:101FB0000493736B0593B36B0693F36B079308233A
:101FC0006A4669466846FFF785FF044608236A4665
:101FD00029462846FFF77EFF0444336B0393736B57
:101FE0000493B36B0593F36B0693079708236A4634
:101FF00069466846FFF76EFF044408236A4629468F
:102000002846FFF767FF0444336A0093736A01931D
:10201000B36A0293059704970397B36B0693F36B28
:10202000079308236A4629462846FFF753FF0444CE
:10203000736A0093B36A0193F36A0293736B039319
:10204000B26B0492F26B05920693336A07930823EE
:102050006A4629462846FFF73DFF0444F36A009389
:10206000336B0193736B0293059704970397336A5D
:102070000693B36A079308236A4629462846FFF762
:1020800068FF241A336B0093736B0193B36B029355
:10209000F36B039305970497736A0693F36A0793A8
:1020A00008236A4629462846FFF753FF241A736B14
:1020B0000093B36B0193F36B0293336A0393736AD8
:1020C0000493B36A05930697336B079308236A4614
:1020D00029462846FFF73DFF241AB36B0093F36BA4
:1020E00001930297736A0393B36A0493F36A0593A7
:1020F0000697736B079308236A4629462846FFF71D
:1021000028FF241A0FD508230C4A29462846FFF732
:10211000E1FE2418F7D40FE00823084A2946284690
:10212000FFF717FF241A002CF6D10822294603488E
:10213000FFF79AFE0128EFD109B0F0BDD87F00006B
:1021400070B505461E469DF910402346FFF7C2FEB6
:1021500030B9224629463046FFF786FE012805D0D1
:102160002346324629462846FFF7F3FE70BD70B578
:1021700005461E469DF910402346FFF7EAFE00B9CA
:1021800070BD2346324629462846FFF7A3FEF7E7EF
:102190002DE9F043A3B0074691461C4602AB0093DD
:1021A000019121461046FFF736FE86B2C6EB841633
:1021B00036B2B046002E11DB48F34718734206F0E2
:1021C0001F0503F01F0358BF5D42414612A8FFF7E9
:1021D000F9FD002D1CDD00231A4615E006F11F084D
:1021E000EAE708EB020159F8220000FA05FE43EA8B
:1021F0000E030DF1880E0EEB810141F8403CC5F154
:10220000200320FA03F30132A242EAD301254CE075
:102210002246494612AB03EB8800FFF716FEF5E7AE
:10222000C5F101010DF1880C0CEB810151F8881CFE
:102230000A5001335BB2B3EB440F18DA22AA02EB67
:10224000850252F8882C980052F8231022AA02EB3B
:10225000830252F8402C8A1AA2EB0E029142DFD080
:1022600091422CBF4FF0000E4FF0010ED8E775459C
:1022700014BF00250125214612A8FFF719FD631E92
:1022800022AA02EB840858F8401C02EB830353F89F
:10229000402C42EAC17243F8402C214612AB03EBBA
:1022A0008400FFF705FD013E36B2002E02DB00235D
:1022B0009E46C0E722AB03EB8505224655F8881CF5
:1022C0003846FFF7C2FD23B0BDE8F08370B590B08B
:1022D00005461E469DF9504023466846FFF711FD0E
:1022E0002346324669462846FFF752FF10B070BDBC
:1022F00030B591B005461C4693F900306846FFF7AB
:1023000000FDD4F8AC3069462846984711B030BD7E
:1023100008B513460A46FFF7EBFF08BD2DE9F04765
:1023200092B00546894614461F4693F9006031462F
:102330001046FFF751FD10B112B0BDE8F0873A46E4
:1023400049460AA8FFF7E4FF3B460AAA294602A825
:10235000FFF7CEFF3A460AA90846FFF7D9FF3B46EA
:10236000224649464846FFF7C3FF3A4621462046E3
:10237000FFF7CEFF07F104080096434622462946A0
:102380002846FFF7DDFE00964346224621462046BA
:10239000FFF7D6FE00964346224629462046FFF721
:1023A000E6FE3B46224629462846FFF7A1FF009657
:1023B00043462A4629462046FFF7C2FE009643467A
:1023C000224629462846FFF7BBFE00212846FFF794
:1023D00018FD00284AD03346424629462846FFF7D2
:1023E00079FD824631462846FFF762FC06F18043BC
:1023F000013B55F8232042EACA7245F823203A46A9
:1024000029462046FFF784FF0096434602AA21464C
:102410002046FFF7ACFE0096434602AA214620461E
:10242000FFF7A5FE00964346224602A90846FFF79D
:102430009EFE3B4602AA29462846FFF759FF009612
:1024400043460AAA29461046FFF791FE3246214626
:102450002846FFF7FAFC324649462046FFF7F5FCCE
:1024600032460AA94846FFF7F0FC65E731462846A0
:10247000FFF71EFCC3E72DE9F0418AB00446884609
:1024800015462022002102A803F05FF903230293DE
:1024900095F900702A4641462046FFF739FF2E1D68
:1024A0000097334602AA21462046FFF760FE2B46DE
:1024B000424621462046FFF71BFF0097334605F1B1
:1024C000840221462046FFF73BFE0AB0BDE8F081BA
:1024D000F0B5A1B007460E4615461C4619463046D3
:1024E000FFF77AFCA0B92246314618A8FFF7ADFCE9
:1024F0002246294610A8FFF7A8FC214608A8FFF7A6
:1025000061FC0123089321466846FFF75BFC23E04A
:1025100021463846FFF756FC71E0214618A8FFF720
:10252000C7FB2246294608A8FFF7F5FC14E0214620
:1025300010A8FFF7BDFB224629466846FFF7EBFCD3
:102540000AE023466A4608A90846FFF702FD22462C
:10255000294608A8FFF7DFFC224610A918A8FFF7B4
:1025600083FC0246002845D0189B13F0010FD4D0FD
:10257000109B13F0010FDAD0002A17DD234610AAB2
:1025800018A90846FFF7E5FC214618A8FFF790FBBD
:102590002246694608A8FFF767FC0028D1DA2346DF
:1025A0002A4608A90846FFF795FCCAE7234618AA59
:1025B00010A90846FFF7CDFC214610A8FFF778FBCD
:1025C000224608A96846FFF74FFC00280BDB23468C
:1025D00008AA69466846FFF7BCFC224629466846B9
:1025E000FFF799FCB8E723462A4669466846FFF795
:1025F00071FCECE7224608A93846FFF726FC21B01B
:10260000F0BD000000487047D47F0000F0B589B0ED
:1026100007460D4616461C461A4631466846FFF7E1
:1026200077FE23466A4639463846FFF761FE234661
:10263000324669466846FFF75BFE23466A462946EE
:102640002846FFF755FE09B0F0BD2DE9F0438BB0E9
:102650008046894614461F46129D15F9046B009664
:102660002B460246214602A8FFF781FD129A02A9D5
:102670000846FFF74DFE129B02AA41464046FFF76F
:1026800037FE129B02AA21462046FFF731FE009634
:102690002B464A4639463846FFF769FD129A3946B5
:1026A00002A8FFF735FE00962B46424602A90846CF
:1026B000FFF75DFD00962B46224602A90846FFF76C
:1026C00056FD00962B46424621462046FFF74FFD19
:1026D000129B224649464846FFF70AFE00962B46C3
:1026E00002AA41462046FFF742FD129B2246394688
:1026F0003846FFF7FDFD00962B464A4639463846D8
:10270000FFF735FD324602A92046FFF79EFB0BB0CE
:10271000BDE8F08370B505460E461446D11C06D4BC
:1027200041F387012846FFF74DFB002210E00331FB
:10273000F6E7631E9B1A23F00300B15C03F003036A
:10274000DB0001FA03F3295819432950013252B230
:102750009442EEDC70BD8842B8BF084670472DE950
:10276000F843054689461E46B3F90210CB1D1DD419
:10277000DB101C461F311BD44FEA6118934200D373
:1027800014464FFA88F739462846FFF71BFB2246C6
:1027900049462846FFF7BEFFE400B6F902309C42E6
:1027A00026D9E41A05EB8801002310E00733DFE7A0
:1027B0001F31E1E751F8042C22FA04FE43EA0E032C
:1027C00041F8043CC4F1200302FA03F30146081F58
:1027D000A942EFD824363A4629463046FFF744FB53
:1027E000012805D03B46324629462846FFF7B1FB73
:1027F000BDE8F8832DE9F04FFBB0029004910592FB
:102800001D46849C94F90080B4F902301F333BD4F8
:1028100043F3471B0BF1FF367AAB03EB8602002331
:1028200042F8C03C0EAF47F826300DF1180949F8C0
:10283000263094F90120029916AB1846FFF76AFF7B
:102840004FEA880A16AB5344039394F901100A46E1
:102850000298084401461846FFF75CFF94F90120EE
:1028600029463846FFF756FF94F901100A462944D5
:102870004846FFF74FFF41463846FFF7ADFA28B10B
:1028800000207BB0BDE8F08F1F33C1E7414606A8AA
:10289000FFF7A2FA08B10020F3E704F124075A4633
:1028A0000EA93846FFF7E0FA012801D00020E8E73A
:1028B0005A4606A93846FFF7D7FA012801D000206A
:1028C000DFE75B463A4606A962A8FFF701FE7AAB4E
:1028D00003EB86064FF0000946F8209C2346059A34
:1028E000049972A8FFF73BFFCDF800B03B4662AAFF
:1028F00072A90846FFF7EAFCCDF800B03B4662AA91
:102900000EA96AA8FFF7E2FC52AE424616A930466D
:10291000FFF79BFA06EB0A03424603990393184616
:10292000FFF793FA04F14405424629463AA8FFF717
:102930008CFA424605EB0A0132A8FFF786FA231DFE
:10294000CDF8008002933AAA314662A8FFF70FFC47
:102950000094039B324632A93AA8FFF776FE43461D
:10296000029A62A90846FFF7B3FD234662AA0399BB
:102970003046FFF74BFECDF89890279516AB28937D
:102980002996594672A8FFF746FA054659466AA89D
:10299000FFF741FA01462846FFF7DDFE85B26E1EBD
:1029A00036B2314672A8FFF72CFAB0EB090918BF0E
:1029B0004FF0010931466AA8FFF723FAD8B1022384
:1029C00043EA090926AB53F82960424631464AA832
:1029D000FFF73BFA424606EB0A0142A8FFF735FA39
:1029E000414662A8FFF7EEF901236293023D2EB241
:1029F0004546B9462FE00023E2E7002343EA0803F7
:102A000026AA52F8237027B32A4639463AA8FFF778
:102A10001CFA2A4607EB0A0132A8FFF716FA2346EA
:102A200062AA32A93AA8FFF7F1FD0095029B3AAAE3
:102A30004AA92AA8FFF79BFB009442AB4AAA32A9F5
:102A40003AA8FFF702FE23462AAA62A90846FFF722
:102A50004FFC013E36B2002E17DB234662AA42A984
:102A60004AA8D4F8A470B847314672A8FFF7C9F94C
:102A700010F1000818BF4FF0010831466AA8FFF7AF
:102A8000C0F90028B9D00223B8E7A8462B46029A1D
:102A900062A90846FFF71CFD234662AA42A94AA87C
:102AA000FFF7B4FD5A464AA94846FFF7DDF9012869
:102AB00005D05B464A464AA90846FFF74AFA42460D
:102AC0000EA94AA8FFF7EAF9B0FA80F04009D8E663
:102AD0002DE9F04F9BB003680393426815460492BA
:102AE000826817460592C268164606920269144625
:102AF00007924269019282690292C2690892DDF8E6
:102B000008C0DDF80480B146AE461D460026099097
:102B100042E091F800A04B781B0443EA0A6391F865
:102B200002A043EA0A2391F803A043EA0A031AA881
:102B300000EB860A4AF8403C4FEAF42A8AEAB41AC3
:102B40008AEA746A524404EA080A2CEA040B8AEA04
:102B50000B0A5244514850F82600024413444FEAED
:102B6000753282EAB50282EAB55205EA0E0A05EA32
:102B7000070B8AEA0B0A0EEA070B8AEA0B0A924451
:102B8000013604316246C446A04609EB0304B94647
:102B90007746AE4603EB0A050F2EBAD992465EE0A1
:102BA000711C01F00F031AAA02EB830353F8403C97
:102BB0004FEAB34282EAF31282EAD30206F10E032D
:102BC00003F00F031AA800EB830353F8400C4FEAFD
:102BD000F04383EA704383EA902306F00F0B1A4414
:102BE00006F1090303F00F031AA800EB830353F85F
:102BF000403C1A4400EB8B0B5BF8403C1A444BF80A
:102C0000402C4FEAF42383EAB41383EA74635344F9
:102C100004EA080A2CEA040B8AEA0B0A53441F4808
:102C200050F82660334413444FEA753282EAB50205
:102C300082EAB55605EA0E0205EA070A82EA0A02A6
:102C40000EEA070A82EA0A0232440E46E246C44607
:102C5000A04609EB0304B9467746AE469D183F2EC1
:102C60009ED952460998039B1D440560049B7344FA
:102C70004360059B1F448760069B4B44C360079BD2
:102C80001C440461019B43444361029B6344836190
:102C9000089B1A44C2611BB0BDE8F08F848000001D
:102CA000E0B110B504467022002100F0BEF80C4BD4
:102CB00023600C4B63600C4BA3600C4BE3600C4B2C
:102CC00023610C4B63610C4BA36103F17453A3F5B7
:102CD0002303A3F69243E361012010BD0020704757
:102CE00067E6096A85AE67BB72F36E3C3AF54FA59D
:102CF0007F520E518C68059BABD9831F28B370B5EA
:102D0000044621B31AB9012070BD2A463146551E2A
:102D1000CAB1A36E5A1CA2664E1C0978234483F8DC
:102D200028103F2AF1D904F128012046FFF7D0FEF0
:102D30000023A366D4E9082312F5007243F10003CF
:102D4000C4E90823E1E7012070BD0020704700209E
:102D500070BD002865D070B50D460446002962D0CC
:102D6000896EC800D5E90823121843F10003C5E9AC
:102D70000823481CA8662944802381F82830382875
:102D80002AD805F12806A86EC0F138020021304487
:102D900000F04BF82A6A6B6A85F86720C2F30721B6
:102DA00085F86610C2F3074185F86510120E85F8A4
:102DB000642085F86330C3F3072285F86220C3F3EB
:102DC000074285F861201B0E85F8603031462846A1
:102DD000FFF77EFE00221BE005F12806C0F140024D
:102DE0000021304400F021F831462846FFF770FEFC
:102DF0000023AB66C5E755F82230190E2170C3F3E6
:102E000007416170C3F30721A170E37001320434FC
:102E1000072AF0D970220021284600F006F8012088
:102E200070BD00207047002070BD08B502F08DFC19
:102E300008BD30B50368CD1A002D4CDD1C7814F0A8
:102E4000800F0AD15C1C04601B7813601368026851
:102E5000891A8B423CD8002030BD04F07F04013C2D
:102E6000032C3BD8DFE804F0020A1523012D38DDDE
:102E70005B781360036802330360E7E7022D33DDFC
:102E80005C789B7843EA0423136003680333036090
:102E9000DCE7032D2BDD5D789C78240244EA0544B1
:102EA000DB7823431360036804330360CEE7042D0B
:102EB00020DD5D789C78240444EA0564DD7844EAEA
:102EC00005241B7923431360036805330360BDE7C2
:102ED0006FF05F0030BD6FF05F0030BD6FF06300DA
:102EE00030BD6FF05F0030BD6FF05F0030BD6FF040
:102EF0005F0030BD6FF05F0030BD38B504680D1B5A
:102F0000002D07DD25789D4207D101340460FFF7CD
:102F100090FF38BD6FF05F0038BD6FF0610038BDC5
:102F200038B5054614460323FFF7E7FF034648B9C3
:102F30002268511E2160012A06D92A68511C296085
:102F4000127822B9184638BD6FF06703FAE76FF0C0
:102F50006703F7E72DE9F04182B004460D461746B6
:102F60009846302301AAFFF7C8FF064680BB2368B6
:102F7000ED1A002D38DD1B783A4642F8043B2568EF
:102F8000019B1D44062329462046FFF7B6FF06464F
:102F9000F0B92368BB607A6821688B1823609D4272
:102FA0001AD08B5C424642F8043B2368013323600D
:102FB00029462046FFF73DFF064648B92368C8F872
:102FC0000830D8F804202368134423609D4208D1B8
:102FD000304602B0BDE8F0810C21404600F008F810
:102FE000F6E76FF06506F3E76FF05F06F0E70000C5
:102FF00008B5034B1B680A460021984708BD00BF6F
:1030000000480020006801FB0200704710B490F9EE
:103010000B408C420FDAC46801EB41018800215853
:103020001046002A0DDB401101EB8001196002F00F
:103030001F0010BC7047C46801EB410188002118D3
:10304000EEE702F11F00EEE700B583B001ABFFF73A
:10305000DDFF019A012303FA00F0136803431360B4
:1030600003B05DF804FBF8B50446B0F808E0436827
:1030700003FB0EFE07687744FF22C27200200BE0BC
:10308000E26857511F3118D4491107EB81079B089B
:10309000033323F003030130A27A90420FDABEFB20
:1030A000F3F1E26800EB4006B5002A44161D5660B5
:1030B00096601F29E4DCE072E9E71F31E4E70025B0
:1030C00012E02A4661682046FFF79CFFE3681A1D5C
:1030D00002609A6842609A68106098602A460021EF
:1030E0002046FFF7B1FF013523899D42E9DBF8BD9A
:1030F0000020704708B50B6801330B60014B1B685B
:10310000984708BD044800202DE9F04F83B00646DB
:10311000019191461F4600244FF0080AA0465346ED
:1031200009E009281FD9572301991844B0470134F1
:103130004FF001082B4623B35D1EA80029FA00F0CA
:1031400010F00F00EDD1B8F1000FEAD1012BE8D05B
:103150000AF1FF3B0C9B9A4511DC012F05D0022F91
:1031600008D0DA46E6E73023DEE701993020B047A1
:10317000DA46DFE701992020B047DA46DAE7DA4697
:10318000D8E7032F02D003B0BDE8F08F0C9BC4EB4F
:103190004304651E002CF6DD01992020B0472C4623
:1031A000F7E700002DE9F04F83B0824601919B467E
:1031B0000C9F002F07DD15464FF001090A264FF03E
:1031C0000008224C15E00127F5E7601CB5FBF0F084
:1031D00001993030D04709F101094FF00108013E53
:1031E000631CB5FBF3F203FB1255194BA3FB04342C
:1031F000E408082C14D9B8F1000FE6D1AC42E4D3AE
:10320000BE42ECDCBBF1020FE9D8BBF1010F05D0E7
:1032100020200199D04709F10109E0E73020F8E7C3
:10322000019905F13000D047BBF1030F02D003B084
:10323000BDE8F08FA7EB090703E001992020D047F4
:1032400027467C1E002FF8DCF1E700BFFFC99A3B40
:10325000CDCCCCCC014B1860704700BF0448002097
:103260002DE9F04F85B007460E46144603934FF004
:1032700000084FF0FF3AC146454617E1A0F125038B
:10328000552B00F20481DFE813F0FD00020102017A
:10329000020102010201020102011B0102010201FD
:1032A0005600590059005900590059005900590059
:1032B000590059000201020102010201020102014A
:1032C00002010201020102010201020102010201E6
:1032D00002010201020102010201020102010201D6
:1032E00002010201020102010201020102010201C6
:1032F000BC000201020102010201020102010201FD
:10330000020102010201F500760002010201020140
:1033100010017600020102017300020102010201A4
:10332000B20002010201D50002019900020102016E
:10333000BC0002011001BAF1000F10DBBAF1000F5E
:1033400013DB0AEB8A0A4FEA4A031844A0F1300A59
:10335000B9F1000F40F0A9804FF00209A5E0B9F1E2
:10336000000FEBD14FF001099FE0A0F1300AEFE729
:1033700008F1010899E0B8F1010F13DD039B073351
:1033800023F0070303F1080203921D68002D0EDBF2
:10339000CDF800A04B462A4631463846FFF702FFDB
:1033A000002582E0039B1A1D03921D68EEE731465B
:1033B0002D20B8476D420AF1FF3AE9E7B8F1010F55
:1033C00010DD039B073323F0070303F10802039288
:1033D0001A68CDF800A04B4631463846FFF7E2FEAA
:1033E000002562E0039B1A1D03921A68F1E731463B
:1033F0003020B84731467820B8474FF0080A4FF0E0
:103400000109B8F1010F10DD039B073323F0070317
:1034100003F1080203921A68CDF800A04B4631462A
:103420003846FFF771FE00253FE0039B1A1D03920B
:103430001A68F1E7039B1A1D0392D3F800B05D46AA
:1034400002E001353146B84728780028F9D1B9F1B2
:10345000030F01D0002528E0A5EB0B03AAEB030323
:1034600003E031462020B8472B465D1E002BF8DCD8
:1034700000251AE0039B1A1D039231461868B847CD
:10348000002512E031462520B84700250DE03146E1
:103490002520B84731462078B847002505E0A846E2
:1034A0004FF0FF3A4FF0000901250134207850B168
:1034B000002D7FF4E3AE2528F1D03146B847F4E77C
:1034C0004FF00309F1E705B0BDE8F08F10B582B009
:1034D00002AC002344F8043D0B4602462146024854
:1034E000FFF7BEFE02B010BDF53000000FB400B50E
:1034F00083B004A951F8040B0191FFF7E7FF03B073
:103500005DF804EB04B070477047000010B54FF051
:103510002003EFF3118483F3118800F06BF801238B
:10352000074AC2F840354FF08042C2F87835054B63
:103530004FF0FF329A62DA6284F31188002010BDE6
:1035400000E0014000ED00E00120704701207047DD
:10355000064B1B68082B01D000207047044B1B68EA
:103560000BB1002070470120704700BF30010010F0
:1035700034010010064B1B68082B01D00020704757
:10358000044B1B680BB1002070470120704700BF3F
:103590003001001034010010064B1B68082B01D0CD
:1035A00000207047044B1B680BB1002070470120BE
:1035B000704700BF3001001034010010064B1B683B
:1035C000082B01D000207047044B1B680BB1002072
:1035D00070470120704700BF300100103401001017
:1035E00001207047014A024B1A6070470090D003D7
:1035F0000848002008B5FFF7A7FF40B14FF080430F
:103600000022C3F80C21C3F81021C3F83825FFF7B6
:103610009DFF002846D04FF08052D2F804145B4B37
:10362000C3F82015D2F80814C3F82415D2F80C14E6
:10363000C3F82815D2F81014C3F82C15D2F81414B6
:10364000C3F83015D2F81814C3F83415D2F81C1486
:10365000C3F84015D2F82014C3F84415D2F8241446
:10366000C3F84815D2F82814C3F84C15D2F82C1416
:10367000C3F85015D2F83014C3F85415D2F83414E6
:10368000C3F86015D2F83814C3F86415D2F83C14A6
:10369000C3F86815D2F84014C3F86C15D2F8442466
:1036A000C3F87025FFF754FF10B1394A394B1A603F
:1036B000FFF760FF18B1FB22374BC3F81825FFF75F
:1036C0006BFF48B135490B6823F00F03344A126889
:1036D00002F00F0213430B60FFF770FF18B14FF4B5
:1036E0000072304B1A60FFF77BFF60B14FF08043F0
:1036F000D3F8003413F0010F05D06FF001024FF042
:103700008043C3F800244FF01023D3F80032002B7D
:1037100008DB4FF01023D3F80432002B02DBFFF755
:1037200061FF08BD0122204BC3F804251E4BD3F8CE
:103730000034002BFAD012224FF01023C3F80022DD
:10374000194BD3F80034002BFAD012224FF010237B
:10375000C3F80422144BD3F80034002BFAD0002213
:10376000114BC3F80425104BD3F80034002BFAD0CA
:10377000BFF34F8F0D49CA6802F4E0620C4B13434C
:10378000CB60BFF34F8F00BFFDE700BF00C000401C
:10379000488103008C56004000F00040E40E0040D9
:1037A000580200104096024000E0014000ED00E0A9
:1037B0000400FA05002343600360704703682BB1DF
:1037C00043681960416000230B6070470160F9E7AE
:1037D0000068704703680BB11A68026018467047AA
:1037E0000020704708B501F0EDFB08BD08B500F0FA
:1037F00045FB0848FFF7DEFF042328220649074857
:1038000003F09EFD064A074B1A604FF4004000F09B
:10381000BDFF08BD8011002060130020881100202A
:10382000E53700000C48002038B5124B0024BFF3E8
:103830005B8F53E8005F43E80042002AF9D1BFF3F1
:103840005B8F00E001340C4A0C4B9B1AB4EB231F36
:103850000FDA094800EB041043685B79002BF1D0C4
:103860002301054AD3585B68002BEBD029469847C3
:10387000E8E738BD781100202C7C00003C7C00007B
:10388000054A064B9B1AB1EBD30F02D252F8310016
:1038900070470020704700BF0C7C00002C7C0000AB
:1038A000064BC31A1B110133426813714368196038
:1038B000426801235371024A137070472C7C000048
:1038C0007011002038B5154BBFF35B8F53E8002F04
:1038D000511C43E800100028F8D1BFF35B8FDAB920
:1038E000002405E0042200212846FFF7D9FF013417
:1038F0000B4A0C4B9B1AB4EB231F0DDA084D05EB5A
:1039000004152B7B002BF2D02301054AD358DB682A
:10391000002BE7D09847E5E738BD00BF7C110020B9
:103920002C7C00003C7C000008B5FFF7CBFF00209A
:1039300008BD0000024B03EBC2021079704700BFC4
:103940000C7C000010B58C7A4A890123C2F38912DD
:10395000C4F3C201FFF7EEFF04F0070484428CBFFA
:103960000020012010BD0000F8B50646E9B900248A
:1039700000E00134154A164B9B1AB4EB231F20DAE2
:10398000124D05EB04156B685B79002BF1D03146C5
:103990002846FFF7D7FF0028EBD027010B4BDB5958
:1039A0001B68314628469847E3E70A4BBFF35B8F15
:1039B00053E8002F013243E800210029F8D1BFF37A
:1039C0005B8F304600F0CCFAF8BD00BF2C7C0000C5
:1039D0003C7C00007811002038B50446164B18785E
:1039E00000B938BD4FF02003EFF3118583F3118840
:1039F0001248FFF7EFFE85F3118870B1104BBFF34B
:103A00005B8F53E8002F013A43E800210029F8D1E9
:103A1000BFF35B8F2146FFF7A7FF14B9094B1B6863
:103A200033B90648FFF7D4FE003018BF0120D8E7AD
:103A3000FFF7FAFEF5E700BF7011002080110020AB
:103A4000741100207811002070B582B005460E4632
:103A5000002202A941F8042D1B4803F07DFC78BB2D
:103A6000019C44B101236360002222814FF00003D6
:103A700062F30003237204B12561FCB16681134B2C
:103A80001B689847E060124BBFF35B8F53E8002F31
:103A9000013243E800210029F8D1BFF35B8F4FF0DA
:103AA0002003EFF3118583F3118821460948FFF7BE
:103AB00085FE85F311880020FFF78EFF02B070BDF0
:103AC00000F0F6F90190CBE7A81100200C48002087
:103AD0007411002080110020114B1B78FBB910B528
:103AE000002400E001340F4A0F4B9B1AB4EB231F54
:103AF0000CDA0C4800EB041043685B79002BF1D022
:103B00002301084AD3589B689847EBE70122044BEE
:103B10001A700020FFF760FF0028FAD110BD70472F
:103B2000A41100202C7C00003C7C0000F0B583B088
:103B300007460D461646002202A941F8042D1F48EB
:103B400003F00AFC002835D1019C44B101236360D5
:103B5000002222814FF0000362F30003237234B18C
:103B60002761637A012262F3071363726561FCB116
:103B70006681134B1B689847E060124BBFF35B8F65
:103B800053E8002F013243E800210029F8D1BFF3A8
:103B90005B8F4FF02003EFF3118583F311882146EB
:103BA0000948FFF70BFE85F311880020FFF714FF8B
:103BB00003B0F0BD00F07CF90190C5E7A81100202A
:103BC0000C48002074110020801100202DE9F041E4
:103BD00082B080460E4615461F46002202A941F8D3
:103BE000042D214803F0B8FB002838D1019C44B1D2
:103BF00001236360002222814FF0000362F300037F
:103C0000237244B1C4F81080637A022262F307136E
:103C100063726661A561FCB16781144B1B689847AC
:103C2000E060134BBFF35B8F53E8002F013243E892
:103C300000210029F8D1BFF35B8F4FF02003EFF391
:103C4000118583F3118821460A48FFF7B7FD85F3F4
:103C500011880020FFF7C0FE02B0BDE8F08100F03F
:103C600027F90190C2E700BFA81100200C480020EE
:103C7000741100208011002038B51D4600F0D6F9DF
:103C800000B304464581104B1B689847E0600F4B1A
:103C9000BFF35B8F53E8002F013243E80021002976
:103CA000F8D1BFF35B8F4FF02003EFF3118583F35F
:103CB000118821460648FFF781FD85F31188002011
:103CC000FFF78AFE38BD00BF0C48002074110020A9
:103CD00080110020054B984204D37833984203D9D1
:103CE00000207047002070470120704764130020B7
:103CF00000B583B004380190BFF35B8F50E8003FFC
:103D00005A1E40E800210029F8D1BFF35B8F012B38
:103D100002D003B05DF804FB01A9024803F046FBA2
:103D2000F7E700BF88110020012902D94369023951
:103D300006E0043100EB81018868704707391B6891
:103D40000629FBD803EB81014868704710B582B0A3
:103D5000019005E01C6801A9044803F027FB0194C9
:103D6000019B002BF6D102B010BD00BFA8110020AE
:103D70002DE9F0410D4614464669032A06D908226A
:103D8000183001F0BEFC023C083515E092001430FA
:103D900001F0B7FC00240FE0A046072C28BF4FF02D
:103DA00007084FEA88073A462946301D01F0A9FC6A
:103DB000A4EB08043D443668002CEDD1BDE8F08149
:103DC0002DE9F8431C469DF820900389C3F3CC03EA
:103DD000A3421FD98846116821448B4201D2191B86
:103DE000116016680C2B19D900F1180E47690823C9
:103DF000A3421ED9B34228BF33461D46B9F1000F76
:103E000010D01A4641460EEB040001F07AFC761BF6
:103E1000A84421E000231360BDE8F88300F1140EEC
:103E20000027E5E71A460EEB0401404601F069FC65
:103E3000EDE7E41A1FB9476901E03F681C3C1B2C01
:103E4000FBD809E039192A460431404601F059FCF3
:103E50003F68761BA844002476B1C4F11C05B54226
:103E600028BF3546B9F1000FECD038192A46414633
:103E7000043001F046FCEBE7BDE8F88308B52023E9
:103E80001A460249024803F05BFA08BD00140020FC
:103E9000A81100200430BFF35B8F50E8003F0133CE
:103EA00040E80032002AF8D1BFF35B8F7047000072
:103EB00010B582B0002301930120FFF78DFD044669
:103EC000002201A9044803F047FA08B1002CF3D1FD
:103ED000019802B010BD00BFA8110020407A00096F
:103EE000704708B5437A1B098B4209D9032B02DDC1
:103EF000FFF71AFF08BD043100EB8100406808BDE0
:103F0000002008BD70B582B00190457A037A13F0A5
:103F1000010F01D12D09D5B9019B1A7A12F0020FB8
:103F200017D101A90D4803F041FA02B070BD013468
:103F3000A542F1D921460198FFF7D3FF0646FFF7C6
:103F4000C9FE0028F3D03046FFF7D2FEEFE7002489
:103F5000EEE75869FFF7FAFEE3E700BFA81100207B
:103F600008B5031DBFF35B8F53E8002F013A43E808
:103F700000210029F8D1BFF35B8F436803B108BD6E
:103F8000FFF7C0FFFBE7000070B582B004460022D7
:103F900002A941F8042D234803F0DEF9D8B9019EA7
:103FA00046B101237360002232814FF0000362F3B7
:103FB0000003337286B3032C30D9737A6FF307137F
:103FC0007372337A43F002033372023C06F1140534
:103FD000002373610AE0FFF76BFF0190DFE7019BAD
:103FE0009BB12B6000221A601D46073C002C11DD9E
:103FF000002202A941F8042D0A4803F0ADF9002877
:10400000EDD0FFF755FF0190E9E73046FFF77AFF63
:10401000002004E0304602E0304600E0304602B0C6
:1040200070BD00BFA811002000697047F8B50746B1
:104030000E4615461046FFF7A7FF044640B107613C
:10404000437A65F3071343722A463146FFF790FE21
:104050002046F8BD10B582B000240094FFF7B0FEF2
:1040600002B010BDF8B507460D4614461E4632464E
:1040700021462846B8470544241AF8D1F8BD000067
:104080000EB400B582B003AB53F8042B0193014684
:10409000034801F063FE02B05DF804EB03B0704723
:1040A00053460000F0B585B00D46C16812F0440FCC
:1040B00005D01C4B186840B9002005B0F0BD0A4679
:1040C00019492846FFF7DCFFF7E7184B1C68B1FBDE
:1040D000F4F4B4FBF0F1164AA2FB0132D20A4FF419
:1040E000616606FB1216134BA3FB06735B0900FB0C
:1040F00011414FF47A7404FB01F1B1FBF0F707FBB7
:10410000101104FB01F1B1FBF0F002900197C3EB39
:1041100003108100711A009107492846FFF7B0FF8C
:10412000CBE700BFC4110020C8820000C8110020E6
:10413000C5B3A29189888888D482000072B1827A3E
:1041400002F00702064850F822203AB108B503B938
:10415000044A08460449FFF793FF08BD704700BFB3
:1041600024820000188200002082000008B501238C
:10417000FFF7E4FF08BD08B50023FFF7DFFF08BD28
:1041800011F0100F0BD108B511F0200F03D1044925
:10419000FFF776FF08BD0349FFF772FF08BD7047C0
:1041A00064820000E886000038B5037A03F0050356
:1041B000052B09D015460C4602F00102FFF7DBFF84
:1041C00029462046FFF7DCFF38BD00002DE9F84303
:1041D0000E469946837AC3F3C2084589C5F389150B
:1041E00003F0070452B90027B9F1000F0FD01023D4
:1041F000234113F0010F17D10C4C09E00C4B53F87D
:1042000024200C493046FFF73BFF0746ECE7074CFC
:1042100029464046FFF734FB024621463046FFF769
:104220002FFF3844BDE8F883034CF1E750820000CB
:1042300094820000588200004C8200002DE9F8436F
:10424000047A04F00504052C1CD01F460D460446D4
:1042500002F00109C2F3C00812F0020F0ED10026CD
:104260004A4629462046FFF781FF3B4642462946FB
:104270002046FFF7ABFF3044BDE8F883FFF712FF9D
:104280000646EDE70020BDE8F8832DE9F0478EB043
:104290000EAF06468946FFF7C7FE82463046FFF757
:1042A0001DFE804683000E3323F00703ADEB030DA4
:1042B0000EAD002406E021463046FFF712FE45F819
:1042C00024000134A045F6D83046FFF707FE0F283A
:1042D00015D8DFE810F0100017001D0024002D0095
:1042E000380045005400650078008D00A400BD0032
:1042F000D800F500140151464846FFF7C1FEBD46FF
:10430000BDE8F0872A6851464846FFF7B9FEF6E750
:104310006B682A6851464846FFF7B2FEEFE76B68C4
:104320002A68A968009151464846FFF7A9FEE6E7CA
:104330006B682A68E9680191A9680091514648466E
:10434000FFF79EFEDBE76B682A6829690291E9683E
:104350000191A968009151464846FFF791FECEE7CA
:104360006B682A686969039129690291E96801917A
:10437000A968009151464846FFF782FEBFE76B6887
:104380002A68A96904916969039129690291E96818
:104390000191A968009151464846FFF771FEAEE7CA
:1043A0006B682A68E9690591A969049169690391B3
:1043B00029690291E9680191A9680091514648462E
:1043C000FFF75EFE9BE76B682A68296A0691E96938
:1043D0000591A96904916969039129690291E968C4
:1043E0000191A968009151464846FFF749FE86E7CA
:1043F0006B682A68696A0791296A0691E9690591DB
:10440000A96904916969039129690291E968019197
:10441000A968009151464846FFF732FE6FE76B6886
:104420002A68A96A0891696A0791296A0691E96967
:104430000591A96904916969039129690291E96863
:104440000191A968009151464846FFF719FE56E7C9
:104450006B682A68E96A0991A96A0891696A0791F3
:10446000296A0691E9690591A9690491696903912D
:1044700029690291E9680191A9680091514648466D
:10448000FFF7FEFD3BE76B682A68296B0A91E96A32
:104490000991A96A0891696A0791296A0691E969EF
:1044A0000591A96904916969039129690291E968F3
:1044B0000191A968009151464846FFF7E1FD1EE7CA
:1044C0006B682A68696B0B91296B0A91E96A0991FB
:1044D000A96A0891696A0791296A0691E9690591B3
:1044E000A96904916969039129690291E9680191B7
:1044F000A968009151464846FFF7C2FDFFE66B6888
:104500002A68A96B0C91696B0B91296B0A91E96A76
:104510000991A96A0891696A0791296A0691E9696E
:104520000591A96904916969039129690291E96872
:104530000191A968009151464846FFF7A1FDDEE6CA
:1045400070B584B00D46164604AA082142F80C1D29
:104550006944FFF77FFD019B13B9019804B070BD5A
:1045600008992846FFF70CFE002404E01D49284660
:10457000FFF786FD0134B442F8DB002404E01A4959
:104580002846FFF77DFD0134072C0BDC019B9C4284
:10459000F5D204AB234413F8082C14492846FFF73E
:1045A0006FFDF0E712492846FFF76AFD002404E09A
:1045B00010492846FFF764FD0134072CCDDC019B30
:1045C0009C4209D204AB234413F8082CA2F1200327
:1045D0005E2BEDD92E22EBE702492846FFF750FD6E
:1045E000EAE700BF5C8200004082000038820000E1
:1045F00044820000488200002DE9F04182B08046EC
:104600000D4617461E46FFF70FFD0246094928468C
:10461000FFF736FD0024009623463A4629464046D9
:10462000FFF78EFF072801D90444F4E702B0BDE884
:10463000F08100BF2082000010B504464268536834
:10464000126881680068FFF70DFD636800221A6038
:1046500010BD08B58A684B681B68D0544A68136857
:10466000013313604B681A68CB689A4201D000206E
:1046700008BD0846FFF7E0FFF9E70000F0B583B09A
:1046800006460C4600273D4605E02046FFF7D4FFCE
:10469000019B1D44BBB1E36802AA42F8043D2B46CE
:1046A000A1683046FFF7D6FC6368019A1A60019B47
:1046B000002BEAD0A268134413F8017C0A2F14BF20
:1046C00000270127E1E70FB903B0F0BD02492046FA
:1046D000FFF7D6FCF8E700BF9082000070B50546F2
:1046E0000C4616460B7A83F0010303F001030146E2
:1046F0002046FFF7A3FD237A13F0010F12D003F039
:104700000503052B13D03346024629462046FFF702
:1047100073FF324629462046FFF746FD2846FFF73D
:104720008BFF70BD29462046FFF7AFFDF1E7294614
:104730002046FFF7A3FFECE770B582B0046843683A
:104740005D6842F20F738B4228BF0B460C4A05216D
:10475000684601F0B9FD06462B460B220949204662
:10476000FFF780FC2B46324669462046FFF77AFC6D
:104770002B461B2204492046FFF774FC02B070BD93
:104780006082000084820000688200000122074BE2
:104790001A6004E04008054A13685B001360044B8C
:1047A0009842F7D8034B1860704700BFC81100202B
:1047B00040420F00C4110020F8B507460E461546CA
:1047C000002405E06B685B68395D28469847013432
:1047D000B442F7D33046F8BD7047000008B503482F
:1047E00002F008FD024B586008BD00BF00830000C6
:1047F000D811002008B50248FFF79EFF08BD00BF92
:104800000883000010B50C460846FFF743FB0F2253
:1048100021460348FFF762FF2046FFF7A1FB10BDCA
:104820000883000010B404460023094A126893422A
:104830000ADA03EB43018A000649096888188A5C92
:10484000A24202D00133F0E7002010BC704700BF45
:10485000648300001048002000684B6898420FD322
:1048600010B48C68234498420DD208694B69984271
:104870000ED36FF00B038B6100231370012005E052
:1048800001201070704700231370012010BC704786
:104890000020FBE770B582B006460C46CD680DF1EE
:1048A0000702FFF7D9FF80B92269336861685B1A94
:1048B00045F83230236905EBC30573686B602369E3
:1048C00001332361012002B070BD9DF80700FAE7B3
:1048D00000232BB1404080F311884FF0050002DF28
:1048E000054A12F83320824201D00133F1E7034A2E
:1048F00052F82300704700BF2C830000E411002011
:10490000F8B50D4617461E46069C2060FFF78AFF45
:10491000B0B1426862608268A260E76000222261F2
:1049200029686161A2614078FFF7D2FF22463146D3
:1049300002F0CAF9A3690BB923692B60A069F8BD1D
:104940006FF01500F8BD000010B500240CB1002078
:1049500010BD044802F04EFC034B43F82400013420
:10496000F4E700BF507C0000E4110020084B1B68F6
:104970003BB110B50C46FFF755FF28B12060002071
:1049800010BD6FF00C0070476FF0010010BD00BF4C
:10499000104800207047000000B58BB003AB0093B7
:1049A000024BFFF7ADFF0BB05DF804FB954800002C
:1049B000F8B584688C4204D35D18AC4212D200244E
:1049C00000E0002484B11E4617460D460446407898
:1049D000FFF77EFF616843681C6833463A46294406
:1049E000A047F8BD0124EDE74FF0FF30F8BD2DE9F9
:1049F000F84384688C4204D35D18AC4214D200247E
:104A000000E000240CB31F4691460D460446407852
:104A1000FFF75EFF06464368DB6800219847804643
:104A200020B14046BDE8F8830124EBE76168736874
:104A30005C683B464A4629443046A0478046736836
:104A4000DB68012130469847EBE74FF0FF38E8E795
:104A50002DE9F04183688B4204D35418A34213D24A
:104A6000002300E00023FBB117460D4604464078C2
:104A7000FFF72EFF06464368DB6800219847804613
:104A800020B14046BDE8F0810123ECE7616873681E
:104A90009B683A4629443046984780467368DB68ED
:104AA000012130469847ECE74FF0FF38E9E708B5B9
:104AB0004078FFF70DFF4368187D08BD10B5044628
:104AC0000A2807D0074B186843685B68E1B298472B
:104AD000204610BD034B186843685B680D2198475A
:104AE000F0E700BFE811002008B50248FEF7B2FB6E
:104AF00008BD00BFBD4A000008B5044802F07AFBBB
:104B0000034B1860FFF7F0FF002008BD0083000092
:104B1000E81100204FF02003EFF3118183F3118897
:104B2000124B1A788AB1531EDBB2104803708BB94E
:104B30000F4B1B789BB90E4B01221A7081F3118821
:104B40000C490A6000201870704781F311886FF0DB
:104B50004400704781F311886FF00F007047034BDA
:104B60001A7081F311886FF00A007047EE1100206F
:104B7000ED1100200400004008B50022012110467C
:104B800000F078FC002000F051FC002008BD00007F
:104B900010B54FF02003EFF3118483F311882D4AF1
:104BA0001378581C107063B184F311884FF0804360
:104BB000D3F80C3403F00113B3F1011F47D10020E7
:104BC00010BD254A1278A2B90122234B1A7084F332
:104BD0001188A1B3002000F039FC4FF0804300227F
:104BE000C3F80021D3F804130122C3F804231A6088
:104BF00009E0184A137084F311886FF00A0010BDA1
:104C000020BF40BF20BF4FF08043D3F80031002BBE
:104C1000F6D000224FF08043C3F8002111F0010FBD
:104C200002D10122C3F8082301220C4BC3F88021D2
:104C3000002000F0FBFB0022074B1A70B6E74FF094
:104C400080430022C3F8002101221A60F3E76FF0CD
:104C5000430010BDEE110020ED11002000E100E046
:104C60002DE9F04180464FF08043D3F80801D3F896
:104C7000042302F00102D3F80011D3F8046306F014
:104C80000206D3F80451D3F80C71D3F81041003464
:104C900018BF012410B10020C3F8080121B1002081
:104CA0004FF08043C3F8000192B141B94FF0804307
:104CB000D3F80C3403F00113B3F1011F08D14FF006
:104CC00080430122C3F8082302201B4908601A61AF
:104CD00075B100224FF08043C3F8042146B102228F
:104CE000C3F80823D3F81C3413F0030F00D10124B8
:104CF00017B974B9BDE8F08100210F4B19604FF06E
:104D00008046C6F80C114046FFF704FF012373618B
:104D1000EFE74FF080430021C3F810110122C3F8E0
:104D200004234046FFF734FF0028E3D10122034B60
:104D3000C3F80021DEE700BF340C004000E100E0D2
:104D400038B54FF02002EFF3118382F31188284A1F
:104D500012787AB183F311884FF08042D2F81C3474
:104D600003F0030343F48033D2F8182493433BD178
:104D7000002038BD01241E4A147083F311884FF0BF
:104D800080430022C3F80421C3F818150225C3F894
:104D90000453184D2C601824C3F80843C3F80C21A1
:104DA000C3F8102111F0030FD6D11022C3F8382513
:104DB000C3F80443D3F8183413F4803F05D102221A
:104DC0004FF08043C3F80423C6E701224FF080432D
:104DD000C3F804230021FFF7DBFE0028BCD1012229
:104DE000054BC3F80021B7E76FF0430038BD00BFA3
:104DF000EC1100200800004000E100E07047401A7C
:104E000020F07F407047000020F07F40014BC3F846
:104E10004005704700100140014BD3F8040570476E
:104E20000010014070B50022104BC3F840214FF034
:104E30002003EFF3118683F31188FFF7EDFF0C4C8D
:104E400025682946FFF7DBFF0A4BA3FB0023C01AA6
:104E500003EB5000000A40F2471303FB00552560A6
:104E600086F3118802F04AFD70BD00BF00100140BA
:104E7000F011002021F1D49030B583B01D4802F02C
:104E8000B9F9002833D042681268012190471A4DC1
:104E90000024C5F8084540F24713C5F840354FF4E3
:104EA0008033C5F84433C5F8043303F1804303F578
:104EB0008A531C601B680193019B4FF400320F4B17
:104EC000C3F8802122460121112000F0D3FA1120DD
:104ED00000F0ACFA01230A4A13602B60FFF79CFF35
:104EE00000F24710FFF790FF204603B030BD4FF0AF
:104EF000FF30FAE7808300000010014000E100E08D
:104F0000081001402DE9F041B0F1FF3F34D00138E5
:104F1000002834DD4CF669048442A8BF04464FF0F3
:104F20002003EFF3118583F31188FFF775FF064621
:104F300040F2471707FB04F4124BD3F800804146B8
:104F4000FFF75DFF204400F5A3730F4CA4FB03247F
:104F50001B1B04EB5304240A07FB04843146204640
:104F6000FFF74DFF1F2800D83C442046FFF74CFFB9
:104F700085F31188BDE8F0814CF66900C7E700248D
:104F8000CDE700BFF011002021F1D49010B54FF013
:104F90002003EFF3118483F31188FFF73DFF074BE4
:104FA0001968FFF72CFF064BA3FB0023C01A03EB85
:104FB0005000000A84F3118810BD00BFF0110020DA
:104FC00021F1D49038B54FF02003EFF3118583F32E
:104FD0001188FFF721FF044B1C682146FFF70FFFE4
:104FE000204485F3118838BDF0110020704700BFC0
:104FF00000220AE053B2002B0ADB03F1604303F501
:105000006143202183F8001301322F2AF2DD70471B
:1050100002F00F01024B0B4420211976F4E700BF88
:10502000FCEC00E0084A93685866084909689966EC
:1050300007494B6843F080534B60002383F311888A
:105040009368986E704700BF2413002054880000B6
:1050500000ED00E0202080F311880D498A682820A7
:105060001044EFF3098C80E8F01F0A4F4FF0006600
:10507000CA698A603E60506E0023536680F31188CF
:1050800002F1280090E8F01F8CF3098870470000B7
:105090002413002004ED00E01EF0040F0CBFEFF31A
:1050A0000880EFF30980816931F8021C11F0FF01DB
:1050B0000229FFD000B500F04FFA00BD0020704774
:1050C00038B504460D462348FEF710FA224B9B6A7A
:1050D00013F0100F19D1204B9B6A13F0080F18D151
:1050E0001D4B9B6A13F0020F17D11B4B9B6A13F0E9
:1050F000010F26D1184B9B6A13F0200F25D12046B3
:10510000FFF7DCFF00B1062038BD1448FEF7EEF9CA
:10511000E1E71348FEF7EAF9E2E71248FEF7E6F99D
:105120000D4B596B9B6A13F0800FDED00E48FEF7D3
:10513000DDF9002DD9D0084A936A23F080039362E9
:10514000D3E70A48FEF7D2F9D4E70948FEF7CEF9CB
:10515000D5E700BFBC84000000ED00E0D48400006F
:10516000E8840000FC840000188500003085000001
:105170005085000038B504460D462C48FEF7B6F9B8
:105180002B4B9B6A13F4805F1CD1294B9B6A13F451
:10519000006F22D1264B9B6A13F4007F21D1244B50
:1051A0009B6A13F4806F39D1214B9B6A13F4807F83
:1051B00038D11F4B9B6A13F4005F06D01D48FEF7E1
:1051C00095F902E01C48FEF791F92046FFF776FFBB
:1051D000034600B10623184638BD1848FEF786F985
:1051E000F3E71748FEF782F9114B996B9B6A13F4AA
:1051F000004F08D10E4B9B6A13F4806FE5D0114825
:10520000FEF774F9E1E71048FEF770F9002DF1D0D0
:10521000074A936A23F400439362EBE70948FEF7D9
:1052200065F9D2E70948FEF761F9CEE7A4830000EB
:1052300000ED00E050850000D4840000E884000008
:10524000BC830000F0830000D88300000C840000C1
:1052500008B52148FEF74AF9204B9B6A13F0007FFE
:1052600021D11E4B9B6A13F0807F20D11B4B9B6A80
:1052700013F4002F1FD1194B9B6A13F4802F1ED1FA
:10528000164B9B6A13F4003F1DD1144B9B6A13F419
:10529000803F1CD1114A936A6FEA03436FEA1343BC
:1052A0009362002008BD0E48FEF720F9D9E70D48AB
:1052B000FEF71CF9DAE70C48FEF718F9DBE70B48B4
:1052C000FEF714F9DCE70A48FEF710F9DDE70948B4
:1052D000FEF70CF9DEE700BFC885000000ED00E036
:1052E000E4850000F8850000148600003486000084
:1052F0005C8600007886000010B504461848FEF76A
:10530000F5F8184BDB6A13F0020F06D1154BDB6A78
:1053100013F0804F06D1002010BD1348FEF7E6F8C9
:10532000002010BD1148FEF7E1F8114B1B7843B97E
:10533000104B1B7853B9104B1B889BB25BB90020F4
:1053400010BD01212046FFF7BBFE10BD0121204604
:10535000FFF710FF10BD2046FFF77AFF10BD00BF1A
:105360006084000000ED00E0788400009C84000070
:1053700028ED00E029ED00E02AED00E008B5024844
:10538000FEF7B4F808BD00BF2884000008B50A463F
:105390000F2905DD0349103A0348FEF7A7F808BDB9
:1053A0000249F8E798850000B48500008085000078
:1053B00008B5CB1E092B18D8DFE803F005080C1040
:1053C000171717171713FFF797FF08BD0021FFF7EF
:1053D00077FE08BD0021FFF7CDFE08BDFFF738FFBF
:1053E00008BDFFF7CBFF002008BDFFF7CFFF00206F
:1053F00008BD000038B50546074B5C68C4F30804D7
:10540000FEF76AFB21462846FFF7D2FF062802D0A6
:10541000294600F069F838BD00ED00E0024A536902
:1054200043F010035361704700ED00E043B2002BDE
:1054300008DB5B0900F01F00012202FA00F0024ABB
:1054400042F82300704700BF00E100E043B2002BA8
:105450000DDB5B0900F01F00012202FA00F020338F
:10546000034A42F82300BFF34F8FBFF36F8F70479B
:1054700000E100E0013143B2002B08DB4901C9B271
:1054800003F1604303F5614383F80013704700F0B4
:105490000F004901C9B2014B1954704714ED00E0E7
:1054A00008B500F00DF808BD014910220A607047E8
:1054B00010ED00E0404080F3118830BF704700BF1E
:1054C000404080F31188DFF81CC0DCF800C01CF4F9
:1054D000006C0CBFEFF30880EFF3098000B5FFF715
:1054E00089FF00BD04ED00E038B504460D46FEF727
:1054F000F3FA052C1FD8DFE804F0031E1E12161A5B
:105500000F48FDF7F3FF02F025F9AA6901460D489F
:10551000FDF7ECFF2946204600F024F838BD0A4884
:10552000FDF7E4FFEFE70948FDF7E0FFEBE7084888
:10553000FDF7DCFFE7E721460648FDF7D7FFE2E786
:10554000A486000048870000C4860000EC860000A6
:10555000088700002487000008B501460068FFF7AF
:10556000C3FF08BD08B5FFF7A5FFFCE700B5EFF3E3
:105570000580A0F110004FEAC0000449014409C9A8
:1055800098475DF804EB024800470000E47900000A
:10559000ED4F0000202080F3118806484FF4006191
:1055A000401880F30988022080F31488BFF36F8FBE
:1055B00000F006F80040002030BFFFF7FDBF00BF3D
:1055C00008B5084A084B23F07F039360BFF34F8F61
:1055D000BFF36F8F01F038FE01F042FEFFF708FDC8
:1055E00001F062FE00ED00E00000000008B5FFF7EA
:1055F000E3FFFFF7FBFC08BD064B98600A6822F04A
:105600001F02104340F01000D8608A6842F0010287
:105610001A61704790ED00E00522034B5A60BFF31A
:105620004F8FBFF36F8F704790ED00E0BFF35F8F38
:105630000022014B5A60704790ED00E038B50D4BE9
:105640001D68082D13D8FFF7F1FF002409E0094B6E
:10565000596804EB4402930019442046FFF7CCFF3D
:105660000134AC42F3D3FFF7D7FF002038BD4FF031
:10567000FF3038BDE8810000C9B200E00130037896
:10568000994201D0002BF9D1994200D170470020F6
:10569000FCE701E00130013103780A78934201D13F
:1056A000002BF7D1981A70477AB1531E0FD010B45F
:1056B00004780A78944203D101300131013BF7D1DB
:1056C00000780B78C01A10BC704700207047007833
:1056D0000B78C01A7047431A93420ED303467AB12F
:1056E00010B411F8014B03F8014B013A002AF8D12C
:1056F00010BC7047013A8B5C8354002AFAD1704782
:10570000704710B480EA010313F0030F01D0034681
:1057100017E0034613F0030F0BD0A2B10C781C70F6
:10572000013A01310133F5E70C681C60043A043199
:105730000433032AF8D804E00C781C70013A0131D4
:105740000133002AF8D110BC704710B4CCB2034624
:1057500013F0030F04D0A2B11C70013A0133F7E734
:10576000C9B241EA012141EA014102E01960043A6B
:105770000433032AFAD802E01C70013A0133002AEC
:10578000FAD110BC704700E0013003783BB1A3F1BF
:105790006102D2B2192AF7D8203B0370F4E77047B0
:1057A000034602E0302008700131C81A9042F9DB4C
:1057B000002201F801298B420AD210B40A781C7821
:1057C00001F8014903F8012B8B42F7D310BC704755
:1057D0007047F8B5064605E0002464443034347060
:1057E000764665B1B1FBF2F502FB1517294606F1C5
:1057F000010E5FFA87FC092FEEDD2724EDE71A463C
:105800007146FFF7CDFFF8BD70B5054682B104467D
:10581000302204F8022B7822427010222046FFF733
:10582000D8FF0646049B582B04D0601B304470BD43
:105830000446F2E72846FFF7A6FFF6E738B572B14F
:10584000451C3022027031B12C1A08222846FFF77D
:10585000C0FF204438BD00234370012038BD0546F9
:10586000F2E708B513460A22FFF7B3FF08BD38B5C3
:105870000546002905DB62B9ABB1441C2023037047
:105880000AE0441C2D230370B1F1004F04D04942BB
:1058900002E0441C2B230370049A2046FFF7E1FF2B
:1058A0002044401B38BD0446F6E730B4D0E900235D
:1058B00002F0010400255B084FEA320212196B4125
:1058C000C0E9002330BC70472DE9F043D0E9006700
:1058D000023647F100074FF000084FF000090021A1
:1058E0002FE01B4B5A5CC2F1200CA2F1200E26FACD
:1058F00002F307FA0CFC43EA0C0327FA0EFE43EA14
:105900000E03DFF850E0AEFB03E39B08A2F1200C8E
:10591000C2F1200E03FA0CF523FA0EFE45EA0E053D
:1059200003FA02F44FEA850EA2004EEA94731219AC
:105930006B41B61A67EB030718EB040849EB05093E
:1059400001310229CDD9C0E90089BDE8F08300BF4B
:1059500098870000CDCCCCCC0B68002B15DD30B483
:10596000013B0B60D0E90045A900A20041EA947315
:1059700012196B4192185B41190F303123F07043BB
:10598000C0E90023C8B230BC70473021C8B27047AC
:105990002DE9F04F8BB096461946C3F30A5ACB0255
:1059A00043EA5E534FEACE22934623F0004CCDE902
:1059B00006BCCDF800E0019140F2FF739A4522D079
:1059C000149B462B57D04BEA0A024CEAEA73134366
:1059D00054D0AAF2FE3A5A464CF00043CDE90623D1
:1059E00001232BB1DDE90023002A73F1000347DB1B
:1059F000169B002B49D0431C00932B23037003906C
:105A00004FF0000B73E0DDE90034002B74F100036C
:105A100013DB0146DDE9062313431AD1149B413BF6
:105A2000192B0ED849230B704E234B70CD1C4623E7
:105A30008B7000232B70281A48E1411C2D23037022
:105A4000E8E769230B706E234B70CD1C66238B70C7
:105A5000EFE7149B413B192B06D84E230B704122D4
:105A60004A70CD1C8B70E4E76E230B7061224A7084
:105A7000CD1C8B70DDE766231493A4E70023B0E709
:105A8000431C00932D230370B9E7179B23B1431CDC
:105A9000009320230370B2E70090B0E706A8FFF759
:105AA00004FF0AF1010ADDE906230025002D08BFE5
:105AB000B3F1333FF2D24FEA830E90004EEA927177
:105AC00012184B41CDE906230AF1010A0BF1FF3B05
:105AD00005E092185B41CDE906230AF1FF3ADDE9C2
