:10100000205E0020BD6400008F9E0000656300002C
:1010100065630000656300006563000065630000B0
:10102000656300006563000065630000A55F000064
:1010300065630000656300004D5F0000D19D000006
:1010400095640000956400009564000095640000BC
:1010500095640000956400009564000095640000AC
:10106000956400009564000095640000956400009C
:10107000956400009564000095640000956400008C
:10108000956400009564000095640000956400007C
:10109000956400009564000095640000956400006C
:1010A000956400009564000095640000956400005C
:1010B000956400009564000095640000956400004C
:1010C000956400009564000095640000956400003C
:1010D000956400009564000095640000956400002C
:1010E000956400009564000095640000956400001C
:1010F000956400009564000095640000956400000C
:101100007BB972B90029BEBF00204FF0004106E054
:1011100008BF00281CBF6FF000414FF0FF3000F007
:1011200057B8ADF1080C6DE904CE002909DB002B9E
:101130001ADB00F04FF8DDF804E0DDE9022304B02B
:101140007047404261EB4101002B1BDB00F042F88D
:10115000DDF804E0DDE9022304B0404261EB410127
:10116000524263EB43037047524263EB430300F088
:1011700031F8DDF804E0DDE9022304B0404261EB20
:1011800041017047524263EB430300F023F8DDF85E
:1011900004E0DDE9022304B0524263EB43037047ED
:1011A00053B94AB9002908BF00281CBF4FF0FF31CE
:1011B0004FF0FF3000F00CB8ADF1080C6DE904CE33
:1011C00000F008F8DDF804E0DDE9022304B0704720
:1011D000704700BF2DE9F04F099F154604468E4623
:1011E0001E46002B40F0CC808A42B2FA82FC4CD9D9
:1011F000BCF1000F0BD0CCF1200801FA0CFE20FA54
:1012000008F802FA0CF548EA0E0E00FA0CF44FEA60
:1012100015491FFA85F8BEFBF9FA210C09FB1AE300
:101220000AFB08FB41EA03439B452AD9EB180AF164
:10123000FF3004D29B4502D9AAF102002B44A3EB54
:101240000B03A4B2B3FBF9F209FB123302FB08F85B
:1012500044EA0344A04516D92C1902F1FF3303D206
:10126000A04501D9931E2C44A4EB080443EA004096
:1012700027B124FA0CF400233C607B603146BDE8C2
:10128000F08F5046DBE71346EEE702B9FFDEBCF114
:10129000000F2ED18B1A01264FEA154EAAB2B3FBCE
:1012A000FEF8210C0EFB183308FB02F941EA034358
:1012B000994561D9EB1808F1FF3004D2994502D95C
:1012C000A8F102002B44A3EB0903A4B2B3FBFEF187
:1012D0000EFB11334A4344EA0344A2424ED92C196F
:1012E00001F1FF3303D2A24201D98B1E2C44A41A70
:1012F000BCE7CCF1200E02FA0CF521FA0EF901FA46
:101300000CF320FA0EFE4EEA03034FEA154800FAEA
:101310000CF4B9FBF8F11FFA85FE08FB1192180CCA
:1013200001FB0EF640EA0242964221D9AA1801F1C9
:10133000FF3003D2964201D9881E2A44921B9BB2E9
:10134000B2FBF8F908FB192209FB0EFE43EA02433F
:101350009E450FD9EB1809F1FF3604D29E4502D9FC
:10136000A9F102062B44A3EB0E0346EA004693E7DD
:101370000846E3E74E46F6E74046A4E70B46B6E7E5
:101380008B4205D90FB1C7E900010026304675E749
:10139000B3FA83FCBCF1000F0FD18B4201D3824220
:1013A00009D8841A61EB030E0120002F6AD0C7E927
:1013B000004E002662E76046F7E7CCF1200E03FA04
:1013C0000CF322FA0EF521FA0EF41D4301FA0CF388
:1013D00020FA0EF10B434FEA154A00FA0CF6B4FB63
:1013E000FAF91FFA85F80AFB19401C0C09FB08F1F1
:1013F00044EA0044A14202FA0CF23FD92C1909F147
:10140000FF3004D2A14202D9A9F102002C44641A8F
:101410009BB2B4FBFAF90AFB194409FB08F843EA4A
:10142000044188452CD9691809F1FF3304D2884555
:1014300002D9A9F10203294443EA0040A1EB0801C3
:10144000A0FB02894945C2464C4602D306D1464517
:1014500004D2B8EB020A69EB0504013897B1B6EB88
:101460000A0361EB040606FA0EFE23FA0CF34EEAB9
:10147000030326FA0CF6C7E900369AE74846C6E7A2
:101480004B46D9E73E46F9E670B586B006F001FD59
:101490001F4800F043F800B9FEE71E4805F0EEFCD7
:1014A000436804461D6806224FF480730021A84754
:1014B000636806229D68002101AB2046A847019B76
:1014C00023B904F05DF9144804F0CEFC03A800F041
:1014D00003FB00B1FEE702A99DF8100006F0BCFC7A
:1014E000029B059C1C44039B1D8966194FF020023A
:1014F000EFF3118382F31188BFF36F8F08F069FC5B
:1015000002F0D6FD635983F3088873689847FEE7B5
:10151000CCB60000DFB60000C0B2000010B5044C2D
:10152000236813B905F0AAFC2060206810BD00BF35
:101530000800002002289ABF024B53F820006FF0E9
:1015400015007047C8B200001FB5074B0C4601AA32
:101550000146186808F099FE18B9019B2360029BA8
:10156000636004B010BD00BF080000202DE9F84FF3
:101570000A9EDFF84CB00746884691469A460024FA
:10158000B44201D300200EE0351BB5F5806F28BFB3
:101590004FF480652B460A4A04EB0901384608F0EF
:1015A00065FB10B10120BDE8F88F2B465A4604EBCD
:1015B0000A01404608F077FB0028F3D12C44DFE70E
:1015C0009E28002037B505460020FFF7B3FF01A98C
:1015D000C0B202F0A3FF014628BB2023144A0198A1
:1015E00008F044FB041C18BF0124019808F03DFBDF
:1015F000B4B90120FFF79EFF01A9C0B202F08EFF2F
:1016000098B9214620230B4A019808F02FFB041CAF
:1016100018BF0124019808F028FB002C18BF2C46A5
:10162000204603B030BD0124DFE70124F2E700BF0C
:101630000C00002038000020F0B587B00546FFF709
:1016400079FF04A9C0B202F069FF002844D12846FE
:10165000FFF770FF214E2C2405A9C0B204FB0564DE
:1016600002F05CFF48B12C226A43B3181B6913F0E7
:10167000100312D04FF0FF3428E0059806F0F2FB7B
:101680000746059808F0F1FA631EE21C9A42F1D071
:1016900013F8011FB942F9D0E5E7B158104A914259
:1016A00007D0002DE6D004980021826808F024FBC2
:1016B000E0E7CDE90133009320464FF48073094AF7
:1016C000049900F071FC04460028EAD1049808F05F
:1016D000CCFA204607B0F0BD0124FAE70C00002048
:1016E0003DB8F3969E2C00202DE9F8430378012B9A
:1016F000074622D0022B22D10124124B2C2202FBBE
:10170000043493F86400A56A06F02AFC013D814682
:101710000026636A03EBC50253F83510D2F8048043
:101720001B684246C91A3846464408F0E5FAB145F6
:1017300005F1FF35EDD8BDE8F8830024DDE7012091
:10174000F9E700BF0C00002073B5184C8025626AD1
:10175000019501A9012002F0F5FE40B9019B226D1F
:10176000A36201A90220019502F0ECFE08B1012557
:1017700018E0019BE26D019501A90420636502F068
:10178000E1FE05460028F2D1019B206A236608F09D
:10179000D9FA0646A06D08F0D5FAB04238BF3046F7
:1017A00084F86400284602B070BD00BF0C00002021
:1017B0002DE9F041224B82B01E68F31D23F0070390
:1017C00000AFADEB030D4379002B054607F1040193
:1017D00014BF0420012002F0A1FE70BB786806F05F
:1017E000D2FB29682C79174B013901EB4101013CEF
:1017F0000C4493F8641001FB0404786808F0A2FA22
:101800008046786806F02EFB32460146684608F0AE
:101810009AFB2B798DF80030214643466A4678685A
:1018200008F041FA041C18BF0124786808F01DFA7A
:1018300020460837BD46BDE8F0810124F5E700BF2A
:10184000E0B200000C0000202DE9F04F04468BB000
:1018500023689D4D0020012BCDE905003AD1237965
:10186000012B37D1994E2A68B24203D106AA2946E4
:1018700006F010FBEB6AB34204D105AA944901209B
:1018800006F008FBDDE90532934288BF0693069B0C
:10189000A360686A2F6D069900231A461E4604301D
:1018A00007F1040C914201D89A4202D250F83670E6
:1018B0003A44994202D89A4240F204815CF8367068
:1018C00091423B4404D8994202D89A4200F0F580F4
:1018D0000136E7E704F1080000F0D6FAA3680693A2
:1018E000D7E7AB6D6A6A99684FF00008101D50F891
:1018F00036304344994203D3013E9846731CF6D1D7
:101900002368013B5B4500F2C680731C95F86400B8
:1019100052F833701368FF1A06F022FBAB6A6A6A4A
:10192000013B08EB070152F8333012689B1A9942C9
:1019300023688CBFA8EB000AC246012B40F0B4809C
:10194000B8EB0A0318BF0123637107A9012002F055
:10195000E5FD08A9022002F0E1FD09A9042002F03A
:10196000DDFD2379012B23D142460021099808F09F
:10197000C3F90023CDF800A03A46DDE90801FFF7DE
:10198000F5FD2368012B08D1637904F10801002BD0
:1019900000F08C80099806F0AAFA022323712046F1
:1019A000FFF706FF20B1D9F800300133C9F8003045
:1019B0002379022B1FD142463946089808F09CF93A
:1019C0003B46CDF800A03A46DDE90701FFF7CEFD22
:1019D0002368012B04D1637913B90898FFF784FEBB
:1019E000032323712046FFF7E3FE20B1D9F800302E
:1019F0000133C9F800302379032B43D142463946DD
:101A0000079808F079F93B46CDF800A00022079925
:101A10000998FFF7ABFD637933B3099806F0B3FA81
:101A200095F86430079903EB4303009302460AEBF1
:101A300007030998FFF79AFD20B1D9F80030013368
:101A4000C9F8003004A9042006F0C5FA9DF8123048
:101A5000012B02D1079806F0CDFAA168079806F08D
:101A6000CDFA079800F054FA23680133236001236C
:101A7000A3802046FFF79CFE20B1D9F80030013347
:101A8000C9F80030079808F0F0F8089808F0EDF869
:101A9000099808F0EAF80BF1010B002EBFF621AF10
:101AA00000200BB0BDE8F08F00234DE707980391AD
:101AB000FFF71AFE039907986DE74FF0000BDFF868
:101AC0001490EAE79142FFE60C0000203DB8F3963F
:101AD00038000020740000202DE9F04FAE4CAF4BD1
:101AE0006362AF4B236589B0AE4BE36506460020C9
:101AF000FFF720FD04F12001C0B202F00FFD01202C
:101B0000FFF718FD04F14C01C0B202F007FD04F12B
:101B10005801042002F002FDFFF716FE05460028DA
:101B20005BD1FFF74FFD0546002856D1D4F8288039
:101B3000B8F1800F00F25081D4F854E0BEF1800F6C
:101B400000F24A81A36DD4F850A09B68D4F8249089
:101B5000019302460146074684460346884549D814
:101B6000964547D8884540F03781964540F0348106
:101B7000BC4540F031810C22002105A808F0E3F9B2
:101B8000012004A905908DF8180006F024FA03A995
:101B9000042006F020FA844B9DF810509DF80C703C
:101BA0009DF811C0002219461878042801D08542FA
:101BB00050D15878042801D087424BD19878042816
:101BC00001D0604546D101EB8202D378012B66D06B
:101BD000002B44D0022B6AD00725A06D08F045F8F1
:101BE000E06C08F042F8206A08F03FF8284609B097
:101BF000BDE8F08FAB4216D109EBC10B0131DBF828
:101C000004B05B440AEBC20B0132DBF804B05D4464
:101C1000AB42A3D1019898429C441F44C0F0DC80A1
:101C20000020054699E70AD209EBC10B0228DBF830
:101C300004B05B4400F0D08001310120E8E70AEBFA
:101C4000C20B0128DBF804B05D4400F0C58001320E
:101C50000220DDE70132042A03F10403A4D1059B2D
:101C6000012B03D19DF81870012F63D005A8FFF751
:101C7000EBFD00F05BF9042805466ED0FF2803D089
:101C8000012814BF052503252B1F012B67D9013D12
:101C9000042D7DD8DFE805F0A08A8A8A9900042007
:101CA00004A902F03BFC054618B1012595E7012087
:101CB000F6E7DDF81090484606F065F98346484699
:101CC00006F053F9A84682462F46C24504DC3DB3D0
:101CD000002F08BF474616E094F86410012303AABA
:101CE00008FB01B1484606F0BFF8002820DB0128B8
:101CF00006D115B1002F08BF474608F10108E4E7F7
:101D0000A5B1002FF9D0013F032397FBF3F35A1C31
:101D100003EB4303FF1A013705928DF81870002575
:101D2000049807F0A2FF002D99D056E70125E4E7BB
:101D30000125F5E700F0FAF8831E022B054605D8C9
:101D40003846FFF779FC002818BF0525AB1E022B8B
:101D50009AD805A8FFF778FD96E7022594E705A92C
:101D6000012002F0DBFB98B904A9059800F042F8C5
:101D7000074670B99DF81230032B03D1059806F081
:101D800039F90746059807F070FF002F3FF47FAF41
:101D9000FEE70127F6E700BF0C00002078000020D6
:101DA0007808002078040020E6B6000005A901208C
:101DB00002F0B4FB0028EBD1059806F017F90546B0
:101DC000059807F052FF002DE2D10020FFF7FAFB43
:101DD000054600287FF401AF0020FFF72DFC0546E3
:101DE00030B9236A5A7832715B68B3603460F4E6C4
:101DF0000325F2E630B50C46816885B010236A46AB
:101E00001039054606F030F8002802DA012005B046
:101E100030BD012820D1032323702B78042B0CD054
:101E2000A9680123E2182039284606F01DF8002889
:101E3000ECDB01281AD103236370A9680123A21CDB
:101E40001839284606F010F80028DFDB012813D1E6
:101E50000323A3700020DAE710220A49684608F03D
:101E600038F8002814BF02230123D5E76378012B3B
:101E70000CBF01230223DFE7A378012B0CBF012352
:101E80000223E6E7E4B2000010B586B0044601A9DB
:101E9000012002F043FB18B10124204606B010BD1A
:101EA00001988168102302AA103907F0DFFE20B1E3
:101EB0000124019807F0D9FEEFE71022134902A888
:101EC00008F007F868B9019803788168042B1BD1E2
:101ED00020392246042307F0C9FE041C18BF012440
:101EE000E7E7019807F0C1FE01A9042002F016FB04
:101EF0000028D1D101988168102302AA103907F077
:101F0000B5FE0028DFD0D3E72839E2E7E4B20000CD
:101F10008168054A08B51039102307F0C4FE003067
:101F200018BF012008BD00BFE4B20000F7B50120D2
:101F3000694606F03CF890BB01A9022006F037F88C
:101F400068BB9DF800109DF804409DF802509DF874
:101F500006609DF80170134B1A78042A01D08A425A
:101F600016D15A78042A01D0A24211D19A78042AB3
:101F700001D0AA420CD1DA78042A01D0B24207D1AA
:101F80001A79042A02D1587903B0F0BDBA42FAD0C6
:101F90000130032803F10603DED10120F4E7FF201E
:101FA000F2E700BFF6B600002DE9F04FF3B0DDE92F
:101FB0007C45074632A8884692469B467E9E00F0A6
:101FC0001DFB34B1002D04DD2A46214632A806F05F
:101FD00006FFB7F80890FB6800249944A14520D873
:101FE00032A906A806F027FF26B1202206A930460E
:101FF00007F07FFFFB683C891C4404AA04232146A8
:10200000404607F033FE034638B9BDF8101046F6D7
:10201000071291421AD04FF0FF33184673B0BDE853
:10202000F08FA9EB04055D4528BF5D462B4652465F
:102030002146404607F01AFE03460028EDD12A4605
:10204000514632A806F0CBFE2C44C7E7BDF81290EB
:10205000DFF82CB1A1440646043482464FF0FF3528
:102060004C4507D3BAF1000FD5D0B6FA86F67609FB
:102070007342D2E7042305AA2146404607F0F6FD45
:1020800003460028C9D19DF81430BDF81670102BF6
:1020900018D1202FBFD13B4632AA211D404607F060
:1020A000E5FD03460028B8D13A4632A906A807F054
:1020B00010FF0028AFD14FF0010ABDF816300433ED
:1020C0001C44CDE7012B30D1202FA4D83B4632AAA7
:1020D000211D404607F0CAFD034600289DD1DBF8CC
:1020E00000209DF81650254F0292029A934203DB7E
:1020F0004FF0FF331D46E0E716A8039300F07EFA89
:102100007A6857F8081B126816A806F068FE16A928
:102110000EA806F090FE2A4632A90EA807F0D9FEB6
:10212000039B0028E6D00133DFE7222BC5D1002D29
:1021300020DBDBF80030AB421CDDA7F14803B82BF5
:102140003FF669AF3B4632AA211D404607F08EFD9F
:1021500000287FF460AFEDB20095BDF8163032AACA
:10216000202106A800F00EF800284FF0FF3508BF28
:102170000126A2E74FF0FF359FE700BFD8B200006D
:10218000D4B200002DE9F04198B090461C469DF86D
:1021900078203B4B0E4653F83210039103EBC203F9
:1021A00007465B68186804AA0144302303A805F0B9
:1021B000C1FF10B14FF0FF345EE0DDE903531D4471
:1021C00005AA08AB294603A805F0DCFF0028F1D1D9
:1021D000069A072AEED12B49079807F07AFE0028C5
:1021E000E8D1099A082AE5D127490A9807F071FE33
:1021F0000028DFD104AA294603A805F0AFFF002874
:10220000D8D1DDE9033299188D42D3D1412AD1D1F9
:102210001A78042ACED101334444039305AA30230B
:10222000214604A8CDF8108005F084FF0028C1D114
:10223000DDE9043213449C42BCD3224604A908A819
:1022400005F005FF0028B5D1224604A910A805F025
:10225000FEFE04460028ADD1202EABD1039D00F038
:10226000EDF808AB009032463946284606F050FC9F
:10227000012818BF6FF00104204618B0BDE8F081B6
:10228000D8B2000008B7000010B70000024B0A46A1
:102290001B680021184700BF606B0020F0B50822C2
:1022A00089B00C46064606F0B3F8CB6A03930B6B75
:1022B00004934B6B05938B6B0693CB6B07930027B3
:1022C00008236A4669466846CDE90177009705F01C
:1022D000A4FF082305466A463146304605F09DFFB7
:1022E000236B0393636B0493A36B0593E36B054428
:1022F000CDE906376A4608236946684605F08DFF32
:102300003146054408236A46304605F086FF236AB5
:102310000093636A0193A36A0293A36B0693E36B32
:102320000793054408236A463046CDE904770397AE
:1023300005F073FF636A0093A36AA26B0193E36ADB
:1023400002930492636BE26B0393CDE90523236A46
:102350000793054408236A46304605F05EFFE36AAA
:102360000093236B0193636B0293236A0693A36A22
:102370000793054408236A463046CDE9047703975E
:1023800006F07CF8236B0093636B0193A36B0293BD
:10239000E36B0393636A0693E36A07932D1A08239A
:1023A0006A463046CDE9047706F068F8636B00931F
:1023B000A36B0193E36B0293236A0393636A049311
:1023C000A36ACDE90537236B07932D1A08236A46C4
:1023D000304606F053F8A36B0093E36BCDE9013769
:1023E000636A0393A36A0493E36ACDE90537636BD9
:1023F00007932D1A08236A46304606F03FF82D1A37
:102400000D4C0FD435B908223146204606F00CF8A1
:1024100001280FD0082322463146304606F02EF818
:102420002D1AEFE7082322463146304605F0F5FE27
:102430002D18F7D409B0F0BDF8B20000004870477D
:10244000F4B200002DE9F04F9DB003680293436899
:10245000039383680493C3680593036906934369F0
:10246000079383690893DDE907CBC3690091DDE930
:1024700005E2DDE9036A5F49029C0993984600275B
:10248000009BDD590CAB2DBADD5151F8043B05EB37
:1024900003094FEAF22585EAB21585EA72654D44D3
:1024A0002BEA020302EA0C0983EA09032B444344A2
:1024B00086EA0A054FEA743888EAB408254006EA35
:1024C0000A0985EA090588EAB4580437A844402F68
:1024D00003EB0E054344D646D8467DD146490A91C2
:1024E00010214F1C0DF1700E0B9707F00F070EEB2C
:1024F000870701F00F0957F8407C00974FEAB7486B
:1025000088EAF71801F10E0707F00F070EEB8707AF
:10251000093157F8407C01974FEAF74E8EEA774E23
:1025200001F00F011CAF07EB890907EB810159F896
:10253000407C51F8401C3944009F88EAD708019F2D
:1025400041448EEA972E0A9F714449F8401C57F87F
:1025500004EB0A974FEAF52989EAB5192CEA050731
:1025600005EA020889EA756987EA08074F44774453
:10257000394459444FEA733784EA060B0BEA030BDC
:1025800087EAB30704EA060E87EAB3578BEA0E0E12
:10259000BE448E4401EB0A070B994029B246E3463C
:1025A00021D102997144016003991944049B41604F
:1025B00023448360059B3344C360069B3B44036113
:1025C000079B2B444361089B13448361099B63442D
:1025D000C3611DB0BDE8F08FE346B246944626467F
:1025E0002A461C464CE7944626462A461C463D464B
:1025F000734676E7A4B30000E4B3000010B50446C8
:10260000C8B17022002106F074FC0B4B0B4A0C4938
:102610000C48C4E900230C4BC4E902130B4BC4E97A
:1026200004030B4BA36103F17453A3F52303A3F637
:102630009243E361012010BD85AE67BB67E6096A7E
:1026400072F36E3C7F520E513AF54FA58C68059B94
:10265000ABD9831F2DE9F043079C1CB914602046B9
:10266000BDE8F0830325B4FBF5F505EB4507BC4257
:1026700018BF0135B5F1804F05D34FF0FF3313601C
:102680006FF00B00ECE7AD0001358D4200D808B9C2
:102690001560F5E7DFF8BCE006460025BD4231468F
:1026A0009C4606F1040603F103032CD3A54225D270
:1026B0009CF80060274F0135A54238BF9CF80130D7
:1026C0004FEAA60C28BF002317F80CC081F800C001
:1026D000A54207EB131C3CBF9B0003F03C034FEAF1
:1026E000061606F0300638BFFB5C1CF806604E701C
:1026F00028BF3D238B703D23CB700431081A106036
:1027000000200870ACE713F803CC13F8021C13F890
:10271000018C4FEAAC094FEA0C1C1EF8099006F830
:10272000049C0CF0300C0EEB1119890019F80CC048
:1027300006F803CC01F03C010EEB981C08F03F08B2
:102740001CF8011006F8021C1EF8081006F8011CFF
:102750000335A3E7F4B700002DE9F043079EDFF847
:10276000308100273C463D46B5420AD32E4604E060
:102770000135AE420EF1010E05D1CCBB1460002034
:1027800056E04FF0000E13F805C0BCF1200FEFD05B
:10279000AE42F2D0A6EB0509B9F1010F15D9BCF193
:1027A0000D0F12D103EB050999F80190B9F10A0F49
:1027B0001CD0BEF1000F05D1BCF13D0F08D101378F
:1027C000022F08D96FF0150032E0BCF10A0FEFE7D5
:1027D0001CF0800FF6D118F80CC0BCF17F0FF1D0BF
:1027E000BCF13F0F01D8002FECD101340135BBE71C
:1027F00004F0070C0625E40805FB0CFC6C430CF107
:10280000070CE41B04EBDC0478B18C420DD80027E4
:10281000DFF87CE0DFF87C801E44014603253C465F
:10282000B34207D1091A1160A9E714606FF00B00D9
:10283000BDE8F08313F8019BA9F10A0C5FFA8CFC48
:10284000BCF1160F04D828FA0CFC1CF0010FE7D1DC
:102850001EF809C00134BCF1400F08BF013D0CF067
:102860003F0C042C4CEA8717DAD17DB13C0C012DCA
:102870000C7002D101310024D2E7022D4FEA172457
:102880004C7016BF8F7002310331F4E72C46C7E756
:1028900074B70000090040000B6801330B60014B66
:1028A0001B681847646B00202DE9F04F85B09B46EC
:1028B0000E9CDFF890A0012CB8BF0124012B0CBFA7
:1028C0003023202315468046894601940293012631
:1028D0000A2700220AF101040AB9AA451FD2B5FB52
:1028E000F4F049463030C04701360122013F012F44
:1028F000B5FBF4F14FF00A0304FB1155BAFBF3FAF0
:10290000E8D1494605F13000C047BBF1030F03D1C0
:10291000019B9C1B002C0FDC05B0BDE8F08F019BD8
:10292000BB42E3DBBBF1020FE0D8494602980392B9
:102930000136C047039AD9E749462020C047013CE9
:10294000E8E700BFFFC99A3B07B5002301930246A1
:102950000B46034801A906F02CFD03B05DF804FB0B
:102960009928000010B54FF02003EFF3118483F392
:102970001188BFF36F8F00F03DF8094A0123C2F8B8
:1029800040354FF08042C2F87835064B4FF0FF32A9
:102990009A62DA6284F31188BFF36F8F002010BD52
:1029A00000E0014000ED00E0074BC0B21860BFF34B
:1029B0004F8F0649064BCA6802F4E0621343CB60AE
:1029C000BFF34F8F00BFFDE71C05004000ED00E0A6
:1029D0000400FA05054B1B68082B01BF044B18685F
:1029E000B0FA80F0400918BF002070473001001095
:1029F0003401001008B54FF080430022C3F80C21C9
:102A0000C3F81021C3F838254FF0805203F5404336
:102A1000D2F80414C3F82015D2F80814C3F824150A
:102A2000D2F80C14C3F82815D2F81014C3F82C15DA
:102A3000D2F81414C3F83015D2F81814C3F83415AA
:102A4000D2F81C14C3F84015D2F82014C3F844156A
:102A5000D2F82414C3F84815D2F82814C3F84C153A
:102A6000D2F82C14C3F85015D2F83014C3F854150A
:102A7000D2F83414C3F86015D2F83814C3F86415CA
:102A8000D2F83C14C3F86815D2F84014C3F86C159A
:102A9000D2F84424C3F87025FFF79CFF10B1334BE4
:102AA000334A1A60FFF796FF18B1324BFB22C3F886
:102AB0001825FFF78FFF48B12F49304B0A681B6874
:102AC00022F00F0203F00F0313430B60FFF782FFA6
:102AD00018B12B4B4FF400721A604FF08043D3F8BB
:102AE0000024D20744BF6FF00102C3F800244FF066
:102AF0001023D3F80022002A03DBD3F80432002B82
:102B00002FDA204B0122C3F80425D3F80024002A31
:102B1000FBD04FF010221221C2F80012D3F800248B
:102B2000002AFBD04FF010231222C3F80422154BC9
:102B30001A46D3F800140029FBD00021C3F804156D
:102B4000D2F80034002BFBD0BFF34F8F0E490F4B50
:102B5000CA6802F4E0621343CB60BFF34F8F00BF3B
:102B6000FDE70B4B0B4A1A6008BD00BF8C560040B6
:102B70004881030000F00040E40E004058020010BD
:102B80004096024000E0014000ED00E00400FA053C
:102B9000686B00200090D003044A91689368CB1AB8
:102BA00023F07F438342F9D3704700BF10E000E079
:102BB000034B044A1B68B3FBF2F35843FFF7ECBF27
:102BC000686B002040420F00064A10F0800F00F0B2
:102BD0000F0314BFD2F81005D2F81405D84000F046
:102BE0000100704700700240054B1B68082B05D19F
:102BF000044B1868003018BF012070470020704750
:102C00003001001034010010054B10F0800FA3F1CB
:102C1000900208BF134600F00F0003EB001070474E
:102C2000E80D0020024A00231360024A1370704727
:102C30001C7C02409F2D002007B5084A002313701A
:102C4000074A0193137001238DF80430054B01A846
:102C50001B68984703B05DF804FB00BF9E2D002061
:102C6000A12D0020780E0020F8B54D680B4F95423D
:102C700028BF15460C4606462A460968384607F01E
:102C800038F960682368401BC6E9007560601D4420
:102C90000030256018BF0120F8BD00BF800E002065
:102CA000F8B54C68944228BF144606460D468CB1D0
:102CB000094F09682246384607F01BF937606B68F0
:102CC00074601B1B6B602B68201C23442B6018BF97
:102CD0000120F8BD0460F2E7800E002007B5002354
:102CE0008DF804300B4BD3F82025ADF80620D3F82F
:102CF000C034094A002B13680CBF4FF480714FF0A9
:102D000001210B431360054B01A81B68984703B0D2
:102D10005DF804FB00700240540D0020780E002086
:102D200013B5124C0122236802FA01F10B43236010
:102D30000F4B1B68194003060DD551B906238DF8BA
:102D400004308DF806008DF807100A4B01A81B68A7
:102D5000984702B010BD0029FBD106238DF804303E
:102D60008DF806008DF80720EFE700BF540D002016
:102D7000E40C0020780E002008B5054B1A781046A8
:102D800006F06EFDBDE8084001461046FFF7C8BFDB
:102D9000A12D0020074BBFF35B8F024653E8000FC5
:102DA00000EA020143E8001CBCF1000FF6D1BFF3BA
:102DB0005B8F7047E40C002008B5FFF733FF084B2A
:102DC00093F89E20032A05D16FF00100BDE808406A
:102DD000FFF7E0BFD3F89030002BF5D008BD00BF5F
:102DE000580D002007B5FFF71DFF0C4B93F88E2000
:102DF000032A10D0D3F880306BB96FF08070FFF7E2
:102E0000C9FF06238DF804300823ADF80630044BC3
:102E100001A81B68984703B05DF804FB580D00201B
:102E2000780E002007B5FFF7FDFE0F4B93F81E212B
:102E3000032A06D16FF48070FFF7ACFF03B05DF892
:102E400004FBD3F81031002BF8D16FF48070FFF73A
:102E5000A1FF06238DF804308823ADF80630034B1C
:102E600001A81B689847E9E7580D0020780E00205C
:102E7000204B13B5D3F80044C3F80044BFF36F8F61
:102E8000BFF34F8FBFF36F8FBFF34F8FE1050BD5AC
:102E9000194B01221A700023019302238DF804308C
:102EA000164B01A81B689847A2050AD5124A0023B1
:102EB0000193137003238DF80430104B01A81B6895
:102EC0009847630513D50C4B1A7882B100221A700B
:102ED000084B0121C3F80815582006F079FC04239B
:102EE00001928DF80430054B01A81B68984702B089
:102EF00010BD00BF007002409E2D0020780E002003
:102F00002DE9F04F754B87B01A780193002A7BD1D9
:102F1000DFF8D0B1724B1868724B1D68284073D02F
:102F200010F0012573D095FAA5F5B5FA85F50F2DAA
:102F300086BFA5F11004E4B245F080042046FFF7F7
:102F400063FE4FFA84F9B9F1000F064604F0080A4F
:102F5000828961DAD0E9003104A8984700B930606D
:102F6000614B82221A60019B059A01201870A840CB
:102F7000B368DBF80050134425EA0000B9F1000FF4
:102F8000CBF80000B3600498584B04F00F047DDACE
:102F9000BAF1000F72D0C3F8A006C3F8A426FFF759
:102FA00023FEA30024B26500514A524900287FD174
:102FB000B9F1000FB2BF042428240A464E4E4F4FE9
:102FC00002EB05091C4405463560BFF36F8FBFF364
:102FD0004F8F204606F0FCFB0220FFF7E9FD336827
:102FE000002BF1D01E20FFF7E3FD3B689B065DD56B
:102FF0000120FFF7DDFDB9F8003003F1804303F550
:103000001C331B68002BDFD007B0BDE8F08F90FAAF
:10301000A0F0B0FA80F58AE73449BAF1000F26D063
:10302000D1F8C08418F4803F18BF4FF00008434621
:103030007168376804A8B847049B002B8ED0059BA5
:1030400043458BD201204FF00208A84086F80E803D
:10305000C043FFF79FFE06238DF80C30284B8DF8F8
:103060000E408DF80F801B6803A8984752E704F0C4
:103070000F0303F5947351F82380D8E7142101FB63
:103080000433C3F80006C3F8042688E7BAF1000F3A
:1030900004D0C3F8A007C3F8A42780E7142101FBDC
:1030A0000433C3F80007C3F8042778E702209AE73F
:1030B000B9F1000FB4BF04202820184406F088FBA3
:1030C00012EA290938BF894639F8143003F18043E0
:1030D00003F51C331A68002AFCD095E79F2D0020C9
:1030E000E40C0020540D00201C7C024000700240C3
:1030F000A8B60000BAB60000047102407474024021
:10310000780E002038B5174BD3F86C44C3F86C44E4
:10311000BFF36F8FBFF34F8FFFF766FD38B9124AC9
:10312000136823F0011103F001130C431360012510
:103130001CB9BDE83840FFF7E3BE94FAA4F3B3FA34
:1031400083F30F2BD9B2C4BFA3F11000C0B205FAAC
:1031500003F3D8BF41F0800024EA0304FFF7E0FD49
:10316000E6E700BF007002407C0E002037B5044641
:10317000FFF758FDFFF748FD837B032B0CD120465A
:1031800006F06EFB012303FA00F0C043FFF702FED6
:10319000FFF7B6FE03B030BD0568002DF8D120461C
:1031A00006F05EFB012303FA00F0C043FFF7F2FDD7
:1031B00006238DF80430044B8DF806408DF8075037
:1031C0001B6801A89847E3E7780E0020024A002315
:1031D0001360024A13707047780E0020A02D002063
:1031E00038B5514B4FF40062C3F80024BFF36F8F22
:1031F000BFF34F8FFFF7F8FC4C49A8B14FF0200305
:10320000EFF3118483F31188BFF36F8F0868484B85
:10321000032200287ED149F2753008601A600860E8
:1032200084F31188BFF36F8F4FF02003EFF3118405
:1032300083F31188BFF36F8F08683E4AC0230028CC
:103240006AD149F2753008601360086084F3118810
:10325000BFF36F8F344B0120C3F80005BFF36F8FAE
:10326000BFF34F8FD3F800040005FBD54FF4006087
:10327000C3F80004BFF36F8FBFF34F8F4FF02003ED
:10328000EFF3118483F31188BFF36F8F0868002870
:1032900044D149F275330B6010600B6084F31188E0
:1032A000BFF36F8F244B40F2E3721A600433402265
:1032B0001A60BFF36F8FBFF34F8FA3F60403002490
:1032C0008022C3F81C25C3F830451C4B40F2FF1286
:1032D0001A601B4B1C60FFF7A5FC1A4B1C701A4BA5
:1032E00002221A70FFF780FC98B14FF02003EFF331
:1032F000118583F31188BFF36F8F08680C4B80B979
:1033000049F275320A6018600A6085F31188BFF3CC
:103310006F8F38BD1A6083E7136097E7002313604F
:10332000BCE71C60F1E700BF0070024000EC064003
:1033300014ED064014EC064000780240540D0020C5
:10334000E40C0020A12D0020A02D00200E4B002217
:1033500010B51A70A8B9FFF747FC0C4B0C4A0028AF
:103360000CBF184610460B4CC4F80403272002F08B
:1033700079FF0123C4F80435BFF36F8FBFF34F8F7C
:1033800010BD0248EFE700BF9E2D00200714E001AA
:103390000714C00100700240034B1878012894BF45
:1033A00000200120704700BFA02D0020F8B51C4B65
:1033B0001C7894BB1B4A106001221A7025462646D1
:1033C000EBB213F0080F43F080070CBF40214FF41D
:1033D0000071384606F090FA3846FFF715FC0135C3
:1033E000092D867306608660EAD1402100252046BB
:1033F00006F082FA2046FFF707FC0134E4B2092CFC
:1034000085730560856001D10748F8BD14F0080F89
:1034100014BF4FF400714021E9E70448F5E700BF0D
:10342000A02D0020780E00200000AD0B0500AD0B94
:103430002DE9F84304464FF02003EFF3118683F3A0
:103440001188BFF36F8F10F00F0703D12B4B1B7840
:1034500083424ED12A4BDFF8D8801A68D8F8005042
:10346000D24392B220462A4306F0FAF94FF00109FE
:1034700009FA00F912EA090F3DD12046FFF7C4FB13
:103480000C232206844603FB07F32ED51D4A086849
:10349000134400F060408A68B0F1005F02F001025E
:1034A0001ED1DAB9184ACCF8002007C983E8070012
:1034B000CCF804300023CCF808308CF80E30134BD5
:1034C000134845EA09058022C8F80050C3F80421D2
:1034D00086F31188BFF36F8FBDE8F8830D4AE2E7EA
:1034E0000AB90D4ADFE70D4ADDE70D4A13440D4ADC
:1034F000D9E70D48ECE70D48EAE700BFA12D002011
:10350000540D0020E80C00201598000000E100E0B8
:103510000000AD0B37980000692C0000A12C0000C2
:10352000780C0020E79700000A00AD0B0B00AD0BF4
:10353000E40C0020044B40F48070C3F81805BFF37E
:103540006F8FBFF34F8F704700700240020713D494
:1035500000F00F0310F0800F084A0BBF03F58873CB
:1035600003F5847302EB830352F8230008BF586805
:10357000431E584258417047002070470070024077
:1035800010B508220021044606F0DDFC0E4BD3F8EE
:1035900080242270D3F884246270D3F88824D3F86E
:1035A0008C1442EA01226280D3F89024D3F8941458
:1035B00042EA0122A280D3F89824D3F89C3442EA4C
:1035C0000323E38010BD00BF0070024013B5FFF776
:1035D00029FB0E4B9A7B032A05D16FF48030FFF74D
:1035E000D9FB02B010BD1C686CB96FF48030FFF7D6
:1035F000D1FB06238DF80430054BADF806401B685F
:1036000001A89847EDE706F093F9EAE7580D002086
:10361000780E0020014B1878704700BFA12D0020C4
:1036200038B50246FFF7E0FA0446104606F018F9EE
:10363000012303FA00F0C0431C4BCCB94FF020012A
:10364000EFF3118581F31188BFF36F8F196802F0D2
:103650000F02084018605200154B02F2C5721A6042
:103660005C6004331B6885F31188BFF36F8F38BD2E
:103670004FF02001EFF3118481F31188BFF36F8FB6
:103680001968084012F0080118600AD102F00F0210
:1036900002F59472074B43F82210BFF36F8FBFF30C
:1036A0004F8F84F31188BFF36F8FE0E7540D002034
:1036B0000078024000700240F7B501464FF0200349
:1036C000EFF3118483F31188BFF36F8FFFF79CFA38
:1036D0000546084606F0C4F8012311F0800F03FAEE
:1036E00000F02A4E17D1336830EA03020AD00846A8
:1036F000FFF796FF0323AB7384F31188BFF36F8F3B
:1037000003B0F0BD2A60C043214A03403360136810
:1037100003401360EEE70B0711D480291D4F1E4BA9
:103720002AD001F00F02520002F2B4723A601A6815
:103730001F68D2B242F002023A431A601B68144F6B
:1037400032683B6862EA030C1CEA000FD4D022EA1C
:1037500000021843002332602B600323AB738DF803
:1037600007300E4B386006228DF804208DF80610C5
:103770001B6801A89847BFE740F2B4723A601A6824
:103780001F68D2B242F00402D6E700BFE40C00206A
:10379000540D00200078024004780240780E00208A
:1037A000F7B5164B164CD3F880642368154DDA43F1
:1037B000154B2F781B6892B238461A4306F050F822
:1037C000012303FA00F0104202D03846FFF774FFDD
:1037D00006F080066FF001102E70FFF7DBFA236809
:1037E00043F0010323600023019305238DF8043087
:1037F000064B01A81B68984703B0F0BD007002405B
:10380000540D0020A12D0020E40C0020780E002093
:10381000554B2DE9F041D3F80453002229461646B2
:10382000012400297CD1FFF7DFF9002869D14F4B33
:103830001B78002B65D1960263D54D494C4E40F262
:10384000A9730B604B4B1C6814F0FF041CBF186875
:10385000044040F2AA700860186810F0FF001CBF16
:103860001968084040F2AB713160196811F0FF012E
:10387000B4461CBF1E68314040F2AC76CCF8006004
:103880001E6834403C4E08D037682743376040F20A
:10389000A977CCF800701C601C68354F40F2AD74FD
:1038A0003C601C68204008D0346844EA004434601E
:1038B00040F2AA743C60186018682D4840F2AE745B
:1038C0000460186801400DD0CC0748BF42F40002E4
:1038D000C806274840F2AB74046019601B6848BFF3
:1038E00042F00102336833F001111CBF05F0807013
:1038F000024313F0011F04D06B0544BF316042F452
:1039000080621E4F02F4000622F400044FF001080A
:10391000E4B9FFF7F5FA2EB3BDE8F041FFF740BF79
:1039200091FAA1F31648B3FA83F39F00384407686D
:103930003FB10660BFF36F8FBFF34F8F04FA03F000
:10394000024304FA03F321EA03016AE794FAA4F5B7
:10395000B5FA85F557F8253008FA05F5984724EAB1
:103960000504D5E7BDE8F081007002409F2D0020DE
:1039700000780240047802407C0E0020C8B40000A9
:1039800000710240F8B5104E104A34681268240CD9
:103990002404144301271CB940F2FF133360F8BD1F
:1039A00094FAA4F5B5FA85F50F2DC6BFA5F1100060
:1039B000C0B245F08000030701D4FFF77DFE07FA8F
:1039C00005F524EA0504E6E7540D0020E40C002088
:1039D0000D4B802210B52720C3F8842102F066FC2D
:1039E00080B10A4CFFF7CEFF0023C4F80435BFF3C3
:1039F0006F8FBFF34F8F272002F044FC4FF0FF334F
:103A0000C4F8083310BD00BF00E100E000700240C0
:103A100008B5FFF7DDFF094BD3F80423C3F80823EB
:103A20000022C3F80025BFF36F8FBFF34F8FFFF75E
:103A3000F9F8034B01221A7008BD00BF0070024064
:103A4000A02D002038B54FF02003EFF3118583F34C
:103A50001188BFF36F8F0F4B1B7803F0FF0433B94E
:103A6000002485F31188BFF36F8F204638BDFFF720
:103A700089FF094AD2F8003413F40073F0D1012110
:103A8000C2F82C15D2F80014890544BFC2F82C35B1
:103A90001C46E6E79E2D002000700240F8B5234A40
:103AA000234B244D46B213EA260338BF134600F0D9
:103AB0000F070121DB5D01FA03F3C5F80433044667
:103AC000FFF782F888BB002EB4BFD5F81035D5F8C3
:103AD000143501FA07F1B5BF19431943C5F810159C
:103AE000C5F81415BFF36F8FBFF34F8FEFB1002EE2
:103AF0001BDB230719D44FF02003EFF3118583F369
:103B00001188BFF36F8F2046FFF78AFD204605F02E
:103B1000A7FE094A012303FA00F0136823EA000311
:103B2000136085F31188BFF36F8FF8BD4CB80000A8
:103B300043B8000000700240E40C0020020610B5FB
:103B400004460AD4030708D400F00F029200074B82
:103B50009B58012B01D1FFF763FD054BC3F81845B6
:103B6000BFF36F8FBFF34F8F10BD00BF447402408F
:103B700000700240034B9B6903B118476FF02200AD
:103B8000704700BFC00E00202DE9F0410B4B0C4CDC
:103B90000C4D1B1B9B1006460F465D434FF0000863
:103BA000A84501D1BDE8F081E3681BB13A46314632
:103BB0002046984708F101082C34F1E73C6E0020BC
:103BC000106E0020A38B2EBA13B5084C01ABE2682F
:103BD000A1680192802001F039FB0199A268E36895
:103BE0000A445B1AA260E36002B010BDC00E002060
:103BF0002DE9F04F9A4D6B6985B007460E46144685
:103C00008BB997F8008008F01F08B8F1010F00F099
:103C1000A280B8F1000F0CD0B8F1020F00F0E880DC
:103C20006FF0150002E098470028EAD105B0BDE822
:103C3000F08F7A7878882368092AF1D801A151F8A1
:103C400022F000BF6D3C00003D3D0000213C000023
:103C50004B3D0000213C0000873C0000913C0000EF
:103C6000213C0000BF3C0000C93C0000002018704F
:103C7000587095F84E20824214BF022202461A70F4
:103C800002233360D2E7C0B201F03AFA0020CDE758
:103C9000020A131F012BC3D9072AC1D82B6A00219E
:103CA000C0B21D78002DBBD05F78974203D1884207
:103CB00000F0CE8001312B44F3E71B78CDE095F87E
:103CC0004D201A700123C8E0C4B28DF8074054B1EA
:103CD000FF272E6AB846337843B9EB691BB10DF163
:103CE00007010320984785F84D40CFE77378042BF0
:103CF00008D0052B08D0022B01D196F80580337827
:103D00001E44E8E7F778FAE79DF807304345F6D117
:103D1000002FF4D1F3788DF80C307279337943EABF
:103D20000223ADF80A30B3788DF8083002A801F00C
:103D3000F7F99DF8080001F06BFAE0E701287FF43D
:103D40006FAF002085F84E0070E701287FF468AF60
:103D500085F84E009AE7787823680A2807D00B2860
:103D60000AD000287FF45CAF1870587088E70020F4
:103D70001870C6F8008059E797F804A097F802B0C9
:103D80002C6AFF27B9464FF0000823783BB9EB694E
:103D900013B14146072098470020306046E763781A
:103DA000042B04D0052B0BD023781C44EDE7A77817
:103DB00094F80390BA45F7D1CB4508BFA046F3E786
:103DC000BA45F1D1CB45EFD1E3788DF80C3062796B
:103DD000237943EA0223ADF80A30A3788DF808303E
:103DE00002A801F09DF99DF8080001F011FADBE747
:103DF0007B783879D4F800908DF80800012B19D021
:103E00005CB27CB1032B7FF40BAF7C88002C7FF479
:103E100007AF01F0A5F9EB69002B3FF437AF02A91A
:103E2000082013E0494601F0D9F989F80140C6F8A5
:103E300000802BE77C88002C7FF4F2AE01F0B6F90D
:103E4000EB69002B3FF422AF02A9092098471DE738
:103E5000022A23607FF431AF5B88336016E700BF2E
:103E6000C00E002008B509480378C3F3411300EBE6
:103E700083035B6A3BB100F1080200F1100198472F
:103E8000C043C00F08BD1846FCE700BFC00E0020AD
:103E900037B500220B4601920546002852D12D4C21
:103EA00039BB0822214605F084FF002804DA80206F
:103EB00001F056F903B030BD2278E588C2F3411312
:103EC00004EB8303586BA06010B901F049F9EEE7E9
:103ED000C4E903550DB1D309ECD0FFF7C3FF0028A7
:103EE000E5D02369AB42D4BFE360E560FFF76CFE29
:103EF000E0E7D4E90212002A01AB05DC024605F036
:103F000058FF0028D6DAD2E705F053FF002804DA7C
:103F1000802001F025F92846CAE70199A268E368E4
:103F20000A445B1AA260E360002BC3D12378C3F379
:103F3000411304EB83035B6BA360FFF793FF00283F
:103F4000D4D1B4E78028B5D1024BDB68002BB1D0C7
:103F5000CCE700BFC00E0020014600F10803BFF30C
:103F60005B8F53E8002F42F0010043E8000CBCF1E6
:103F7000000FF6D1BFF35B8FD30702D4014806F0E0
:103F800016BF70471C28002010B5C0B10D4B026849
:103F90001A620D4A5A6203F144025A63026912B16D
:103FA000C16999639A62426922B1016A074CDC6275
:103FB000D9639A61806908B15861002010BD6FF023
:103FC0001500FBE7C00E0020F13B0000753B000030
:103FD0002DE9F341324D95F84C400646002C4ED168
:103FE0003048E86101F02EFA002849DB00F0F2FFCA
:103FF000002845DB40236846ADF802308DF80440C8
:104000008DF8004001F08CF8002839DB80276846E5
:104010008DF8007001F084F8002831DB2249204639
:1040200001F0FCF900282BDB1F49384601F0F6F9B6
:10403000002825DB96F82430A34224D80026184C0B
:10404000DFF8688037460122C4E91F78C4F884701D
:1040500004F16C001146013606F08FFF042E04F1C6
:104060003C04F0D1002001F0D3F8002808DB8020C8
:1040700001F0CEF8002803DB012385F84C30002046
:1040800002B0BDE8F081B36A03EBC40253F8341008
:10409000107901F0C3F90028F2DB0134CAE700BF50
:1040A000C00E0020893B0000913E0000679900008F
:1040B00010B5064C94F84C0030B100F0CBFF00284E
:1040C000A4BF002084F84C0010BD00BFC00E00202B
:1040D0002DE9F04F6C4A6D4B6D499B1A87B09B10D0
:1040E00000264B43044601934FF0011A3746B04671
:1040F000B146934623783BB9664AA01C904200F033
:10410000C080FFF7E5FF17E06378052B05D8DFE8EF
:1041100003F080040380077DA14623781C44E9E76F
:10412000E378002BF9D1A378A3B9574A9846019BAD
:10413000434504D14FF0FF3007B0BDE8F08F2C327B
:1041400052F8283C9C4208D12C2303FB08B8D8F82D
:1041500008302BB90137FFB2DFE708F10108E6E7C5
:10416000394620469847F5E7D8F82820A57802EB8D
:10417000C3021079854205D0013398F82420934278
:10418000F2DBD7E7012594F803C08DF814C094F84A
:1041900005E094F804C04CEA0E2CADF812C094F877
:1041A00002C08DF810C01CF0800FE8B225D005F1D8
:1041B000100C01FA0CFC1CEA0A0F23D160F07F00FE
:1041C0008DF8100004A8CDE9023205F0DAFDDDE932
:1041D00002320121B0B99DF81030A37013F0800FA6
:1041E000137118BF10350B4615BFAB4003FA05F528
:1041F0004AEA030A4AEA050A8FE701FA05FC1CEAC3
:104200000A0FDDD00135102DBDD1B5E70023012106
:10421000B3E7032E1DD105F02AFC029060B105F032
:1042200045FE05461C4805F041FE8542029903D132
:104230002A46A01C05F05DFE23786FF00201E2180B
:10424000091B04EB53030020D14213D50136F6B20B
:1042500063E7002EF0D1B9F1000F3FF46BAFA4EB90
:10426000090389F80230C3F3072389F8033089F87A
:104270000470EBE702F8010C13F8015902F8025D33
:10428000E2E7184658E700BF106E00203C6E0020A1
:10429000A38B2EBA0F6E002055B8000008B5044855
:1042A000FFF716FF0028024818BF002008BD00BF16
:1042B0008C6D002070B504460E46017910481546F5
:1042C00005F0E3FBB0B16378212B0ED0222B08D090
:1042D000202B12D1072229680C3805F00AFE002095
:1042E00070BD638800F8053CF9E70C3807232860A7
:1042F0003360F4E76FF01200F2E76FF01500EFE7BC
:104300000010002008B50146034805F0CCFB10B1B1
:10431000012300F8033C08BD0010002030B50368FD
:1043200085689A68104C85B042F2A1004FF40033C2
:10433000CDE90103002385F8B130906AADF80C1087
:104340000A2201A9007905F08EFB95F8B13013B16E
:10435000002005B030BD012003F080FB013CF4D10A
:104360006FF00400F5E700BFA186010010B50C4610
:104370000146074805F07DFB48B10A2C07D0032C05
:1043800008BF012300F8B44C08BF00F89C3C10BDE6
:104390000010002007B501228DF807100DF107016C
:1043A00005F0DFFB6421034803F004FB03B05DF874
:1043B00004FB00BF0810002070B584680023C4F817
:1043C000B830154BC4F8B400596804F1B80201BB09
:1043D000C3E9002203689D6804F1A003EB61FFF7C5
:1043E0005DFF28602846FFF7CFFD061E0FDB28463D
:1043F000FFF7EEFD061E0ADB4FF0FF3200210748F3
:1044000006F0BBFD064A0023C4E90423E3603046FE
:1044100070BD0A605A60DDE700100020081000201F
:10442000E79A0000014600F10803BFF35B8F53E8F1
:10443000002F42F0010043E8000CBCF1000FF6D160
:10444000BFF35B8FD30702D4014806F0B0BC7047BE
:104450001C28002073B501460646154805F023FBCD
:10446000044618B30022114601AB304605F0FDFAB0
:10447000019AA4F19805802A01AB28BF8022294621
:10448000304605F0F2FA019A54F8180C294605F066
:1044900029F9012304F89B3C54F8B03C33B114F8DB
:1044A000993C1BB1A4F1A800FFF7BCFF02B070BD9E
:1044B0000010002010B501460B4805F0F4FA044640
:1044C00088B1012300F89C3C084803F04DFA54F8E9
:1044D000B03C43B114F89A3C2BB1A4F1A800BDE85C
:1044E0001040FFF79FBF10BD0010002008100020F3
:1044F000084B30B51D68084B196800239D4202DC4B
:104500000022104630BD1C010A190C5D8442F8D00F
:104510000133F3E7D0B500005C6C0020084B1B684A
:1045200010B50C462BB1FFF7E3FF28B12060002047
:1045300010BD6FF00C00FBE76FF00100F8E700BF63
:104540005C6C002030B589B00C4615460190FFF731
:10455000CFFFB0B14368029383682268C068CDE999
:1045600003350023CDE90623059302F087FC01AA59
:10457000054905F08EFE079808B9059B236009B030
:1045800030BD6FF01500FAE72F9C000008B5044617
:104590004FF02002EFF3118382F31188BFF36F8F86
:1045A00005F017FC2046FEF7FFF9034805F052F826
:1045B00001F0D2FEFCE700BF64B8000010B54FF078
:1045C0002003EFF3118283F31188BFF36F8F154C33
:1045D000237833B982F31188BFF36F8F6FF04400F3
:1045E00010BD013BDBB2237033B182F31188BFF3FE
:1045F0006F8F6FF00F00F3E70B4B1878012138B184
:10460000217082F31188BFF36F8F6FF00A00E7E724
:10461000197082F31188BFF36F8F044A116018700C
:10462000DEE700BFA4310020A331002004000040D9
:10463000F8B54FF02002EFF3118382F31188BFF336
:104640006F8F294A1078441C147080B183F311884D
:10465000BFF36F8F4FF08043D3F80C3403F0011396
:10466000B3F1011F0CBF00206FF0430009E01F4DA4
:104670002F783FB1107083F31188BFF36F8F6FF005
:104680000A00F8BD01262E7083F31188BFF36F8FE7
:104690004FF0804419B3384601F0F4FDC4F80071BE
:1046A000D4F80433C4F804632660D4F8002192B12E
:1046B0000022C4F800210E4A13F0010F4FF001034D
:1046C00008BFC4F808330020C2F8803101F0CAFDE9
:1046D00000232B70BEE720BF40BF20BFE5E7C4F832
:1046E00000112660F4E700BFA4310020A3310020B0
:1046F00000E100E070B54FF02002EFF3118382F388
:104700001188BFF36F8F244D2A789AB183F31188F3
:10471000BFF36F8F4FF08042D2F81C34D2F81824C8
:1047200003F0030343F48033934314BF6FF043005B
:10473000002070BD01242C7083F31188BFF36F8FAC
:104740004FF08043154EC3F804210225C3F8181515
:10475000C3F8045311F0030134604FF01806C3F896
:104760000863C3F80C21C3F81021D3D11022C3F879
:104770003825C3F80463D3F81824D20302D4C3F84D
:104780000453C7E7C3F80443FFF752FF0028C1D121
:10479000034BC3F80041BDE7A231002008000040F0
:1047A00000E100E02DE9F0434FF080434E4DD3F897
:1047B0000891D3F80423D3F800E18046D3F804032A
:1047C000D3F804C1D3F80C11D3F810412F68AE68A8
:1047D0000435003485B002F0010218BF01242D68B1
:1047E000B9F1000F03D04FF00009C3F80891BEF1F2
:1047F000000F69D04FF080434FF0000EC3F800E186
:104800005AB14FF08043DFF8E4E001224FF0020993
:10481000C3F80823CEF800901A61BCF1000F41D113
:1048200061B1324B4FF08049002119604046C9F810
:104830000C11FFF7C3FE0123C9F8143074B14FF017
:10484000804300210124C3F810114046C3F80443FB
:10485000FFF7EEFE10B9264BC3F800414FB1224BD3
:1048600000221A601B6801934FF48E70019B00F0C8
:104870008FFB4EB11F4B00221A601B6802934FF44E
:104880009270029B00F084FB55B31B4B00221A6010
:104890001B680393039B4FF4907005B0BDE8F04391
:1048A00000F076BB4FF080430022C3F8042182075A
:1048B000B6D50222C3F80823D3F81C349B07AFD126
:1048C0000029BCD00124ACE7002AA6D04FF08043D9
:1048D000D3F80C3403F00113B3F1011F9DD190E71D
:1048E00005B0BDE8F08300BF1C010040340C00405F
:1048F00000E100E02401004020010040010600F03A
:104900000F0300F0080206D56AB90948242202FB09
:1049100003002830704742B903F10900044B2422F8
:1049200002FB0030F5E7034870470348704700BFBB
:10493000781F0020C02000200422002001460148EA
:1049400006F035BA7C6D002038B505460F4802F0F8
:1049500095FAB0B10E4C217845B181B943681B6816
:10496000984758B110F1440F08D038BD61B1436881
:1049700029465B68984710F1100FF2D1257000208E
:10498000F3E76FF01200F0E70846EEE797B8000093
:10499000A53100200949BFF35B8F51E8003F43F088
:1049A000010241E800200028F7D1BFF35B8FDB074D
:1049B00003D40839024806F0FAB97047881F00206E
:1049C0001C28002010B5054C0021204602F0A8FC50
:1049D00018B1043006F04EF9F6E710BD7C6D0020EA
:1049E00013B56C46002318222146134802F04EFBF3
:1049F000002818DAFFF7E6FF0023182221460E48A8
:104A000002F044FB00280CDB009B94E803001A1D15
:104A100082E8030004221A751846FFF78FFFFFF79C
:104A2000B9FF002305E0009B94E803001A1D82E80B
:104A30000300184602B010BD4C6D0020F8B5877811
:104A400006463846FFF75AFF3B060546F47813D56D
:104A5000002C45D1FFF7C4FF0346002840D00122B7
:104A600085F82240027503220274DD60FFF766FFBD
:104A7000BDE8F840FFF78EBF54B1012C30D1FFF7ED
:104A8000AFFF034660B385F8214004750474ECE77A
:104A9000FFF7A6FF20B3B378124A13F0800F03F09C
:104AA000080111D041B1D2F8A836EB60012303759B
:104AB00002230374C560D9E703F00F03142101FB3F
:104AC0000323D3F80836F0E711B1D2F8A837ECE7A2
:104AD00003F00F03142101FB0323D3F80837E4E7A5
:104AE000F8BD00BF00700240F0B5064689B018223C
:104AF000002102A805F027FA3378013B052B20D8C6
:104B0000DFE803F07703141F671603238DF81430D2
:104B10000024FFF765FF034698B105A9047500F16D
:104B20000C0203C982E8030018461DE00423EDE7E8
:104B3000B7783846FFF7E2FE837A05461BB1032BB0
:104B400043D909B0F0BD3B06F47812D5002CF8D15A
:104B5000FFF746FF03460028F3D0012285F82240E4
:104B6000027503220274DD60FFF7E8FEFFF712FF13
:104B7000E7E75CB1012CE4D1FFF732FF03460028E0
:104B8000DFD085F8214004750474ECE7FFF728FFB7
:104B900007460028D5D00123037502230374C5609E
:104BA00005F10C01B07804F0ACFE134AE968B2F8E4
:104BB000B0328B4206D95B1AA2F8B03204F0B8FECC
:104BC0003846D1E7A2F8B042FAE73046FFF736FFA1
:104BD000B7E76846FEF7D4FC9DF80130052B04D1F9
:104BE0009DF8003013F0600FABD0044B0593012407
:104BF0008FE702248DE700BF781F0020E42000200B
:104C0000F8B500253D4F2E4665F07F00C0B2FFF796
:104C100075FE03690446002B51D02369E660C4E9A0
:104C2000063301231D44082D84F8203084F82160C8
:104C300084F82260E8D10025304F2E46E8B2FFF715
:104C40005DFE03690446002B44D02369E660C4E995
:104C5000063301231D44082D84F8203084F8216098
:104C600084F82260EAD1264CD4F85831DBB3D4F86A
:104C700058310122C4E95833002384F86821C4F86C
:104C8000543184F8693184F86A31D4F89C323BB9E4
:104C90004FF480621B49194802F0F8F9002816DB2E
:104CA000D4F89C320020C4E9A933012384F8AC3243
:104CB000C4F8980284F8AD0284F8AE0209E000F16D
:104CC00010014022384602F0E1F90028A5DA6FF021
:104CD0000B00F8BD00F110014022384602F0D6F971
:104CE0000028B2DAF3E74FF4806204F5AC710348B0
:104CF00002F0CCF90028BADAE9E700BF306D0020F5
:104D0000781F0020142200202DE9F043DFF87C9268
:104D10009A4D85B080460021484602F001FB0746C7
:104D200010B905B0BDE8F0836B793A7D5BB9002A14
:104D3000F1D13A7B042A52D8DFE812F0CD008F007F
:104D40009900DB00E700042A49D801A151F822F0BC
:104D5000334D0000654D0000214F0000494F000019
:104D6000594F00003B7CFC68032B38D8DFE803F088
:104D7000023F5E63A66908220021304605F0E3F891
:104D80007F4BD3F880243270D3F884247270D3F828
:104D90008824D3F88C1442EA01227280D3F890243C
:104DA000D3F8941442EA0122B280D3F89824D3F8BD
:104DB0009C3442EA0323F3800823E3600021236844
:104DC000607A984796F90030002B0CDBF28852B1DC
:104DD000B5F8B0329B1AA5F8B03204F0A9FD381D21
:104DE00005F048FF97E70023A5F8B032F7E794F8FD
:104DF0002130002BF3D094F82030002BEFD0002688
:104E000084F821604FF0FF3184F820605D4802F0A3
:104E1000D7F9A36901936368CDE9023601A9607AE5
:104E2000FEF706FB574802F03BFAD8E7236801215A
:104E3000607A9847D3E7A37A63B994F823304BB9E3
:104E40004FF0FF314F4802F0BBF904F086FD4D48AA
:104E500002F026FA23680221EAE7FEF79DFA00280D
:104E6000BDD1FEF7BDF90120FFF76EFDB7E70024C5
:104E700064F07F00C0B2FFF741FD037A13B1407ABE
:104E8000FEF70CFE0134082CF2D195F850311BB11D
:104E900095F85101FEF702FE0024E0B2FFF72EFD67
:104EA000037A13B1407AFEF7F9FD0134082CF4D1EE
:104EB00095F894321BB195F89502FEF7EFFD0120AD
:104EC000FEF744FA01236B712B68002B87D0002179
:104ED0000220984783E700246C71FEF799FD204675
:104EE000FFF732FD2B68002B3FF479AF21460420F9
:104EF000EFE7002B3FF473AFFEF7A4FD2B68002B08
:104F00003FF46DAF00210520E3E72A68002A3FF453
:104F100066AF002B3FF463AF0021062090475EE7A9
:104F200008F10C044FF0FF31204602F049F9FFF779
:104F300067FE204602F0B4F958F8083C002B3FF415
:104F40004EAF00210120C4E758F8083C002B3FF485
:104F500046AF00210A20BCE7002004F005FFFEF761
:104F600057FDFEF733F9FFF72DFDFFF749FE01204E
:104F700004F0FAFE0448FEF719FA30E7781F002023
:104F8000007002408C1F0020E94A00007C6D002068
:104F9000B0F5907F10B515D0B0F5927F14D0B0F574
:104FA0008E7F13D10124FFF71BFD78B1002202751B
:104FB0000473FFF7C3FC064B1B793BB1BDE81040FF
:104FC000FFF7E8BC0024EEE70224ECE710BD00BFC9
:104FD000781F002038B51A4C257965BB194BA560A0
:104FE00004F11400C4E9033505F060FE2A460121EE
:104FF000272001F069F91448FEF7D8F9134B9842BD
:105000001BD1012004F0B0FEFFF7FAFD054608B9F8
:10501000012323710E4B1B680BB1FFF7BBFC4FF054
:105020008043D3F83834DB0703D54FF48E70FFF795
:10503000AFFF284638BD0025FBE76FF00405F8E711
:10504000781F0020094D0000E94A00000000AD0B68
:105050007C6D002038B54FF0FF31274802F0B0F8E2
:10506000FFF7B0FC002464F07F00C0B2FFF746FCFD
:105070000546103005F0FEFD0134242200212846AB
:1050800004F061FF082CEED10024E0B2FFF736FCFB
:105090000546103005F0EEFD01342422002128469B
:1050A00004F051FF082CF0D1144C04F5AC7005F05D
:1050B000E1FD2422002104F5A47004F044FF04F56E
:1050C000277005F0D7FD2422002104F5237004F099
:1050D0003AFFFEF79DFCFEF779F80020FFF734FC5D
:1050E000002004F041FE002504F11400257102F0B7
:1050F000D7F8284638BD00BF8C1F0020781F00203D
:10510000064B1A7932B15B79002B0CBF6FF012009D
:10511000002070476FF01200704700BF781F00201A
:1051200038B50E4B1B790446A3B105782846FFF726
:10513000E5FB18B96FF01504204638BD457261884B
:10514000237983724C1E0C404160F3D1284604F051
:10515000D3FBF1E76FF01204EEE700BF781F0020E9
:1051600038B5114B1A790546BAB15B79ABB1FFF787
:10517000C5FB0446A0B1837A032B05D8DFE803F012
:105180000210090904F0ECFB0020A369E060E36170
:1051900038BD2846FEF7CEF9F6E76FF01200F7E7C4
:1051A0006FF01500F4E700BF781F00200A4B1A7952
:1051B00010B504464AB15B793BB1FFF79FFB38B1AC
:1051C0002046FEF7BBFC002010BD6FF01200FBE78D
:1051D0006FF01500F8E700BF781F002038B50B4BC3
:1051E0001A7905460C4652B15B7943B1FFF786FB4D
:1051F00040B12846FEF7AAF92070002038BD6FF0B4
:105200001200FBE76FF01500F8E700BF781F0020E1
:1052100070B50D4D2B7906466BB1FFF76FFB68B18A
:10522000047A74B901230372687918B13046FEF725
:1052300035FC204670BD6FF01200FBE76FF01500E3
:10524000F8E76FF04400F5E7781F00202DE9FF47ED
:10525000304E9846337907468A461446002B53D081
:1052600096F80590B9F1000F4ED003064FD5FFF721
:1052700045FB054600284AD04FF0FF3106F11400E7
:1052800001F09EFF95F8222002F0FF034AB106F1DB
:10529000140002F005F86FF00A04204604B0BDE8DF
:1052A000F0876A68A869A2423CBF14464B4685F85D
:1052B00023302246514604F01CFEEC60B8F1000F8A
:1052C00001D0C8F80040AC7A4CB9FEF7A3F9B84257
:1052D00005D004F042FB104801F0E2FFDDE70123B6
:1052E00085F82230AB6901930024EB68029301A991
:1052F00038460394FEF79CF8084B98421CBF85F88B
:1053000022406FF00404E6E76FF01204C5E76FF087
:105310001504C2E7781F00208C1F00200000AD0B91
:105320002DE9F0411D461E4B90461A790F46002A82
:1053300030D05B7973B303062FD411B9B8F1000FE5
:105340002BD1FFF7DBFA044638B34FF0FF31154895
:1053500001F036FFE36843451E4628BF464657B96D
:10536000B8F1000F07D105B12B600E4801F098FF8E
:105370000020BDE8F0813246E169384604F0B9FD0D
:10538000E3693344E361E3689B1BE360002DECD0E9
:105390002E60EAE76FF01200EBE76FF01500E8E728
:1053A000781F00208C1F002038B51A4D2A7903463B
:1053B00032B36A7922B31B0625D4FFF79FFA04465D
:1053C00008B34FF0FF3105F1140001F0F9FEE36876
:1053D0008BB90125A36984F82050E36194F821304A
:1053E0004BB1FFF7FDFA88B10575C4600574FFF78E
:1053F000A5FAFFF7CFFA084801F052FF002038BDA8
:105400006FF01200FBE76FF01500F8E76FF00B008C
:10541000F5E700BF781F00208C1F0020084B1B7988
:1054200010B50C462BB1FFF769FA28B104600020D3
:1054300010BD6FF01200FBE76FF01500F8E700BF3A
:10544000781F0020014B186000207047781F002053
:1054500008B5074B1B7923B1FFF750FA20B140681C
:1054600008BD6FF01200FBE76FF01500F8E700BF12
:10547000781F0020104B002210B4C3F840214FF0D9
:105480002002EFF3118482F31188BFF36F8F0B4A70
:10549000D3F80405116840F24713401A20F07F400A
:1054A000B0FBF3F003FB0013136084F31188BFF328
:1054B0006F8F10BC02F05CBC001001402C22002059
:1054C00037B51F4801F0DAFC002835D043681D4D80
:1054D0001B6801219847002440F24713C5F808458E
:1054E000C5F840354FF48033C5F84433C5F804336C
:1054F00003F1804303F58A534FF400321C601B68AC
:105500000193019B104B0121C3F8802111202246F9
:1055100000F0DAFE112000F0A5FE0C4A0123136012
:105520002B60D5F8043503F2471323F07F43C5F809
:105530004035204603B030BD4FF0FF30FAE700BFE2
:105540008DB800000010014000E100E008100140AB
:105550004CF6690270B5B0F1FF3F08BF10464FF03E
:105560002003EFF3118483F31188BFF36F8F144D81
:1055700014492E68D1F8043501389042A8BF10466E
:105580009A1B22F07F4240F2471520EAE07002F5B4
:10559000A37205FB0020B0FBF5F005FB0060C31A09
:1055A00023F07F4323F01F0303B9284420F07F40FA
:1055B000C1F8400584F31188BFF36F8F70BD00BF41
:1055C0002C220020001001404FF02002EFF3118345
:1055D00082F31188BFF36F8F084AD2F80405084A96
:1055E0001268801A20F07F4040F24712B0FBF2F0C0
:1055F00083F31188BFF36F8F704700BF0010014025
:105600002C2200204FF02003EFF3118283F3118846
:10561000BFF36F8F0649074B0868D3F8043582F350
:105620001188BFF36F8F1B1A23F07F431844704714
:105630002C22002000100140F7B5244D2868436853
:105640005B6C03B19847286843685B6B002B3BD0C9
:105650009847002838D01E4C1E4E286843689B6926
:10566000002B31D001220DF10701984701282BD1E1
:10567000236843B933683BB371681A6832608B4260
:1056800000D17260236014499DF807700A88B2F552
:10569000007F084606D22368134402F1010CA1F8EA
:1056A00000C01F720A2FD8D1236802885A600B49A4
:1056B00000221A604E6826B9C1E9003302802260D8
:1056C000CAE733604B60F9E703B0F0BD582600200D
:1056D00038220020302200209C2800205026002064
:1056E000044B10B5044618684368E1B25B689847FC
:1056F000204610BD58260020F8B5064615464FF046
:105700002003EFF3118C83F31188BFF36F8F194AD5
:1057100013684BB1184844689C4205D000241C60B3
:10572000446894B9C0E90033144B186828B15F6825
:1057300004681C60B84208BF5C608CF31188BFF33A
:105740006F8F106020B92860F8BD23604360EBE7DD
:105750004C1E41688C42A8BF0C46224600F108014D
:10576000304604F0C6FB0023335501232B60E018BC
:10577000EAE700BF3C220020302200205026002013
:105780001E4B002213B5C3E900221D4B1D49C3F86F
:10579000082203F502721A604A600B601A481B4C1B
:1057A00001F06CFB0246206020B343681BB19B6C88
:1057B0000BB117499847206843685B6B53B1984712
:1057C00040B1206843689B6923B101220DF10701B4
:1057D0009847F5E70F4A2068002313804268926AD1
:1057E0001C4602B1904784F31188BFF36F8F0020ED
:1057F00002B010BD4FF0FF30FAE700BF5026002086
:1058000040220020302200205AB8000058260020F4
:10581000395600009C28002038B543680446981883
:105820005028154608D80648184404F062FB626800
:105830002A446260002038BD4FF00040FBE700BF03
:10584000A63100202DE9F0413F4BDFF810811B8885
:10585000D8F800003D4F81883D4EB6B00225ADF826
:105860000C303C4B5C680378C4F3072242EA042204
:10587000428001330A02037042EA1122002343707E
:1058800082800821009341F2210203F034FB0122BF
:105890000346ADF810000092214641F2210238463D
:1058A00003F029FB336840BAADF810005B6803A829
:1058B0000221984704F10A035BBA0DF1120102229A
:1058C00006A8ADF8123004F014FBD8F80010ADF8BB
:1058D000125008220DF11A0004F00BFBBDF8120063
:1058E000083006AB80B2ADF81200224639461844A3
:1058F00004F0FFFABDF81200204406AB80B2ADF808
:1059000012002A4604A9184404F0F3FABDF8123034
:105910002B449BB205AAADF8123000936D2106AB63
:105920001AA8FCF797FE05993368ADF812101AA86B
:105930005B6889B29847336807485B68294698478F
:1059400036B0BDE8F08100BFBCB20000A631002037
:105950005C260020606C0020BFB80000602600209C
:105960002DE9F0430023ADF52B7D4FF0FF320024ED
:10597000CDE90223CDE9042305460E464FF400721B
:1059800021462AA8019404F0DEFA3246294615A8D9
:1059900001F00EFA0BAB1EAA214615A805F0D5F8AA
:1059A0009DF83E3003F0DF03802B27D003254FF016
:1059B000FF328249824801F01BFA82497F4804F095
:1059C00039FA2A46EB177D4804F0A3FE4DB97E490B
:1059D0007A4804F02FFA7D4B78481A682B4604F079
:1059E0008AFE7649764804F0BEFEFFF72BFF019849
:1059F00004F03BF90DF52B7DBDE8F08310A90BA851
:105A000005F0AFF80028D1D1714E6F4FDFF8CC818F
:105A100004469DF85230FF2B28D1DDE90223002BEC
:105A200008BFB2F1FF3FC1D00020FBF783FD01A901
:105A3000C0B2FEF773FD0028B8D1DDE9028958EA4B
:105A40000903624E0AD1019B3060DDE904019A68C6
:105A5000002382428B41A9DB5E4B18603368002132
:105A6000894508BF98455ED00025A0E7694610A883
:105A700005F0F8F8002899D19DF85230602B95D1A7
:105A8000009B062B92D807AD10AB6A4629461846F4
:105A900001F0BEF9002889D1009B3146E854284620
:105AA00004F00BFAD8B99DF85230402B7FF47EAF4A
:105AB000694610A805F0D6F800287FF477AF009B60
:105AC000B3F5007FBFF472AF10AB6A462AA918463F
:105AD00001F09EF900287FF469AF009C99E73946F0
:105AE000284604F0EAF988B99DF85230002B7FF47B
:105AF0005DAF02A910A804F0AAF900287FF456AF00
:105B000010A805F0A7F8002883D04FE741462846A3
:105B100004F0D3F90028F3D19DF85230002B7FF424
:105B200045AF04A9E6E72B4A116823448B4290460F
:105B300007D2019804F006F9B4FBF0F303FB104020
:105B4000241A306809A92044FBF7FEFC054600280A
:105B50007FF42DAF204F09993B68994225D1234608
:105B60002AAA3168019804F09EF800287FF41EAF3D
:105B70003068D8F8003004449C4234607FF474AF3D
:105B8000019802F000FA09A9FBF7DEFC054600289F
:105B90007FF40DAF09993B6899427FF765AF0A9A88
:105BA000019804F0A9F8054601E70A9A01983960BE
:105BB00004F0A2F805460028D1D0F8E68826002097
:105BC00064260020CFB80000C7B80000AC26002033
:105BD000C2B80000B0260020686C0020CBB80000DE
:105BE00038B50C4C0C4D4FF0FF322146284601F0E1
:105BF000FFF80A49204604F01DF900230022204640
:105C000004F087FD2146284604F0ADFDBDE838408C
:105C1000FFF718BE8826002064260020CFB80000B9
:105C20002DE9FF410C681B4E1B4B02380F46C4F593
:105C30000071009003AA01313019FCF78DFD054673
:105C400028BB3B68039A1344022B3B601BD9328864
:105C5000140244EA1224A4B2023B9C4213D14FF036
:105C600001080346CDF8008041F221022146B01C14
:105C700003F041F938B9022C05D93B68023B1E44B8
:105C80003B60B5704546284604B0BDE8F0814FF052
:105C9000FF35F8E7F6310020F93300202DE9F04711
:105CA0000729B0B004465ED9027812F0FD025AD13D
:105CB0004088030243EA1023A1F108059BB2AB42DE
:105CC00051D3A188604B61481C600B0243EA112349
:105CD0005F49A3804A6004F009FDA388012B40F0CE
:105CE000A180E3792BB1012B00F09680FFF778FFBC
:105CF00039E04FF0FF3257495448574DDFF8608183
:105D0000DFF8609101F074F85449524804F092F8B9
:105D10004FF0FF320EA94F4804F022FD0026002765
:105D20003046FBF707FC05A9C0B2FEF7F7FB0446B7
:105D300058B92023014606AA059803F097FF069B51
:105D4000AB4216D0059803F090FF002F08BF012E3C
:105D50000CD10EA93F4804F006FD3E493B4804F033
:105D600002FDFFF76FFD30B0BDE8F0870126002788
:105D7000D6E7CDE901440094402320AA059906A85E
:105D8000FCF712F90028DDD1059803F06EFF4FF003
:105D9000FF3217A90EA801F02BF8414617A804F00E
:105DA00049F832463B4617A804F0B3FC494617A809
:105DB00004F040F89DF82C1020A804F019F830AB3E
:105DC000441C18444FF02E0A20AB00F840AC9DF85C
:105DD0002D10181904F00CF830AB2044441C184462
:105DE00020AB00F840ACBDF82E10181904F000F8F4
:105DF00030AB20440344013003F840AC20AB0C9995
:105E0000184403F0F5FF20A917A804F013F817A908
:105E10000EA804F0A8FC98E7294604F10800FFF753
:105E20009FFDA0E7002B9ED1E379012B3FF45EAFED
:105E3000052B98D1FFF7D4FEFA2001F043FD012095
:105E4000FEF7A4FB8FE700BF602600206426002039
:105E5000606C0020882600203DB8F396ABB80000A7
:105E6000B2B80000B7B800002DE9F3411A4B1B4F40
:105E7000DFF86C801860064600243D46C4F50071CA
:105E8000336801AA0131381998470028019B01DCC9
:105E9000002BF3D004442BB940F201239C42EDD1F6
:105EA0000024EBE72B78062B09D16B78092B0BD15B
:105EB000002300936946A01EFFF7B2FE04E0042B06
:105EC00002D16B78142BF5D00128E9D10099404616
:105ED0000239FFF7E3FEE3E75C260020F7330020FA
:105EE000F831002004488168006A884203D00349E1
:105EF0004FF080520A607047E427002004ED00E074
:105F0000044800232021C2180133302B82F80013EB
:105F1000F9D1704700E100E0094A0A49936809682D
:105F20009966094958664B6843F080534B600023DB
:105F300083F31188BFF36F8F9368986E704700BF2B
:105F4000E4270020A0B6000000ED00E0202080F350
:105F50001188BFF36F8F11498A684FF028001044F1
:105F6000EFF3098C80E8F01F0D4F4FF000660A6ACE
:105F70008A603E60506E0023536680F3118804B53A
:105F80000648806803F08AFFBDE8044002F128005B
:105F900090E8F01F8CF3098870470000E427002088
:105FA00004ED00E01EF0040F0CBFEFF30880EFF3E8
:105FB0000980816931F8021C11F0FF010229FFD02C
:105FC00001B503F05CFF01BD38B51C4C05461C480B
:105FD00003F040FBA26AD10602D51A4803F03AFB4F
:105FE000A36A1A0702D5184803F034FB134CA36ABE
:105FF0009B070ED5154803F02DFB616BA36A1806AD
:1060000007D5134803F026FB1DB1A36A23F08003D4
:10601000A3620A4CA26AD20702D50E4803F01AFB0B
:10602000A36A9B0602D50C4803F014FB034B9A6A43
:106030009A6A42F0FF029A62002038BD00ED00E04B
:1060400060B9000077B90000ABB90000BFB900002B
:10605000D8B90000EFB900000FBA000038B51E4CE7
:1060600005461E4803F0F6FAA26AD10402D51C4880
:1060700003F0F0FAA36A1A0502D51A4803F0EAFA07
:10608000154CA36A9B050ED5174803F0E3FAA16BE4
:10609000A36A180407D5154803F0DCFA1DB1A36AFA
:1060A00023F40043A3620C4CA36A590502D510489F
:1060B00003F0D0FAA36ADA0509D50E4803F0CAFA4C
:1060C000054A936A43F47F439362002038BDA36A74
:1060D0009B04F5D50848F1E700ED00E0D2B80000D8
:1060E000E9B80000ABB90000FBB8000015B900002A
:1060F0002BB9000047B900000FBA000010B5194CC9
:10610000194803F0A7FAA26A930102D5174803F0D1
:10611000A1FAA36ADC0102D5154803F09BFA114CE1
:10612000A26A100302D5134803F094FAA36A590334
:1061300002D5114803F08EFA0A4CA26A920302D5E6
:106140000E4803F087FAA36ADB0302D50C4803F07C
:1061500081FA044A936A6FEA03436FEA1343936236
:10616000002010BD00ED00E03FBA000058BA00006A
:106170006CBA000087BA0000A6BA0000CCBA0000D2
:10618000E7BA000070B5284D6B68C3F30802D11E52
:10619000064609293BD8DFE801F0053436293A3AAA
:1061A0003A3A3A38214803F055FAEC6A14F00204FE
:1061B00004D01F4803F04EFA00241CE0EB6A5B0099
:1061C00019D51C4803F046FA1B4B1B781BB1012064
:1061D000FFF7FAFE0CE0194B1B781BB10120FFF70B
:1061E0003DFF05E0164B1B889BB223B1FFF786FFEE
:1061F0000628044617D031462046BDE8704000F01E
:10620000C5B80020E4E70020E9E70E48D2E713F420
:10621000F87F0D4B0D490E48A2F1100218BF194628
:1062200003F018FAC8E770BD00ED00E041BB0000C4
:1062300059BB00007BBB000028ED00E029ED00E029
:106240002AED00E09BBB000028BB000013BB000050
:10625000D2BB0000024A536943F0100353617047F8
:1062600000ED00E043B2002B08DB012200F01F002C
:1062700002FA00F05B09024A42F82300704700BFAF
:1062800000E100E043B2002B0DDB01225B0900F0CE
:106290001F0002FA00F02033034A42F82300BFF344
:1062A0004F8FBFF36F8F704700E100E04209054B4D
:1062B00000F01F0053F82220012303FA00F01040E1
:1062C000704700BF00E100E043B2002BA8BF03F11C
:1062D000604301F101014FEA4111AEBF03F5614393
:1062E00000F00F00034BC9B2ACBF83F80013195480
:1062F000704700BF14ED00E02DE9F0418C1888468E
:1063000017461E4604220A9B0999054604F063FEBF
:10631000A4F120030C4923F00703002221F001011E
:10632000C5E91322C5E9168799610699596007994D
:1063300099600899D9604FF080711E60D961AB6493
:106340006A66BDE8F08100BF419300000149102258
:106350000A60704710ED00E0404080F3118830BFC4
:10636000704700BF404080F31188DFF81CC0DCF8A4
:1063700000C01CF4006C0CBFEFF30880EFF3098041
:1063800001B5FFF7FFFE01BD04ED00E038B504469E
:106390000D4605281AD8DFE800F003191913151760
:1063A0000D4803F057F901F0D9FAAA6901460B48E4
:1063B00003F050F929462046BDE8384000F018B8EF
:1063C0000748EEE70748ECE70748EAE701460748D1
:1063D00003F040F9E7E700BFE6BB000084BC000023
:1063E00006BC00002CBC000046BC000061BC0000E4
:1063F000052810B50CD001F019FB60B101F016FBB7
:106400000C490D4B002808BF19460C4803F022F92F
:10641000FFF7A2FFFCE701F019FB0028EED1084CC2
:106420000848A16803F016F9A068BDE8104000F024
:106430000BB800BFC0BC0000C4BC0000D5BC00004D
:10644000E4270020F5BC000038B505464FF02003D6
:10645000EFF3118483F31188BFF36F8F04F09CFD79
:106460000A4B9B68AB420BD1094B5A68C2F3080236
:1064700012B92046FFF750FD5A6842F080525A6028
:106480002046BDE8384004F0C7BC00BFE427002028
:1064900000ED00E001B5EFF30580A0F110004FEA38
:1064A000C0000449014409C99847BDE801400248B9
:1064B00000470000A0B00000E55E000003F0E3FC30
:1064C00000F004F830BFFFF7FDBF00BF08B50E4B6A
:1064D00083F30988EFF3148343F0020383F31488F2
:1064E000BFF36F8F094B0A4A23F07F039360BFF31A
:1064F0004F8FBFF36F8F00F0E7FC00F0EFFCFFF76A
:10650000FFFC00F019FD00BF6067002000100000D4
:1065100000ED00E01FB5084B0193084B0293084BB8
:10652000039301AB0093074A074B0121684600F033
:1065300091F805B05DF804FB0000002000000000A9
:1065400000000B060000002000000420F0B5204FE2
:1065500000268E4201DB1046F0BD50F826C0DCF864
:10656000044094B35BB104F1FF3E14EA0E0F1AD15C
:106570001F2C18D9DCF800501EEA050F13D1202C6F
:10658000DCF80050DCF808C0D2B20FD9B4F1004FEB
:106590000ED8013CB4FA84F4C4F11F046400072A45
:1065A0004CEA040406D96FF01502D4E70824F6E794
:1065B0003E24F4E725F01F05154345F0100544F08F
:1065C0000104BA60FD6001323C610136C1E700BFE1
:1065D00090ED00E0034B05225A60BFF34F8FBFF3ED
:1065E0006F8F704790ED00E0BFF35F8F014B00228B
:1065F0005A60704790ED00E013490868082810B50C
:106600001ED8FFF7F1FF114C49680022904201F1BA
:106610000C0105D10E4B1870FFF7DCFF002010BDF8
:10662000A26051F80C3C23F01F03134343F0100306
:10663000E36051F8043C43F0010323610132E5E7D4
:106640004FF0FF30EBE700BFA8B4000090ED00E092
:10665000F835002010B5034C01232278FFF776FFB0
:10666000207010BDF835002008B5084A00231278C4
:10667000FFF76CFF10F1160F03D0054B002207281F
:1066800000DD08BD98601A610130F8E7F835002098
:1066900090ED00E04FF08043D3F84036DB072ED575
:1066A0004FF01023D3F8043303F00703072B26D150
:1066B000144B0122C3F80425D3F80024002AFBD090
:1066C0004FF01021D1F8042322F0070242F0040217
:1066D000C1F804230022C3F804250A4AD2F8003482
:1066E000002BFBD0BFF34F8F0749084BCA6802F459
:1066F000E0621343CB60BFF34F8F00BFFDE7002084
:10670000704700BF00E0014000ED00E00400FA0522
:1067100008B5094B1A786AB90121197006200521BC
:10672000FFF7D2FD0620FFF79DFD044B4FF000421E
:10673000C3F80423002008BDF935002000600040A4
:106740001F288ABF094B4FF0A04300F01F0003EB46
:106750008000D0F8002722F44032C0F80027D0F89B
:10676000003743EA0143C0F8003770470003005088
:10677000F7B5036887689B6801F01F050E464E4910
:106780001B79D1F8042345EA4315D2B2002303F55F
:10679000A27051F82000C0F30520854270D122FA82
:1067A00003F0C0076CD59A0002F1804202F5C042A6
:1067B000D2F8100520F00100C2F81005012202FAFB
:1067C00003F3C1F8083328460021FFF7B9FFB86882
:1067D000F04010F0010051D0F868F04010F00100D6
:1067E0004CD07869F04010F0010455D0BB69F340FB
:1067F000DB0749D43B69FA69F34022FA06F603F055
:10680000010306F00106B34214BF012602262A4CFA
:10681000002101F5A27354F8230010F0030035D1D4
:106820008B0003F1804303F5C0432D02D3F81025FC
:1068300022F44F3222F44072C3F81025D3F8102509
:1068400005F47C5545EA0646164301F140029200E4
:1068500092B202F1804202F5C042C3F810651060A6
:1068600012680192019AD3F8102542F00102C3F890
:106870001025012303FA01F1C4F8041303B0F0BD9D
:106880000133082B83D19EE70326C0E70131082995
:10689000BFD16FF01200F1E73B69FA69534023FA68
:1068A00006F616F0010F28460CBF03210221FFF760
:1068B00047FF2046E2E700BF006000402DE9F84FA7
:1068C0000746856803F47040B0F5804F1E463ED001
:1068D00009DCB0F5805F3CD0B0F5405F3BD090B1B3
:1068E0006FF0150031E0B0F5E04F36D004DCB0F5C4
:1068F000A04FF5D1032006E0B0F5404F2FD0B0F502
:10690000504FEDD1072006F44078B8F5807F28D0AD
:10691000A8F500746342634106F0010C4FEA4C088D
:10692000012948EA0C0818BFD4B248EA0020DFF871
:10693000B0A012BFA1464FF01F09002440EA83080F
:106940004FF0010BA1450ED20020BDE8F88F0220C8
:10695000D9E70120D7E70420D5E70520D3E70620B3
:10696000D1E70323D8E73B689B681A7904F01F033B
:1069700043EA42131F2BC6BF03F01F0352464FF0DA
:10698000A04203F5E073B10742F82380AB680BFA2D
:1069900004F24CBF13439343AB606B69B0064CBF2A
:1069A000134393436B61AB6971064CBF134393432D
:1069B000AB612B6970074CBF134393432B61EB69A9
:1069C00031064CBF1A4323EA0202EA6121463846E7
:1069D000FFF7CEFE0028B8D10134E4B2B2E700BF21
:1069E00000030050F0B5002685B0CDE902662B4DBE
:1069F0002C68012C0BD12A4803F03AFB029029485D
:106A000003F036FB03902E602B680093009B264E0C
:106A1000002301279C46D6F8042307FA03F111420C
:106A20001ED09A0002F1804202F5C242116801298B
:106A300016D103F5A2700DF1100E56F82050C2F8D1
:106A400000C0C5F340300EEB8000C5F30425A9401B
:106A5000126850F8085C01922943019A40F8081C1A
:106A60000133082BD7D1029A1AB10D49886803F077
:106A70008CFA039A2AB10A4B03F10C01586903F00E
:106A800084FA012C08D1064803F020FB054805B024
:106A9000BDE8F04003F01ABB05B0F0BD7C610040DA
:106AA000F46C0020006D002000600040024AD2F823
:106AB0000034002BFBD0704700E00140024B0B601C
:106AC00001231360704700BFF4260020012208B59F
:106AD0001146064804F051FA4FF08052044B5169B8
